{
  "address": "0x25FbbB97ccaFe4E4BE1dCE89988c170E721A9947",
  "abi": [
    {
      "inputs": [
        {
          "internalType": "address",
          "name": "_usdc",
          "type": "address"
        },
        {
          "internalType": "address",
          "name": "_vaultManager",
          "type": "address"
        },
        {
          "internalType": "address",
          "name": "_feeReceiver",
          "type": "address"
        }
      ],
      "stateMutability": "nonpayable",
      "type": "constructor"
    },
    {
      "inputs": [
        {
          "internalType": "address",
          "name": "sender",
          "type": "address"
        },
        {
          "internalType": "uint256",
          "name": "tokenId",
          "type": "uint256"
        },
        {
          "internalType": "address",
          "name": "owner",
          "type": "address"
        }
      ],
      "name": "ERC721IncorrectOwner",
      "type": "error"
    },
    {
      "inputs": [
        {
          "internalType": "address",
          "name": "operator",
          "type": "address"
        },
        {
          "internalType": "uint256",
          "name": "tokenId",
          "type": "uint256"
        }
      ],
      "name": "ERC721InsufficientApproval",
      "type": "error"
    },
    {
      "inputs": [
        {
          "internalType": "address",
          "name": "approver",
          "type": "address"
        }
      ],
      "name": "ERC721InvalidApprover",
      "type": "error"
    },
    {
      "inputs": [
        {
          "internalType": "address",
          "name": "operator",
          "type": "address"
        }
      ],
      "name": "ERC721InvalidOperator",
      "type": "error"
    },
    {
      "inputs": [
        {
          "internalType": "address",
          "name": "owner",
          "type": "address"
        }
      ],
      "name": "ERC721InvalidOwner",
      "type": "error"
    },
    {
      "inputs": [
        {
          "internalType": "address",
          "name": "receiver",
          "type": "address"
        }
      ],
      "name": "ERC721InvalidReceiver",
      "type": "error"
    },
    {
      "inputs": [
        {
          "internalType": "address",
          "name": "sender",
          "type": "address"
        }
      ],
      "name": "ERC721InvalidSender",
      "type": "error"
    },
    {
      "inputs": [
        {
          "internalType": "uint256",
          "name": "tokenId",
          "type": "uint256"
        }
      ],
      "name": "ERC721NonexistentToken",
      "type": "error"
    },
    {
      "inputs": [],
      "name": "EnforcedPause",
      "type": "error"
    },
    {
      "inputs": [],
      "name": "ExpectedPause",
      "type": "error"
    },
    {
      "inputs": [
        {
          "internalType": "address",
          "name": "owner",
          "type": "address"
        }
      ],
      "name": "OwnableInvalidOwner",
      "type": "error"
    },
    {
      "inputs": [
        {
          "internalType": "address",
          "name": "account",
          "type": "address"
        }
      ],
      "name": "OwnableUnauthorizedAccount",
      "type": "error"
    },
    {
      "inputs": [],
      "name": "ReentrancyGuardReentrantCall",
      "type": "error"
    },
    {
      "inputs": [
        {
          "internalType": "address",
          "name": "token",
          "type": "address"
        }
      ],
      "name": "SafeERC20FailedOperation",
      "type": "error"
    },
    {
      "anonymous": false,
      "inputs": [
        {
          "indexed": true,
          "internalType": "address",
          "name": "owner",
          "type": "address"
        },
        {
          "indexed": true,
          "internalType": "address",
          "name": "approved",
          "type": "address"
        },
        {
          "indexed": true,
          "internalType": "uint256",
          "name": "tokenId",
          "type": "uint256"
        }
      ],
      "name": "Approval",
      "type": "event"
    },
    {
      "anonymous": false,
      "inputs": [
        {
          "indexed": true,
          "internalType": "address",
          "name": "owner",
          "type": "address"
        },
        {
          "indexed": true,
          "internalType": "address",
          "name": "operator",
          "type": "address"
        },
        {
          "indexed": false,
          "internalType": "bool",
          "name": "approved",
          "type": "bool"
        }
      ],
      "name": "ApprovalForAll",
      "type": "event"
    },
    {
      "anonymous": false,
      "inputs": [
        {
          "indexed": true,
          "internalType": "uint256",
          "name": "depositId",
          "type": "uint256"
        },
        {
          "indexed": false,
          "internalType": "uint256",
          "name": "principal",
          "type": "uint256"
        },
        {
          "indexed": false,
          "internalType": "uint256",
          "name": "penalty",
          "type": "uint256"
        }
      ],
      "name": "DepositEarlyWithdrawn",
      "type": "event"
    },
    {
      "anonymous": false,
      "inputs": [
        {
          "indexed": true,
          "internalType": "uint256",
          "name": "depositId",
          "type": "uint256"
        },
        {
          "indexed": true,
          "internalType": "uint256",
          "name": "planId",
          "type": "uint256"
        },
        {
          "indexed": false,
          "internalType": "address",
          "name": "owner",
          "type": "address"
        },
        {
          "indexed": false,
          "internalType": "uint256",
          "name": "principal",
          "type": "uint256"
        },
        {
          "indexed": false,
          "internalType": "uint256",
          "name": "maturityAt",
          "type": "uint256"
        }
      ],
      "name": "DepositOpened",
      "type": "event"
    },
    {
      "anonymous": false,
      "inputs": [
        {
          "indexed": true,
          "internalType": "uint256",
          "name": "oldDepositId",
          "type": "uint256"
        },
        {
          "indexed": true,
          "internalType": "uint256",
          "name": "newDepositId",
          "type": "uint256"
        },
        {
          "indexed": false,
          "internalType": "uint256",
          "name": "newPrincipal",
          "type": "uint256"
        }
      ],
      "name": "DepositRenewed",
      "type": "event"
    },
    {
      "anonymous": false,
      "inputs": [
        {
          "indexed": true,
          "internalType": "uint256",
          "name": "depositId",
          "type": "uint256"
        },
        {
          "indexed": false,
          "internalType": "uint256",
          "name": "principal",
          "type": "uint256"
        },
        {
          "indexed": false,
          "internalType": "uint256",
          "name": "interest",
          "type": "uint256"
        }
      ],
      "name": "DepositWithdrawn",
      "type": "event"
    },
    {
      "anonymous": false,
      "inputs": [
        {
          "indexed": false,
          "internalType": "address",
          "name": "oldReceiver",
          "type": "address"
        },
        {
          "indexed": false,
          "internalType": "address",
          "name": "newReceiver",
          "type": "address"
        }
      ],
      "name": "FeeReceiverUpdated",
      "type": "event"
    },
    {
      "anonymous": false,
      "inputs": [
        {
          "indexed": true,
          "internalType": "address",
          "name": "previousOwner",
          "type": "address"
        },
        {
          "indexed": true,
          "internalType": "address",
          "name": "newOwner",
          "type": "address"
        }
      ],
      "name": "OwnershipTransferred",
      "type": "event"
    },
    {
      "anonymous": false,
      "inputs": [
        {
          "indexed": false,
          "internalType": "address",
          "name": "account",
          "type": "address"
        }
      ],
      "name": "Paused",
      "type": "event"
    },
    {
      "anonymous": false,
      "inputs": [
        {
          "indexed": true,
          "internalType": "uint256",
          "name": "planId",
          "type": "uint256"
        },
        {
          "indexed": false,
          "internalType": "uint256",
          "name": "oldApr",
          "type": "uint256"
        },
        {
          "indexed": false,
          "internalType": "uint256",
          "name": "newApr",
          "type": "uint256"
        }
      ],
      "name": "PlanAprUpdated",
      "type": "event"
    },
    {
      "anonymous": false,
      "inputs": [
        {
          "indexed": true,
          "internalType": "uint256",
          "name": "planId",
          "type": "uint256"
        },
        {
          "indexed": false,
          "internalType": "uint256",
          "name": "tenorDays",
          "type": "uint256"
        },
        {
          "indexed": false,
          "internalType": "uint256",
          "name": "aprBps",
          "type": "uint256"
        },
        {
          "indexed": false,
          "internalType": "uint256",
          "name": "minDeposit",
          "type": "uint256"
        },
        {
          "indexed": false,
          "internalType": "uint256",
          "name": "maxDeposit",
          "type": "uint256"
        },
        {
          "indexed": false,
          "internalType": "uint256",
          "name": "penaltyBps",
          "type": "uint256"
        }
      ],
      "name": "PlanCreated",
      "type": "event"
    },
    {
      "anonymous": false,
      "inputs": [
        {
          "indexed": true,
          "internalType": "uint256",
          "name": "planId",
          "type": "uint256"
        }
      ],
      "name": "PlanDisabled",
      "type": "event"
    },
    {
      "anonymous": false,
      "inputs": [
        {
          "indexed": true,
          "internalType": "uint256",
          "name": "planId",
          "type": "uint256"
        }
      ],
      "name": "PlanEnabled",
      "type": "event"
    },
    {
      "anonymous": false,
      "inputs": [
        {
          "indexed": true,
          "internalType": "address",
          "name": "from",
          "type": "address"
        },
        {
          "indexed": true,
          "internalType": "address",
          "name": "to",
          "type": "address"
        },
        {
          "indexed": true,
          "internalType": "uint256",
          "name": "tokenId",
          "type": "uint256"
        }
      ],
      "name": "Transfer",
      "type": "event"
    },
    {
      "anonymous": false,
      "inputs": [
        {
          "indexed": false,
          "internalType": "address",
          "name": "account",
          "type": "address"
        }
      ],
      "name": "Unpaused",
      "type": "event"
    },
    {
      "inputs": [],
      "name": "BPS_DENOMINATOR",
      "outputs": [
        {
          "internalType": "uint256",
          "name": "",
          "type": "uint256"
        }
      ],
      "stateMutability": "view",
      "type": "function"
    },
    {
      "inputs": [],
      "name": "GRACE_PERIOD_DAYS",
      "outputs": [
        {
          "internalType": "uint256",
          "name": "",
          "type": "uint256"
        }
      ],
      "stateMutability": "view",
      "type": "function"
    },
    {
      "inputs": [],
      "name": "SECONDS_PER_YEAR",
      "outputs": [
        {
          "internalType": "uint256",
          "name": "",
          "type": "uint256"
        }
      ],
      "stateMutability": "view",
      "type": "function"
    },
    {
      "inputs": [
        {
          "internalType": "address",
          "name": "to",
          "type": "address"
        },
        {
          "internalType": "uint256",
          "name": "tokenId",
          "type": "uint256"
        }
      ],
      "name": "approve",
      "outputs": [],
      "stateMutability": "nonpayable",
      "type": "function"
    },
    {
      "inputs": [
        {
          "internalType": "uint256",
          "name": "depositId",
          "type": "uint256"
        }
      ],
      "name": "autoRenewDeposit",
      "outputs": [
        {
          "internalType": "uint256",
          "name": "",
          "type": "uint256"
        }
      ],
      "stateMutability": "nonpayable",
      "type": "function"
    },
    {
      "inputs": [
        {
          "internalType": "address",
          "name": "owner",
          "type": "address"
        }
      ],
      "name": "balanceOf",
      "outputs": [
        {
          "internalType": "uint256",
          "name": "",
          "type": "uint256"
        }
      ],
      "stateMutability": "view",
      "type": "function"
    },
    {
      "inputs": [
        {
          "internalType": "uint256",
          "name": "principal",
          "type": "uint256"
        },
        {
          "internalType": "uint256",
          "name": "aprBps",
          "type": "uint256"
        },
        {
          "internalType": "uint256",
          "name": "tenorSeconds",
          "type": "uint256"
        }
      ],
      "name": "calculateInterest",
      "outputs": [
        {
          "internalType": "uint256",
          "name": "",
          "type": "uint256"
        }
      ],
      "stateMutability": "pure",
      "type": "function"
    },
    {
      "inputs": [
        {
          "internalType": "uint256",
          "name": "tenorDays",
          "type": "uint256"
        },
        {
          "internalType": "uint256",
          "name": "aprBps",
          "type": "uint256"
        },
        {
          "internalType": "uint256",
          "name": "minDeposit",
          "type": "uint256"
        },
        {
          "internalType": "uint256",
          "name": "maxDeposit",
          "type": "uint256"
        },
        {
          "internalType": "uint256",
          "name": "earlyWithdrawPenaltyBps",
          "type": "uint256"
        }
      ],
      "name": "createPlan",
      "outputs": [
        {
          "internalType": "uint256",
          "name": "",
          "type": "uint256"
        }
      ],
      "stateMutability": "nonpayable",
      "type": "function"
    },
    {
      "inputs": [],
      "name": "depositCount",
      "outputs": [
        {
          "internalType": "uint256",
          "name": "",
          "type": "uint256"
        }
      ],
      "stateMutability": "view",
      "type": "function"
    },
    {
      "inputs": [
        {
          "internalType": "uint256",
          "name": "",
          "type": "uint256"
        }
      ],
      "name": "deposits",
      "outputs": [
        {
          "internalType": "uint256",
          "name": "planId",
          "type": "uint256"
        },
        {
          "internalType": "address",
          "name": "owner",
          "type": "address"
        },
        {
          "internalType": "uint256",
          "name": "principal",
          "type": "uint256"
        },
        {
          "internalType": "uint256",
          "name": "startAt",
          "type": "uint256"
        },
        {
          "internalType": "uint256",
          "name": "maturityAt",
          "type": "uint256"
        },
        {
          "internalType": "uint256",
          "name": "aprBpsAtOpen",
          "type": "uint256"
        },
        {
          "internalType": "uint256",
          "name": "penaltyBpsAtOpen",
          "type": "uint256"
        },
        {
          "internalType": "enum SavingCore.DepositStatus",
          "name": "status",
          "type": "uint8"
        }
      ],
      "stateMutability": "view",
      "type": "function"
    },
    {
      "inputs": [
        {
          "internalType": "uint256",
          "name": "planId",
          "type": "uint256"
        }
      ],
      "name": "disablePlan",
      "outputs": [],
      "stateMutability": "nonpayable",
      "type": "function"
    },
    {
      "inputs": [
        {
          "internalType": "uint256",
          "name": "depositId",
          "type": "uint256"
        }
      ],
      "name": "earlyWithdraw",
      "outputs": [],
      "stateMutability": "nonpayable",
      "type": "function"
    },
    {
      "inputs": [
        {
          "internalType": "uint256",
          "name": "planId",
          "type": "uint256"
        }
      ],
      "name": "enablePlan",
      "outputs": [],
      "stateMutability": "nonpayable",
      "type": "function"
    },
    {
      "inputs": [],
      "name": "feeReceiver",
      "outputs": [
        {
          "internalType": "address",
          "name": "",
          "type": "address"
        }
      ],
      "stateMutability": "view",
      "type": "function"
    },
    {
      "inputs": [
        {
          "internalType": "uint256",
          "name": "tokenId",
          "type": "uint256"
        }
      ],
      "name": "getApproved",
      "outputs": [
        {
          "internalType": "address",
          "name": "",
          "type": "address"
        }
      ],
      "stateMutability": "view",
      "type": "function"
    },
    {
      "inputs": [
        {
          "internalType": "uint256",
          "name": "depositId",
          "type": "uint256"
        }
      ],
      "name": "getDeposit",
      "outputs": [
        {
          "components": [
            {
              "internalType": "uint256",
              "name": "planId",
              "type": "uint256"
            },
            {
              "internalType": "address",
              "name": "owner",
              "type": "address"
            },
            {
              "internalType": "uint256",
              "name": "principal",
              "type": "uint256"
            },
            {
              "internalType": "uint256",
              "name": "startAt",
              "type": "uint256"
            },
            {
              "internalType": "uint256",
              "name": "maturityAt",
              "type": "uint256"
            },
            {
              "internalType": "uint256",
              "name": "aprBpsAtOpen",
              "type": "uint256"
            },
            {
              "internalType": "uint256",
              "name": "penaltyBpsAtOpen",
              "type": "uint256"
            },
            {
              "internalType": "enum SavingCore.DepositStatus",
              "name": "status",
              "type": "uint8"
            }
          ],
          "internalType": "struct SavingCore.Deposit",
          "name": "",
          "type": "tuple"
        }
      ],
      "stateMutability": "view",
      "type": "function"
    },
    {
      "inputs": [
        {
          "internalType": "uint256",
          "name": "planId",
          "type": "uint256"
        }
      ],
      "name": "getPlan",
      "outputs": [
        {
          "components": [
            {
              "internalType": "uint256",
              "name": "tenorDays",
              "type": "uint256"
            },
            {
              "internalType": "uint256",
              "name": "aprBps",
              "type": "uint256"
            },
            {
              "internalType": "uint256",
              "name": "minDeposit",
              "type": "uint256"
            },
            {
              "internalType": "uint256",
              "name": "maxDeposit",
              "type": "uint256"
            },
            {
              "internalType": "uint256",
              "name": "earlyWithdrawPenaltyBps",
              "type": "uint256"
            },
            {
              "internalType": "bool",
              "name": "enabled",
              "type": "bool"
            }
          ],
          "internalType": "struct SavingCore.Plan",
          "name": "",
          "type": "tuple"
        }
      ],
      "stateMutability": "view",
      "type": "function"
    },
    {
      "inputs": [
        {
          "internalType": "address",
          "name": "user",
          "type": "address"
        }
      ],
      "name": "getUserDeposits",
      "outputs": [
        {
          "internalType": "uint256[]",
          "name": "",
          "type": "uint256[]"
        }
      ],
      "stateMutability": "view",
      "type": "function"
    },
    {
      "inputs": [
        {
          "internalType": "address",
          "name": "owner",
          "type": "address"
        },
        {
          "internalType": "address",
          "name": "operator",
          "type": "address"
        }
      ],
      "name": "isApprovedForAll",
      "outputs": [
        {
          "internalType": "bool",
          "name": "",
          "type": "bool"
        }
      ],
      "stateMutability": "view",
      "type": "function"
    },
    {
      "inputs": [],
      "name": "name",
      "outputs": [
        {
          "internalType": "string",
          "name": "",
          "type": "string"
        }
      ],
      "stateMutability": "view",
      "type": "function"
    },
    {
      "inputs": [
        {
          "internalType": "uint256",
          "name": "planId",
          "type": "uint256"
        },
        {
          "internalType": "uint256",
          "name": "amount",
          "type": "uint256"
        }
      ],
      "name": "openDeposit",
      "outputs": [
        {
          "internalType": "uint256",
          "name": "",
          "type": "uint256"
        }
      ],
      "stateMutability": "nonpayable",
      "type": "function"
    },
    {
      "inputs": [],
      "name": "owner",
      "outputs": [
        {
          "internalType": "address",
          "name": "",
          "type": "address"
        }
      ],
      "stateMutability": "view",
      "type": "function"
    },
    {
      "inputs": [
        {
          "internalType": "uint256",
          "name": "tokenId",
          "type": "uint256"
        }
      ],
      "name": "ownerOf",
      "outputs": [
        {
          "internalType": "address",
          "name": "",
          "type": "address"
        }
      ],
      "stateMutability": "view",
      "type": "function"
    },
    {
      "inputs": [],
      "name": "pause",
      "outputs": [],
      "stateMutability": "nonpayable",
      "type": "function"
    },
    {
      "inputs": [],
      "name": "paused",
      "outputs": [
        {
          "internalType": "bool",
          "name": "",
          "type": "bool"
        }
      ],
      "stateMutability": "view",
      "type": "function"
    },
    {
      "inputs": [],
      "name": "planCount",
      "outputs": [
        {
          "internalType": "uint256",
          "name": "",
          "type": "uint256"
        }
      ],
      "stateMutability": "view",
      "type": "function"
    },
    {
      "inputs": [
        {
          "internalType": "uint256",
          "name": "",
          "type": "uint256"
        }
      ],
      "name": "plans",
      "outputs": [
        {
          "internalType": "uint256",
          "name": "tenorDays",
          "type": "uint256"
        },
        {
          "internalType": "uint256",
          "name": "aprBps",
          "type": "uint256"
        },
        {
          "internalType": "uint256",
          "name": "minDeposit",
          "type": "uint256"
        },
        {
          "internalType": "uint256",
          "name": "maxDeposit",
          "type": "uint256"
        },
        {
          "internalType": "uint256",
          "name": "earlyWithdrawPenaltyBps",
          "type": "uint256"
        },
        {
          "internalType": "bool",
          "name": "enabled",
          "type": "bool"
        }
      ],
      "stateMutability": "view",
      "type": "function"
    },
    {
      "inputs": [
        {
          "internalType": "uint256",
          "name": "depositId",
          "type": "uint256"
        },
        {
          "internalType": "uint256",
          "name": "newPlanId",
          "type": "uint256"
        }
      ],
      "name": "renewDeposit",
      "outputs": [
        {
          "internalType": "uint256",
          "name": "",
          "type": "uint256"
        }
      ],
      "stateMutability": "nonpayable",
      "type": "function"
    },
    {
      "inputs": [],
      "name": "renounceOwnership",
      "outputs": [],
      "stateMutability": "nonpayable",
      "type": "function"
    },
    {
      "inputs": [
        {
          "internalType": "address",
          "name": "from",
          "type": "address"
        },
        {
          "internalType": "address",
          "name": "to",
          "type": "address"
        },
        {
          "internalType": "uint256",
          "name": "tokenId",
          "type": "uint256"
        }
      ],
      "name": "safeTransferFrom",
      "outputs": [],
      "stateMutability": "nonpayable",
      "type": "function"
    },
    {
      "inputs": [
        {
          "internalType": "address",
          "name": "from",
          "type": "address"
        },
        {
          "internalType": "address",
          "name": "to",
          "type": "address"
        },
        {
          "internalType": "uint256",
          "name": "tokenId",
          "type": "uint256"
        },
        {
          "internalType": "bytes",
          "name": "data",
          "type": "bytes"
        }
      ],
      "name": "safeTransferFrom",
      "outputs": [],
      "stateMutability": "nonpayable",
      "type": "function"
    },
    {
      "inputs": [
        {
          "internalType": "address",
          "name": "operator",
          "type": "address"
        },
        {
          "internalType": "bool",
          "name": "approved",
          "type": "bool"
        }
      ],
      "name": "setApprovalForAll",
      "outputs": [],
      "stateMutability": "nonpayable",
      "type": "function"
    },
    {
      "inputs": [
        {
          "internalType": "address",
          "name": "newReceiver",
          "type": "address"
        }
      ],
      "name": "setFeeReceiver",
      "outputs": [],
      "stateMutability": "nonpayable",
      "type": "function"
    },
    {
      "inputs": [
        {
          "internalType": "uint256",
          "name": "tokenId",
          "type": "uint256"
        },
        {
          "internalType": "string",
          "name": "uri",
          "type": "string"
        }
      ],
      "name": "setTokenURI",
      "outputs": [],
      "stateMutability": "nonpayable",
      "type": "function"
    },
    {
      "inputs": [
        {
          "internalType": "bytes4",
          "name": "interfaceId",
          "type": "bytes4"
        }
      ],
      "name": "supportsInterface",
      "outputs": [
        {
          "internalType": "bool",
          "name": "",
          "type": "bool"
        }
      ],
      "stateMutability": "view",
      "type": "function"
    },
    {
      "inputs": [],
      "name": "symbol",
      "outputs": [
        {
          "internalType": "string",
          "name": "",
          "type": "string"
        }
      ],
      "stateMutability": "view",
      "type": "function"
    },
    {
      "inputs": [
        {
          "internalType": "uint256",
          "name": "tokenId",
          "type": "uint256"
        }
      ],
      "name": "tokenURI",
      "outputs": [
        {
          "internalType": "string",
          "name": "",
          "type": "string"
        }
      ],
      "stateMutability": "view",
      "type": "function"
    },
    {
      "inputs": [
        {
          "internalType": "address",
          "name": "from",
          "type": "address"
        },
        {
          "internalType": "address",
          "name": "to",
          "type": "address"
        },
        {
          "internalType": "uint256",
          "name": "tokenId",
          "type": "uint256"
        }
      ],
      "name": "transferFrom",
      "outputs": [],
      "stateMutability": "nonpayable",
      "type": "function"
    },
    {
      "inputs": [
        {
          "internalType": "address",
          "name": "newOwner",
          "type": "address"
        }
      ],
      "name": "transferOwnership",
      "outputs": [],
      "stateMutability": "nonpayable",
      "type": "function"
    },
    {
      "inputs": [],
      "name": "unpause",
      "outputs": [],
      "stateMutability": "nonpayable",
      "type": "function"
    },
    {
      "inputs": [
        {
          "internalType": "uint256",
          "name": "planId",
          "type": "uint256"
        },
        {
          "internalType": "uint256",
          "name": "newAprBps",
          "type": "uint256"
        }
      ],
      "name": "updatePlanApr",
      "outputs": [],
      "stateMutability": "nonpayable",
      "type": "function"
    },
    {
      "inputs": [],
      "name": "usdc",
      "outputs": [
        {
          "internalType": "contract IERC20",
          "name": "",
          "type": "address"
        }
      ],
      "stateMutability": "view",
      "type": "function"
    },
    {
      "inputs": [],
      "name": "vaultManager",
      "outputs": [
        {
          "internalType": "contract VaultManager",
          "name": "",
          "type": "address"
        }
      ],
      "stateMutability": "view",
      "type": "function"
    },
    {
      "inputs": [
        {
          "internalType": "uint256",
          "name": "depositId",
          "type": "uint256"
        }
      ],
      "name": "withdrawAtMaturity",
      "outputs": [],
      "stateMutability": "nonpayable",
      "type": "function"
    },
    {
      "stateMutability": "payable",
      "type": "receive"
    }
  ],
  "transactionHash": "0x81bc9aeec01b7a2d20d73f31d6e70ff9af52b614b7e8426796636713c5cf3d33",
  "args": [
    "0x862b80A643f3ec8067Bd3653Ba2D2c737019bddA",
    "0xE72739658F52527bF28507Adb0B6C4fdBD32626b",
    "0x6F443186763CC24B5774EC32F8fDbE751E926492"
  ],
  "numDeployments": 1,
  "solcInputHash": "44ec1c26ef95c5c7a05477c090002b10",
  "bytecode": "0x60c060405234801561000f575f5ffd5b506040516166d23803806166d2833981810160405281019061003191906104b0565b336040518060400160405280601181526020017f536176696e6743657274696669636174650000000000000000000000000000008152506040518060400160405280600581526020017f5343455254000000000000000000000000000000000000000000000000000000815250815f90816100ac919061073d565b5080600190816100bc919061073d565b5050505f73ffffffffffffffffffffffffffffffffffffffff168173ffffffffffffffffffffffffffffffffffffffff160361012f575f6040517f1e4fbdf7000000000000000000000000000000000000000000000000000000008152600401610126919061081b565b60405180910390fd5b61013e8161035d60201b60201c565b50600161015d61015261042060201b60201c565b61044960201b60201c565b5f01819055505f73ffffffffffffffffffffffffffffffffffffffff168373ffffffffffffffffffffffffffffffffffffffff16036101d1576040517f08c379a00000000000000000000000000000000000000000000000000000000081526004016101c89061088e565b60405180910390fd5b5f73ffffffffffffffffffffffffffffffffffffffff168273ffffffffffffffffffffffffffffffffffffffff160361023f576040517f08c379a0000000000000000000000000000000000000000000000000000000008152600401610236906108f6565b60405180910390fd5b5f73ffffffffffffffffffffffffffffffffffffffff168173ffffffffffffffffffffffffffffffffffffffff16036102ad576040517f08c379a00000000000000000000000000000000000000000000000000000000081526004016102a49061095e565b60405180910390fd5b8273ffffffffffffffffffffffffffffffffffffffff1660a08173ffffffffffffffffffffffffffffffffffffffff16815250508173ffffffffffffffffffffffffffffffffffffffff1660808173ffffffffffffffffffffffffffffffffffffffff16815250508060075f6101000a81548173ffffffffffffffffffffffffffffffffffffffff021916908373ffffffffffffffffffffffffffffffffffffffff16021790555050505061097c565b5f60065f9054906101000a900473ffffffffffffffffffffffffffffffffffffffff1690508160065f6101000a81548173ffffffffffffffffffffffffffffffffffffffff021916908373ffffffffffffffffffffffffffffffffffffffff1602179055508173ffffffffffffffffffffffffffffffffffffffff168173ffffffffffffffffffffffffffffffffffffffff167f8be0079c531659141344cd1fd0a4f28419497f9722a3daafe3b4186f6b6457e060405160405180910390a35050565b5f7f9b779b17422d0df92223018b32b4d1fa46e071723d6817e2486d003becc55f005f1b905090565b5f819050919050565b5f5ffd5b5f73ffffffffffffffffffffffffffffffffffffffff82169050919050565b5f61047f82610456565b9050919050565b61048f81610475565b8114610499575f5ffd5b50565b5f815190506104aa81610486565b92915050565b5f5f5f606084860312156104c7576104c6610452565b5b5f6104d48682870161049c565b93505060206104e58682870161049c565b92505060406104f68682870161049c565b9150509250925092565b5f81519050919050565b7f4e487b71000000000000000000000000000000000000000000000000000000005f52604160045260245ffd5b7f4e487b71000000000000000000000000000000000000000000000000000000005f52602260045260245ffd5b5f600282049050600182168061057b57607f821691505b60208210810361058e5761058d610537565b5b50919050565b5f819050815f5260205f209050919050565b5f6020601f8301049050919050565b5f82821b905092915050565b5f600883026105f07fffffffffffffffffffffffffffffffffffffffffffffffffffffffffffffffff826105b5565b6105fa86836105b5565b95508019841693508086168417925050509392505050565b5f819050919050565b5f819050919050565b5f61063e61063961063484610612565b61061b565b610612565b9050919050565b5f819050919050565b61065783610624565b61066b61066382610645565b8484546105c1565b825550505050565b5f5f905090565b610682610673565b61068d81848461064e565b505050565b5b818110156106b0576106a55f8261067a565b600181019050610693565b5050565b601f8211156106f5576106c681610594565b6106cf846105a6565b810160208510156106de578190505b6106f26106ea856105a6565b830182610692565b50505b505050565b5f82821c905092915050565b5f6107155f19846008026106fa565b1980831691505092915050565b5f61072d8383610706565b9150826002028217905092915050565b61074682610500565b67ffffffffffffffff81111561075f5761075e61050a565b5b6107698254610564565b6107748282856106b4565b5f60209050601f8311600181146107a5575f8415610793578287015190505b61079d8582610722565b865550610804565b601f1984166107b386610594565b5f5b828110156107da578489015182556001820191506020850194506020810190506107b5565b868310156107f757848901516107f3601f891682610706565b8355505b6001600288020188555050505b505050505050565b61081581610475565b82525050565b5f60208201905061082e5f83018461080c565b92915050565b5f82825260208201905092915050565b7f496e76616c6964205553444300000000000000000000000000000000000000005f82015250565b5f610878600c83610834565b915061088382610844565b602082019050919050565b5f6020820190508181035f8301526108a58161086c565b9050919050565b7f496e76616c6964205661756c744d616e616765720000000000000000000000005f82015250565b5f6108e0601483610834565b91506108eb826108ac565b602082019050919050565b5f6020820190508181035f83015261090d816108d4565b9050919050565b7f496e76616c6964206665655265636569766572000000000000000000000000005f82015250565b5f610948601383610834565b915061095382610914565b602082019050919050565b5f6020820190508181035f8301526109758161093c565b9050919050565b60805160a051615d046109ce5f395f81816116b5015261236201525f8181611afe01528181611ba801528181611fa101528181612340015281816123a901528181612ddd0152612e710152615d045ff3fe60806040526004361061026a575f3560e01c8063715018a611610143578063b3f00674116100b5578063d68b395211610079578063d68b39521461097b578063e1a45218146109a3578063e6a69ab8146109cd578063e985e9c5146109f7578063efdcd97414610a33578063f2fde38b14610a5b57610271565b8063b3f0067414610887578063b88d4fde146108b1578063b9855d1d146108d9578063c87b56dd14610915578063ccfae2011461095157610271565b806395d89b411161010757806395d89b41146107395780639cacb6a4146107635780639f9fb9681461079f578063a22cb465146107db578063b02c43d014610803578063b16206161461084657610271565b8063715018a6146106915780638200a28f146106a75780638456cb59146106cf5780638a4adf24146106e55780638da5cb5b1461070f57610271565b80632dfdf0b5116101dc5780634970a50d116101a05780634970a50d146105635780635c975abb1461059f5780636352211e146105c95780636b5b9696146106055780636fc4e2d91461062d57806370a082311461065557610271565b80632dfdf0b5146104a7578063382d39bb146104d15780633e413bee146104fb5780633f4ba83a1461052557806342842e0e1461053b57610271565b8063095ea7b31161022e578063095ea7b31461037b5780630a55ba55146103a3578063162094c4146103df57806323b872dd1461040757806326cd52741461042f5780632a5bf6d21461046b57610271565b806301ffc9a71461027557806305e1bd8c146102b157806306fdde03146102ed578063081812fc1461031757806308cff7e21461035357610271565b3661027157005b5f5ffd5b348015610280575f5ffd5b5061029b6004803603810190610296919061428a565b610a83565b6040516102a891906142cf565b60405180910390f35b3480156102bc575f5ffd5b506102d760048036038101906102d2919061431b565b610b64565b6040516102e4919061437a565b60405180910390f35b3480156102f8575f5ffd5b50610301610ba1565b60405161030e9190614403565b60405180910390f35b348015610322575f5ffd5b5061033d60048036038101906103389190614423565b610c30565b60405161034a919061448d565b60405180910390f35b34801561035e575f5ffd5b5061037960048036038101906103749190614423565b610c4b565b005b348015610386575f5ffd5b506103a1600480360381019061039c91906144d0565b610d52565b005b3480156103ae575f5ffd5b506103c960048036038101906103c4919061450e565b610d68565b6040516103d6919061437a565b60405180910390f35b3480156103ea575f5ffd5b5061040560048036038101906104009190614678565b6112a8565b005b348015610412575f5ffd5b5061042d600480360381019061042891906146d2565b611349565b005b34801561043a575f5ffd5b5061045560048036038101906104509190614423565b611448565b60405161046291906147b9565b60405180910390f35b348015610476575f5ffd5b50610491600480360381019061048c91906147d2565b611502565b60405161049e91906148a5565b60405180910390f35b3480156104b2575f5ffd5b506104bb6116a7565b6040516104c8919061437a565b60405180910390f35b3480156104dc575f5ffd5b506104e56116ad565b6040516104f2919061437a565b60405180910390f35b348015610506575f5ffd5b5061050f6116b3565b60405161051c9190614920565b60405180910390f35b348015610530575f5ffd5b506105396116d7565b005b348015610546575f5ffd5b50610561600480360381019061055c91906146d2565b6116e9565b005b34801561056e575f5ffd5b5061058960048036038101906105849190614939565b611708565b604051610596919061437a565b60405180910390f35b3480156105aa575f5ffd5b506105b3611927565b6040516105c091906142cf565b60405180910390f35b3480156105d4575f5ffd5b506105ef60048036038101906105ea9190614423565b61193d565b6040516105fc919061448d565b60405180910390f35b348015610610575f5ffd5b5061062b60048036038101906106269190614423565b61194e565b005b348015610638575f5ffd5b50610653600480360381019061064e9190614423565b611caf565b005b348015610660575f5ffd5b5061067b600480360381019061067691906147d2565b611db8565b604051610688919061437a565b60405180910390f35b34801561069c575f5ffd5b506106a5611e6e565b005b3480156106b2575f5ffd5b506106cd60048036038101906106c8919061450e565b611e81565b005b3480156106da575f5ffd5b506106e3611f8d565b005b3480156106f0575f5ffd5b506106f9611f9f565b60405161070691906149d0565b60405180910390f35b34801561071a575f5ffd5b50610723611fc3565b604051610730919061448d565b60405180910390f35b348015610744575f5ffd5b5061074d611feb565b60405161075a9190614403565b60405180910390f35b34801561076e575f5ffd5b506107896004803603810190610784919061450e565b61207b565b604051610796919061437a565b60405180910390f35b3480156107aa575f5ffd5b506107c560048036038101906107c09190614423565b6124b5565b6040516107d29190614b0b565b60405180910390f35b3480156107e6575f5ffd5b5061080160048036038101906107fc9190614b4f565b6125ef565b005b34801561080e575f5ffd5b5061082960048036038101906108249190614423565b612605565b60405161083d989796959493929190614b9c565b60405180910390f35b348015610851575f5ffd5b5061086c60048036038101906108679190614423565b612674565b60405161087e96959493929190614c18565b60405180910390f35b348015610892575f5ffd5b5061089b6126b8565b6040516108a8919061448d565b60405180910390f35b3480156108bc575f5ffd5b506108d760048036038101906108d29190614d15565b6126dd565b005b3480156108e4575f5ffd5b506108ff60048036038101906108fa9190614423565b612702565b60405161090c919061437a565b60405180910390f35b348015610920575f5ffd5b5061093b60048036038101906109369190614423565b612adb565b6040516109489190614403565b60405180910390f35b34801561095c575f5ffd5b50610965612bf7565b604051610972919061437a565b60405180910390f35b348015610986575f5ffd5b506109a1600480360381019061099c9190614423565b612bfc565b005b3480156109ae575f5ffd5b506109b7612f78565b6040516109c4919061437a565b60405180910390f35b3480156109d8575f5ffd5b506109e1612f7e565b6040516109ee919061437a565b60405180910390f35b348015610a02575f5ffd5b50610a1d6004803603810190610a189190614d95565b612f86565b604051610a2a91906142cf565b60405180910390f35b348015610a3e575f5ffd5b50610a596004803603810190610a5491906147d2565b613014565b005b348015610a66575f5ffd5b50610a816004803603810190610a7c91906147d2565b613127565b005b5f7f80ac58cd000000000000000000000000000000000000000000000000000000007bffffffffffffffffffffffffffffffffffffffffffffffffffffffff1916827bffffffffffffffffffffffffffffffffffffffffffffffffffffffff19161480610b4d57507f5b5e139f000000000000000000000000000000000000000000000000000000007bffffffffffffffffffffffffffffffffffffffffffffffffffffffff1916827bffffffffffffffffffffffffffffffffffffffffffffffffffffffff1916145b80610b5d5750610b5c826131ab565b5b9050919050565b5f6127106301e13380610b779190614e00565b828486610b849190614e00565b610b8e9190614e00565b610b989190614e6e565b90509392505050565b60605f8054610baf90614ecb565b80601f0160208091040260200160405190810160405280929190818152602001828054610bdb90614ecb565b8015610c265780601f10610bfd57610100808354040283529160200191610c26565b820191905f5260205f20905b815481529060010190602001808311610c0957829003601f168201915b5050505050905090565b5f610c3a82613214565b50610c448261329a565b9050919050565b610c536132d3565b6009548110610c97576040517f08c379a0000000000000000000000000000000000000000000000000000000008152600401610c8e90614f45565b60405180910390fd5b60085f8281526020019081526020015f206005015f9054906101000a900460ff16610cf7576040517f08c379a0000000000000000000000000000000000000000000000000000000008152600401610cee90614fad565b60405180910390fd5b5f60085f8381526020019081526020015f206005015f6101000a81548160ff021916908315150217905550807fb8e8c474ecb4c62992ecd0758ae63d861cd288bb6677ea65a2b783444a448ab660405160405180910390a250565b610d648282610d5f61335a565b613361565b5050565b5f610d71613373565b610d796133b4565b600b548310610dbd576040517f08c379a0000000000000000000000000000000000000000000000000000000008152600401610db490615015565b60405180910390fd5b5f600a5f8581526020019081526020015f2090503373ffffffffffffffffffffffffffffffffffffffff16816001015f9054906101000a900473ffffffffffffffffffffffffffffffffffffffff1673ffffffffffffffffffffffffffffffffffffffff1614610e62576040517f08c379a0000000000000000000000000000000000000000000000000000000008152600401610e599061507d565b60405180910390fd5b5f6003811115610e7557610e746149f8565b5b816007015f9054906101000a900460ff166003811115610e9857610e976149f8565b5b14610ed8576040517f08c379a0000000000000000000000000000000000000000000000000000000008152600401610ecf906150e5565b60405180910390fd5b8060040154421015610f1f576040517f08c379a0000000000000000000000000000000000000000000000000000000008152600401610f169061514d565b60405180910390fd5b6009548310610f63576040517f08c379a0000000000000000000000000000000000000000000000000000000008152600401610f5a906151b5565b60405180910390fd5b60085f8481526020019081526020015f206005015f9054906101000a900460ff16610fc3576040517f08c379a0000000000000000000000000000000000000000000000000000000008152600401610fba9061521d565b60405180910390fd5b5f610fea8260020154836005015484600301548560040154610fe5919061523b565b610b64565b90505f818360020154610ffd919061526e565b90505f60085f8781526020019081526020015f209050806002015482101561105a576040517f08c379a0000000000000000000000000000000000000000000000000000000008152600401611051906152eb565b60405180910390fd5b5f81600301541480611070575080600301548211155b6110af576040517f08c379a00000000000000000000000000000000000000000000000000000000081526004016110a690615353565b60405180910390fd5b6002846007015f6101000a81548160ff021916908360038111156110d6576110d56149f8565b5b02179055506110e4876133d6565b5f600b5490505f62015180835f01546110fd9190614e00565b42611108919061526e565b90506040518061010001604052808981526020013373ffffffffffffffffffffffffffffffffffffffff16815260200185815260200142815260200182815260200184600101548152602001846004015481526020015f6003811115611171576111706149f8565b5b815250600a5f8481526020019081526020015f205f820151815f01556020820151816001015f6101000a81548173ffffffffffffffffffffffffffffffffffffffff021916908373ffffffffffffffffffffffffffffffffffffffff16021790555060408201518160020155606082015181600301556080820151816004015560a0820151816005015560c0820151816006015560e0820151816007015f6101000a81548160ff0219169083600381111561122f5761122e6149f8565b5b0217905550905050600b5f81548092919061124990615371565b91905055506112583383613458565b81897f5b95e9e5496cbb3bda0c0eb1bc596794a98fb922c2c540a4f668cf696d25a8e086604051611289919061437a565b60405180910390a38196505050505050506112a261354b565b92915050565b6112b06132d3565b5f73ffffffffffffffffffffffffffffffffffffffff166112d083613565565b73ffffffffffffffffffffffffffffffffffffffff1603611326576040517f08c379a000000000000000000000000000000000000000000000000000000000815260040161131d90615402565b60405180910390fd5b80600c5f8481526020019081526020015f20908161134491906155b7565b505050565b5f73ffffffffffffffffffffffffffffffffffffffff168273ffffffffffffffffffffffffffffffffffffffff16036113b9575f6040517f64a0ae920000000000000000000000000000000000000000000000000000000081526004016113b0919061448d565b60405180910390fd5b5f6113cc83836113c761335a565b61359e565b90508373ffffffffffffffffffffffffffffffffffffffff168173ffffffffffffffffffffffffffffffffffffffff1614611442578382826040517f64283d7b00000000000000000000000000000000000000000000000000000000815260040161143993929190615686565b60405180910390fd5b50505050565b61145061418d565b6009548210611494576040517f08c379a000000000000000000000000000000000000000000000000000000000815260040161148b90614f45565b60405180910390fd5b60085f8381526020019081526020015f206040518060c00160405290815f820154815260200160018201548152602001600282015481526020016003820154815260200160048201548152602001600582015f9054906101000a900460ff1615151515815250509050919050565b60605f5f90505f5f90505b600b54811015611599578373ffffffffffffffffffffffffffffffffffffffff16600a5f8381526020019081526020015f206001015f9054906101000a900473ffffffffffffffffffffffffffffffffffffffff1673ffffffffffffffffffffffffffffffffffffffff160361158c57818061158890615371565b9250505b808060010191505061150d565b505f8167ffffffffffffffff8111156115b5576115b4614554565b5b6040519080825280602002602001820160405280156115e35781602001602082028036833780820191505090505b5090505f5f90505f5f90505b600b5481101561169b578573ffffffffffffffffffffffffffffffffffffffff16600a5f8381526020019081526020015f206001015f9054906101000a900473ffffffffffffffffffffffffffffffffffffffff1673ffffffffffffffffffffffffffffffffffffffff160361168e5780838381518110611673576116726156bb565b5b602002602001018181525050818061168a90615371565b9250505b80806001019150506115ef565b50819350505050919050565b600b5481565b60095481565b7f000000000000000000000000000000000000000000000000000000000000000081565b6116df6132d3565b6116e76137a9565b565b61170383838360405180602001604052805f8152506126dd565b505050565b5f6117116132d3565b5f8611611753576040517f08c379a000000000000000000000000000000000000000000000000000000000815260040161174a90615732565b60405180910390fd5b5f8511801561176457506113888511155b6117a3576040517f08c379a000000000000000000000000000000000000000000000000000000000815260040161179a9061579a565b60405180910390fd5b6107d08211156117e8576040517f08c379a00000000000000000000000000000000000000000000000000000000081526004016117df90615802565b60405180910390fd5b5f841161182a576040517f08c379a00000000000000000000000000000000000000000000000000000000081526004016118219061586a565b60405180910390fd5b5f60095490506040518060c001604052808881526020018781526020018681526020018581526020018481526020016001151581525060085f8381526020019081526020015f205f820151815f01556020820151816001015560408201518160020155606082015181600301556080820151816004015560a0820151816005015f6101000a81548160ff02191690831515021790555090505060095f8154809291906118d590615371565b9190505550807fe34c36caaea611ba65a3775498a1ab167c7cf9272b319ab6f0ac00f43869cd948888888888604051611912959493929190615888565b60405180910390a28091505095945050505050565b5f600660149054906101000a900460ff16905090565b5f61194782613214565b9050919050565b611956613373565b61195e6133b4565b600b5481106119a2576040517f08c379a000000000000000000000000000000000000000000000000000000000815260040161199990615015565b60405180910390fd5b5f600a5f8381526020019081526020015f2090503373ffffffffffffffffffffffffffffffffffffffff16816001015f9054906101000a900473ffffffffffffffffffffffffffffffffffffffff1673ffffffffffffffffffffffffffffffffffffffff1614611a47576040517f08c379a0000000000000000000000000000000000000000000000000000000008152600401611a3e9061507d565b60405180910390fd5b5f6003811115611a5a57611a596149f8565b5b816007015f9054906101000a900460ff166003811115611a7d57611a7c6149f8565b5b14611abd576040517f08c379a0000000000000000000000000000000000000000000000000000000008152600401611ab4906150e5565b60405180910390fd5b5f61271082600601548360020154611ad59190614e00565b611adf9190614e6e565b90505f818360020154611af2919061523b565b90505f821115611ba6577f000000000000000000000000000000000000000000000000000000000000000073ffffffffffffffffffffffffffffffffffffffff166321116f4e60075f9054906101000a900473ffffffffffffffffffffffffffffffffffffffff16846040518363ffffffff1660e01b8152600401611b789291906158d9565b5f604051808303815f87803b158015611b8f575f5ffd5b505af1158015611ba1573d5f5f3e3d5ffd5b505050505b7f000000000000000000000000000000000000000000000000000000000000000073ffffffffffffffffffffffffffffffffffffffff166321116f4e33836040518363ffffffff1660e01b8152600401611c019291906158d9565b5f604051808303815f87803b158015611c18575f5ffd5b505af1158015611c2a573d5f5f3e3d5ffd5b505050506001836007015f6101000a81548160ff02191690836003811115611c5557611c546149f8565b5b0217905550611c63846133d6565b837f63fe528d963a28c0f66efc891676e0338c7850b09fb89177ffe98b8d59ecfa6a846002015484604051611c99929190615900565b60405180910390a2505050611cac61354b565b50565b611cb76132d3565b6009548110611cfb576040517f08c379a0000000000000000000000000000000000000000000000000000000008152600401611cf290614f45565b60405180910390fd5b60085f8281526020019081526020015f206005015f9054906101000a900460ff1615611d5c576040517f08c379a0000000000000000000000000000000000000000000000000000000008152600401611d5390615971565b60405180910390fd5b600160085f8381526020019081526020015f206005015f6101000a81548160ff021916908315150217905550807fb612d30e3c65a1caa935f7d17e7932c14e41c1410d52b8bc355f937b46e257f760405160405180910390a250565b5f5f73ffffffffffffffffffffffffffffffffffffffff168273ffffffffffffffffffffffffffffffffffffffff1603611e29575f6040517f89c62b64000000000000000000000000000000000000000000000000000000008152600401611e20919061448d565b60405180910390fd5b60035f8373ffffffffffffffffffffffffffffffffffffffff1673ffffffffffffffffffffffffffffffffffffffff1681526020019081526020015f20549050919050565b611e766132d3565b611e7f5f61380b565b565b611e896132d3565b6009548210611ecd576040517f08c379a0000000000000000000000000000000000000000000000000000000008152600401611ec490614f45565b60405180910390fd5b5f81118015611ede57506113888111155b611f1d576040517f08c379a0000000000000000000000000000000000000000000000000000000008152600401611f149061579a565b60405180910390fd5b5f60085f8481526020019081526020015f206001015490508160085f8581526020019081526020015f2060010181905550827f1fefc24cbb423864a93b606c617356cf87aa45c71726f7cbdbfa5ae10a1a280e8284604051611f80929190615900565b60405180910390a2505050565b611f956132d3565b611f9d6138ce565b565b7f000000000000000000000000000000000000000000000000000000000000000081565b5f60065f9054906101000a900473ffffffffffffffffffffffffffffffffffffffff16905090565b606060018054611ffa90614ecb565b80601f016020809104026020016040519081016040528092919081815260200182805461202690614ecb565b80156120715780601f1061204857610100808354040283529160200191612071565b820191905f5260205f20905b81548152906001019060200180831161205457829003601f168201915b5050505050905090565b5f612084613373565b61208c6133b4565b60095483106120d0576040517f08c379a00000000000000000000000000000000000000000000000000000000081526004016120c790614f45565b60405180910390fd5b5f60085f8581526020019081526020015f209050806005015f9054906101000a900460ff16612134576040517f08c379a000000000000000000000000000000000000000000000000000000000815260040161212b906159d9565b60405180910390fd5b806002015483101561217b576040517f08c379a000000000000000000000000000000000000000000000000000000000815260040161217290615a41565b60405180910390fd5b5f81600301541480612191575080600301548311155b6121d0576040517f08c379a00000000000000000000000000000000000000000000000000000000081526004016121c790615aa9565b60405180910390fd5b5f600b5490505f62015180835f01546121e99190614e00565b426121f4919061526e565b90506040518061010001604052808781526020013373ffffffffffffffffffffffffffffffffffffffff16815260200186815260200142815260200182815260200184600101548152602001846004015481526020015f600381111561225d5761225c6149f8565b5b815250600a5f8481526020019081526020015f205f820151815f01556020820151816001015f6101000a81548173ffffffffffffffffffffffffffffffffffffffff021916908373ffffffffffffffffffffffffffffffffffffffff16021790555060408201518160020155606082015181600301556080820151816004015560a0820151816005015560c0820151816006015560e0820151816007015f6101000a81548160ff0219169083600381111561231b5761231a6149f8565b5b0217905550905050600b5f81548092919061233590615371565b91905055506123a7337f0000000000000000000000000000000000000000000000000000000000000000877f000000000000000000000000000000000000000000000000000000000000000073ffffffffffffffffffffffffffffffffffffffff16613931909392919063ffffffff16565b7f000000000000000000000000000000000000000000000000000000000000000073ffffffffffffffffffffffffffffffffffffffff1663b0462296866040518263ffffffff1660e01b8152600401612400919061437a565b5f604051808303815f87803b158015612417575f5ffd5b505af1158015612429573d5f5f3e3d5ffd5b505050506124373383613458565b60405180602001604052805f815250600c5f8481526020019081526020015f20908161246391906155b7565b5085827fe13e57366a41b2856b4e4e2f131f25a47635de3be64056b257fd5901ea3c436433888560405161249993929190615ac7565b60405180910390a38193505050506124af61354b565b92915050565b6124bd6141bf565b600b548210612501576040517f08c379a00000000000000000000000000000000000000000000000000000000081526004016124f890615015565b60405180910390fd5b600a5f8381526020019081526020015f20604051806101000160405290815f8201548152602001600182015f9054906101000a900473ffffffffffffffffffffffffffffffffffffffff1673ffffffffffffffffffffffffffffffffffffffff1673ffffffffffffffffffffffffffffffffffffffff1681526020016002820154815260200160038201548152602001600482015481526020016005820154815260200160068201548152602001600782015f9054906101000a900460ff1660038111156125d2576125d16149f8565b5b60038111156125e4576125e36149f8565b5b815250509050919050565b6126016125fa61335a565b8383613986565b5050565b600a602052805f5260405f205f91509050805f015490806001015f9054906101000a900473ffffffffffffffffffffffffffffffffffffffff1690806002015490806003015490806004015490806005015490806006015490806007015f9054906101000a900460ff16905088565b6008602052805f5260405f205f91509050805f015490806001015490806002015490806003015490806004015490806005015f9054906101000a900460ff16905086565b60075f9054906101000a900473ffffffffffffffffffffffffffffffffffffffff1681565b6126e8848484611349565b6126fc6126f361335a565b85858585613b5f565b50505050565b5f61270b613373565b6127136133b4565b600b548210612757576040517f08c379a000000000000000000000000000000000000000000000000000000000815260040161274e90615015565b60405180910390fd5b5f600a5f8481526020019081526020015f2090505f600381111561277e5761277d6149f8565b5b816007015f9054906101000a900460ff1660038111156127a1576127a06149f8565b5b146127e1576040517f08c379a00000000000000000000000000000000000000000000000000000000081526004016127d8906150e5565b60405180910390fd5b5f6201518060036127f29190614e00565b8260040154612801919061526e565b905080421015612846576040517f08c379a000000000000000000000000000000000000000000000000000000000815260040161283d90615b46565b60405180910390fd5b5f61286d8360020154846005015485600301548660040154612868919061523b565b610b64565b90505f818460020154612880919061526e565b90505f60085f865f015481526020019081526020015f2090506003856007015f6101000a81548160ff021916908360038111156128c0576128bf6149f8565b5b02179055506128ce876133d6565b5f600b5490505f62015180835f01546128e79190614e00565b426128f2919061526e565b9050604051806101000160405280885f01548152602001886001015f9054906101000a900473ffffffffffffffffffffffffffffffffffffffff1673ffffffffffffffffffffffffffffffffffffffff16815260200185815260200142815260200182815260200188600501548152602001886006015481526020015f6003811115612981576129806149f8565b5b815250600a5f8481526020019081526020015f205f820151815f01556020820151816001015f6101000a81548173ffffffffffffffffffffffffffffffffffffffff021916908373ffffffffffffffffffffffffffffffffffffffff16021790555060408201518160020155606082015181600301556080820151816004015560a0820151816005015560c0820151816006015560e0820151816007015f6101000a81548160ff02191690836003811115612a3f57612a3e6149f8565b5b0217905550905050600b5f815480929190612a5990615371565b9190505550612a8b876001015f9054906101000a900473ffffffffffffffffffffffffffffffffffffffff1683613458565b81897f5b95e9e5496cbb3bda0c0eb1bc596794a98fb922c2c540a4f668cf696d25a8e086604051612abc919061437a565b60405180910390a381975050505050505050612ad661354b565b919050565b60605f73ffffffffffffffffffffffffffffffffffffffff16612afd83613565565b73ffffffffffffffffffffffffffffffffffffffff1603612b53576040517f08c379a0000000000000000000000000000000000000000000000000000000008152600401612b4a90615402565b60405180910390fd5b5f600c5f8481526020019081526020015f208054612b7090614ecb565b80601f0160208091040260200160405190810160405280929190818152602001828054612b9c90614ecb565b8015612be75780601f10612bbe57610100808354040283529160200191612be7565b820191905f5260205f20905b815481529060010190602001808311612bca57829003601f168201915b5050505050905080915050919050565b600381565b612c04613373565b612c0c6133b4565b600b548110612c50576040517f08c379a0000000000000000000000000000000000000000000000000000000008152600401612c4790615015565b60405180910390fd5b5f600a5f8381526020019081526020015f2090503373ffffffffffffffffffffffffffffffffffffffff16816001015f9054906101000a900473ffffffffffffffffffffffffffffffffffffffff1673ffffffffffffffffffffffffffffffffffffffff1614612cf5576040517f08c379a0000000000000000000000000000000000000000000000000000000008152600401612cec9061507d565b60405180910390fd5b5f6003811115612d0857612d076149f8565b5b816007015f9054906101000a900460ff166003811115612d2b57612d2a6149f8565b5b14612d6b576040517f08c379a0000000000000000000000000000000000000000000000000000000008152600401612d62906150e5565b60405180910390fd5b8060040154421015612db2576040517f08c379a0000000000000000000000000000000000000000000000000000000008152600401612da99061514d565b60405180910390fd5b5f612dd98260020154836005015484600301548560040154612dd4919061523b565b610b64565b90507f000000000000000000000000000000000000000000000000000000000000000073ffffffffffffffffffffffffffffffffffffffff166321116f4e3384600201546040518363ffffffff1660e01b8152600401612e3a9291906158d9565b5f604051808303815f87803b158015612e51575f5ffd5b505af1158015612e63573d5f5f3e3d5ffd5b505050505f811115612ef8577f000000000000000000000000000000000000000000000000000000000000000073ffffffffffffffffffffffffffffffffffffffff16635b730e6933836040518363ffffffff1660e01b8152600401612eca9291906158d9565b5f604051808303815f87803b158015612ee1575f5ffd5b505af1158015612ef3573d5f5f3e3d5ffd5b505050505b6001826007015f6101000a81548160ff02191690836003811115612f1f57612f1e6149f8565b5b0217905550612f2d836133d6565b827fd22cebb1feab0fcab734f7cc0cf34b628de8ad16b8ba7b44b56edb0f75733127836002015483604051612f63929190615900565b60405180910390a25050612f7561354b565b50565b61271081565b6301e1338081565b5f60055f8473ffffffffffffffffffffffffffffffffffffffff1673ffffffffffffffffffffffffffffffffffffffff1681526020019081526020015f205f8373ffffffffffffffffffffffffffffffffffffffff1673ffffffffffffffffffffffffffffffffffffffff1681526020019081526020015f205f9054906101000a900460ff16905092915050565b61301c6132d3565b5f73ffffffffffffffffffffffffffffffffffffffff168173ffffffffffffffffffffffffffffffffffffffff160361308a576040517f08c379a000000000000000000000000000000000000000000000000000000000815260040161308190615bae565b60405180910390fd5b7fa92ff4390fe6943f0b30e8fe715dde86f85ab79b2b2c640a10fc094cc4036cc860075f9054906101000a900473ffffffffffffffffffffffffffffffffffffffff16826040516130dc929190615bcc565b60405180910390a18060075f6101000a81548173ffffffffffffffffffffffffffffffffffffffff021916908373ffffffffffffffffffffffffffffffffffffffff16021790555050565b61312f6132d3565b5f73ffffffffffffffffffffffffffffffffffffffff168173ffffffffffffffffffffffffffffffffffffffff160361319f575f6040517f1e4fbdf7000000000000000000000000000000000000000000000000000000008152600401613196919061448d565b60405180910390fd5b6131a88161380b565b50565b5f7f01ffc9a7000000000000000000000000000000000000000000000000000000007bffffffffffffffffffffffffffffffffffffffffffffffffffffffff1916827bffffffffffffffffffffffffffffffffffffffffffffffffffffffff1916149050919050565b5f5f61321f83613565565b90505f73ffffffffffffffffffffffffffffffffffffffff168173ffffffffffffffffffffffffffffffffffffffff160361329157826040517f7e273289000000000000000000000000000000000000000000000000000000008152600401613288919061437a565b60405180910390fd5b80915050919050565b5f60045f8381526020019081526020015f205f9054906101000a900473ffffffffffffffffffffffffffffffffffffffff169050919050565b6132db61335a565b73ffffffffffffffffffffffffffffffffffffffff166132f9611fc3565b73ffffffffffffffffffffffffffffffffffffffff16146133585761331c61335a565b6040517f118cdaa700000000000000000000000000000000000000000000000000000000815260040161334f919061448d565b60405180910390fd5b565b5f33905090565b61336e8383836001613d0b565b505050565b61337b611927565b156133b2576040517fd93c066500000000000000000000000000000000000000000000000000000000815260040160405180910390fd5b565b6133bc613eca565b60026133ce6133c9613f0b565b613f34565b5f0181905550565b5f6133e25f835f61359e565b90505f73ffffffffffffffffffffffffffffffffffffffff168173ffffffffffffffffffffffffffffffffffffffff160361345457816040517f7e27328900000000000000000000000000000000000000000000000000000000815260040161344b919061437a565b60405180910390fd5b5050565b5f73ffffffffffffffffffffffffffffffffffffffff168273ffffffffffffffffffffffffffffffffffffffff16036134c8575f6040517f64a0ae920000000000000000000000000000000000000000000000000000000081526004016134bf919061448d565b60405180910390fd5b5f6134d483835f61359e565b90505f73ffffffffffffffffffffffffffffffffffffffff168173ffffffffffffffffffffffffffffffffffffffff1614613546575f6040517f73c6ac6e00000000000000000000000000000000000000000000000000000000815260040161353d919061448d565b60405180910390fd5b505050565b600161355d613558613f0b565b613f34565b5f0181905550565b5f60025f8381526020019081526020015f205f9054906101000a900473ffffffffffffffffffffffffffffffffffffffff169050919050565b5f5f6135a984613565565b90505f73ffffffffffffffffffffffffffffffffffffffff168373ffffffffffffffffffffffffffffffffffffffff16146135ea576135e9818486613f3d565b5b5f73ffffffffffffffffffffffffffffffffffffffff168173ffffffffffffffffffffffffffffffffffffffff1614613675576136295f855f5f613d0b565b600160035f8373ffffffffffffffffffffffffffffffffffffffff1673ffffffffffffffffffffffffffffffffffffffff1681526020019081526020015f205f82825403925050819055505b5f73ffffffffffffffffffffffffffffffffffffffff168573ffffffffffffffffffffffffffffffffffffffff16146136f457600160035f8773ffffffffffffffffffffffffffffffffffffffff1673ffffffffffffffffffffffffffffffffffffffff1681526020019081526020015f205f82825401925050819055505b8460025f8681526020019081526020015f205f6101000a81548173ffffffffffffffffffffffffffffffffffffffff021916908373ffffffffffffffffffffffffffffffffffffffff160217905550838573ffffffffffffffffffffffffffffffffffffffff168273ffffffffffffffffffffffffffffffffffffffff167fddf252ad1be2c89b69c2b068fc378daa952ba7f163c4a11628f55a4df523b3ef60405160405180910390a4809150509392505050565b6137b1614000565b5f600660146101000a81548160ff0219169083151502179055507f5db9ee0a495bf2e6ff9c91a7834c1ba4fdd244a5e8aa4e537bd38aeae4b073aa6137f461335a565b604051613801919061448d565b60405180910390a1565b5f60065f9054906101000a900473ffffffffffffffffffffffffffffffffffffffff1690508160065f6101000a81548173ffffffffffffffffffffffffffffffffffffffff021916908373ffffffffffffffffffffffffffffffffffffffff1602179055508173ffffffffffffffffffffffffffffffffffffffff168173ffffffffffffffffffffffffffffffffffffffff167f8be0079c531659141344cd1fd0a4f28419497f9722a3daafe3b4186f6b6457e060405160405180910390a35050565b6138d6613373565b6001600660146101000a81548160ff0219169083151502179055507f62e78cea01bee320cd4e420270b5ea74000d11b0c9f74754ebdbfc544b05a25861391a61335a565b604051613927919061448d565b60405180910390a1565b61393f848484846001614040565b61398057836040517f5274afe7000000000000000000000000000000000000000000000000000000008152600401613977919061448d565b60405180910390fd5b50505050565b5f73ffffffffffffffffffffffffffffffffffffffff168373ffffffffffffffffffffffffffffffffffffffff16036139f6575f6040517fa9fbf51f0000000000000000000000000000000000000000000000000000000081526004016139ed919061448d565b60405180910390fd5b5f73ffffffffffffffffffffffffffffffffffffffff168273ffffffffffffffffffffffffffffffffffffffff1603613a6657816040517f5b08ba18000000000000000000000000000000000000000000000000000000008152600401613a5d919061448d565b60405180910390fd5b8060055f8573ffffffffffffffffffffffffffffffffffffffff1673ffffffffffffffffffffffffffffffffffffffff1681526020019081526020015f205f8473ffffffffffffffffffffffffffffffffffffffff1673ffffffffffffffffffffffffffffffffffffffff1681526020019081526020015f205f6101000a81548160ff0219169083151502179055508173ffffffffffffffffffffffffffffffffffffffff168373ffffffffffffffffffffffffffffffffffffffff167f17307eab39ab6107e8899845ad3d59bd9653f200f220920489ca2b5937696c3183604051613b5291906142cf565b60405180910390a3505050565b5f8373ffffffffffffffffffffffffffffffffffffffff163b1115613d04578273ffffffffffffffffffffffffffffffffffffffff1663150b7a02868685856040518563ffffffff1660e01b8152600401613bbd9493929190615c45565b6020604051808303815f875af1925050508015613bf857506040513d601f19601f82011682018060405250810190613bf59190615ca3565b60015b613c79573d805f8114613c26576040519150601f19603f3d011682016040523d82523d5f602084013e613c2b565b606091505b505f815103613c7157836040517f64a0ae92000000000000000000000000000000000000000000000000000000008152600401613c68919061448d565b60405180910390fd5b805160208201fd5b63150b7a0260e01b7bffffffffffffffffffffffffffffffffffffffffffffffffffffffff1916817bffffffffffffffffffffffffffffffffffffffffffffffffffffffff191614613d0257836040517f64a0ae92000000000000000000000000000000000000000000000000000000008152600401613cf9919061448d565b60405180910390fd5b505b5050505050565b8080613d4357505f73ffffffffffffffffffffffffffffffffffffffff168273ffffffffffffffffffffffffffffffffffffffff1614155b15613e75575f613d5284613214565b90505f73ffffffffffffffffffffffffffffffffffffffff168373ffffffffffffffffffffffffffffffffffffffff1614158015613dbc57508273ffffffffffffffffffffffffffffffffffffffff168173ffffffffffffffffffffffffffffffffffffffff1614155b8015613dcf5750613dcd8184612f86565b155b15613e1157826040517fa9fbf51f000000000000000000000000000000000000000000000000000000008152600401613e08919061448d565b60405180910390fd5b8115613e7357838573ffffffffffffffffffffffffffffffffffffffff168273ffffffffffffffffffffffffffffffffffffffff167f8c5be1e5ebec7d5bd14f71427d1e84f3dd0314c0f7b2291e5b200ac8c7c3b92560405160405180910390a45b505b8360045f8581526020019081526020015f205f6101000a81548173ffffffffffffffffffffffffffffffffffffffff021916908373ffffffffffffffffffffffffffffffffffffffff16021790555050505050565b613ed26140b1565b15613f09576040517f3ee5aeb500000000000000000000000000000000000000000000000000000000815260040160405180910390fd5b565b5f7f9b779b17422d0df92223018b32b4d1fa46e071723d6817e2486d003becc55f005f1b905090565b5f819050919050565b613f488383836140cd565b613ffb575f73ffffffffffffffffffffffffffffffffffffffff168373ffffffffffffffffffffffffffffffffffffffff1603613fbc57806040517f7e273289000000000000000000000000000000000000000000000000000000008152600401613fb3919061437a565b60405180910390fd5b81816040517f177e802f000000000000000000000000000000000000000000000000000000008152600401613ff29291906158d9565b60405180910390fd5b505050565b614008611927565b61403e576040517f8dfc202b00000000000000000000000000000000000000000000000000000000815260040160405180910390fd5b565b5f5f6323b872dd60e01b9050604051815f525f1960601c87166004525f1960601c86166024528460445260205f60645f5f8c5af1925060015f5114831661409e578383151615614092573d5f823e3d81fd5b5f883b113d1516831692505b806040525f606052505095945050505050565b5f60026140c46140bf613f0b565b613f34565b5f015414905090565b5f5f73ffffffffffffffffffffffffffffffffffffffff168373ffffffffffffffffffffffffffffffffffffffff161415801561418457508273ffffffffffffffffffffffffffffffffffffffff168473ffffffffffffffffffffffffffffffffffffffff16148061414557506141448484612f86565b5b8061418357508273ffffffffffffffffffffffffffffffffffffffff1661416b8361329a565b73ffffffffffffffffffffffffffffffffffffffff16145b5b90509392505050565b6040518060c001604052805f81526020015f81526020015f81526020015f81526020015f81526020015f151581525090565b6040518061010001604052805f81526020015f73ffffffffffffffffffffffffffffffffffffffff1681526020015f81526020015f81526020015f81526020015f81526020015f81526020015f600381111561421e5761421d6149f8565b5b81525090565b5f604051905090565b5f5ffd5b5f5ffd5b5f7fffffffff0000000000000000000000000000000000000000000000000000000082169050919050565b61426981614235565b8114614273575f5ffd5b50565b5f8135905061428481614260565b92915050565b5f6020828403121561429f5761429e61422d565b5b5f6142ac84828501614276565b91505092915050565b5f8115159050919050565b6142c9816142b5565b82525050565b5f6020820190506142e25f8301846142c0565b92915050565b5f819050919050565b6142fa816142e8565b8114614304575f5ffd5b50565b5f81359050614315816142f1565b92915050565b5f5f5f606084860312156143325761433161422d565b5b5f61433f86828701614307565b935050602061435086828701614307565b925050604061436186828701614307565b9150509250925092565b614374816142e8565b82525050565b5f60208201905061438d5f83018461436b565b92915050565b5f81519050919050565b5f82825260208201905092915050565b8281835e5f83830152505050565b5f601f19601f8301169050919050565b5f6143d582614393565b6143df818561439d565b93506143ef8185602086016143ad565b6143f8816143bb565b840191505092915050565b5f6020820190508181035f83015261441b81846143cb565b905092915050565b5f602082840312156144385761443761422d565b5b5f61444584828501614307565b91505092915050565b5f73ffffffffffffffffffffffffffffffffffffffff82169050919050565b5f6144778261444e565b9050919050565b6144878161446d565b82525050565b5f6020820190506144a05f83018461447e565b92915050565b6144af8161446d565b81146144b9575f5ffd5b50565b5f813590506144ca816144a6565b92915050565b5f5f604083850312156144e6576144e561422d565b5b5f6144f3858286016144bc565b925050602061450485828601614307565b9150509250929050565b5f5f604083850312156145245761452361422d565b5b5f61453185828601614307565b925050602061454285828601614307565b9150509250929050565b5f5ffd5b5f5ffd5b7f4e487b71000000000000000000000000000000000000000000000000000000005f52604160045260245ffd5b61458a826143bb565b810181811067ffffffffffffffff821117156145a9576145a8614554565b5b80604052505050565b5f6145bb614224565b90506145c78282614581565b919050565b5f67ffffffffffffffff8211156145e6576145e5614554565b5b6145ef826143bb565b9050602081019050919050565b828183375f83830152505050565b5f61461c614617846145cc565b6145b2565b90508281526020810184848401111561463857614637614550565b5b6146438482856145fc565b509392505050565b5f82601f83011261465f5761465e61454c565b5b813561466f84826020860161460a565b91505092915050565b5f5f6040838503121561468e5761468d61422d565b5b5f61469b85828601614307565b925050602083013567ffffffffffffffff8111156146bc576146bb614231565b5b6146c88582860161464b565b9150509250929050565b5f5f5f606084860312156146e9576146e861422d565b5b5f6146f6868287016144bc565b9350506020614707868287016144bc565b925050604061471886828701614307565b9150509250925092565b61472b816142e8565b82525050565b61473a816142b5565b82525050565b60c082015f8201516147545f850182614722565b5060208201516147676020850182614722565b50604082015161477a6040850182614722565b50606082015161478d6060850182614722565b5060808201516147a06080850182614722565b5060a08201516147b360a0850182614731565b50505050565b5f60c0820190506147cc5f830184614740565b92915050565b5f602082840312156147e7576147e661422d565b5b5f6147f4848285016144bc565b91505092915050565b5f81519050919050565b5f82825260208201905092915050565b5f819050602082019050919050565b5f6148318383614722565b60208301905092915050565b5f602082019050919050565b5f614853826147fd565b61485d8185614807565b935061486883614817565b805f5b8381101561489857815161487f8882614826565b975061488a8361483d565b92505060018101905061486b565b5085935050505092915050565b5f6020820190508181035f8301526148bd8184614849565b905092915050565b5f819050919050565b5f6148e86148e36148de8461444e565b6148c5565b61444e565b9050919050565b5f6148f9826148ce565b9050919050565b5f61490a826148ef565b9050919050565b61491a81614900565b82525050565b5f6020820190506149335f830184614911565b92915050565b5f5f5f5f5f60a086880312156149525761495161422d565b5b5f61495f88828901614307565b955050602061497088828901614307565b945050604061498188828901614307565b935050606061499288828901614307565b92505060806149a388828901614307565b9150509295509295909350565b5f6149ba826148ef565b9050919050565b6149ca816149b0565b82525050565b5f6020820190506149e35f8301846149c1565b92915050565b6149f28161446d565b82525050565b7f4e487b71000000000000000000000000000000000000000000000000000000005f52602160045260245ffd5b60048110614a3657614a356149f8565b5b50565b5f819050614a4682614a25565b919050565b5f614a5582614a39565b9050919050565b614a6581614a4b565b82525050565b61010082015f820151614a805f850182614722565b506020820151614a9360208501826149e9565b506040820151614aa66040850182614722565b506060820151614ab96060850182614722565b506080820151614acc6080850182614722565b5060a0820151614adf60a0850182614722565b5060c0820151614af260c0850182614722565b5060e0820151614b0560e0850182614a5c565b50505050565b5f61010082019050614b1f5f830184614a6b565b92915050565b614b2e816142b5565b8114614b38575f5ffd5b50565b5f81359050614b4981614b25565b92915050565b5f5f60408385031215614b6557614b6461422d565b5b5f614b72858286016144bc565b9250506020614b8385828601614b3b565b9150509250929050565b614b9681614a4b565b82525050565b5f61010082019050614bb05f83018b61436b565b614bbd602083018a61447e565b614bca604083018961436b565b614bd7606083018861436b565b614be4608083018761436b565b614bf160a083018661436b565b614bfe60c083018561436b565b614c0b60e0830184614b8d565b9998505050505050505050565b5f60c082019050614c2b5f83018961436b565b614c38602083018861436b565b614c45604083018761436b565b614c52606083018661436b565b614c5f608083018561436b565b614c6c60a08301846142c0565b979650505050505050565b5f67ffffffffffffffff821115614c9157614c90614554565b5b614c9a826143bb565b9050602081019050919050565b5f614cb9614cb484614c77565b6145b2565b905082815260208101848484011115614cd557614cd4614550565b5b614ce08482856145fc565b509392505050565b5f82601f830112614cfc57614cfb61454c565b5b8135614d0c848260208601614ca7565b91505092915050565b5f5f5f5f60808587031215614d2d57614d2c61422d565b5b5f614d3a878288016144bc565b9450506020614d4b878288016144bc565b9350506040614d5c87828801614307565b925050606085013567ffffffffffffffff811115614d7d57614d7c614231565b5b614d8987828801614ce8565b91505092959194509250565b5f5f60408385031215614dab57614daa61422d565b5b5f614db8858286016144bc565b9250506020614dc9858286016144bc565b9150509250929050565b7f4e487b71000000000000000000000000000000000000000000000000000000005f52601160045260245ffd5b5f614e0a826142e8565b9150614e15836142e8565b9250828202614e23816142e8565b91508282048414831517614e3a57614e39614dd3565b5b5092915050565b7f4e487b71000000000000000000000000000000000000000000000000000000005f52601260045260245ffd5b5f614e78826142e8565b9150614e83836142e8565b925082614e9357614e92614e41565b5b828204905092915050565b7f4e487b71000000000000000000000000000000000000000000000000000000005f52602260045260245ffd5b5f6002820490506001821680614ee257607f821691505b602082108103614ef557614ef4614e9e565b5b50919050565b7f506c616e20646f6573206e6f74206578697374000000000000000000000000005f82015250565b5f614f2f60138361439d565b9150614f3a82614efb565b602082019050919050565b5f6020820190508181035f830152614f5c81614f23565b9050919050565b7f416c72656164792064697361626c6564000000000000000000000000000000005f82015250565b5f614f9760108361439d565b9150614fa282614f63565b602082019050919050565b5f6020820190508181035f830152614fc481614f8b565b9050919050565b7f4465706f73697420646f6573206e6f74206578697374000000000000000000005f82015250565b5f614fff60168361439d565b915061500a82614fcb565b602082019050919050565b5f6020820190508181035f83015261502c81614ff3565b9050919050565b7f4e6f7420796f7572206465706f736974000000000000000000000000000000005f82015250565b5f61506760108361439d565b915061507282615033565b602082019050919050565b5f6020820190508181035f8301526150948161505b565b9050919050565b7f4e6f7420616374697665000000000000000000000000000000000000000000005f82015250565b5f6150cf600a8361439d565b91506150da8261509b565b602082019050919050565b5f6020820190508181035f8301526150fc816150c3565b9050919050565b7f4e6f7420796574206d61747572656400000000000000000000000000000000005f82015250565b5f615137600f8361439d565b915061514282615103565b602082019050919050565b5f6020820190508181035f8301526151648161512b565b9050919050565b7f4e657720706c616e20646f6573206e6f742065786973740000000000000000005f82015250565b5f61519f60178361439d565b91506151aa8261516b565b602082019050919050565b5f6020820190508181035f8301526151cc81615193565b9050919050565b7f4e657720706c616e2069732064697361626c65640000000000000000000000005f82015250565b5f61520760148361439d565b9150615212826151d3565b602082019050919050565b5f6020820190508181035f830152615234816151fb565b9050919050565b5f615245826142e8565b9150615250836142e8565b925082820390508181111561526857615267614dd3565b5b92915050565b5f615278826142e8565b9150615283836142e8565b925082820190508082111561529b5761529a614dd3565b5b92915050565b7f4e6577207072696e636970616c2062656c6f77206d696e696d756d00000000005f82015250565b5f6152d5601b8361439d565b91506152e0826152a1565b602082019050919050565b5f6020820190508181035f830152615302816152c9565b9050919050565b7f4e6577207072696e636970616c2065786365656473206d6178696d756d0000005f82015250565b5f61533d601d8361439d565b915061534882615309565b602082019050919050565b5f6020820190508181035f83015261536a81615331565b9050919050565b5f61537b826142e8565b91507fffffffffffffffffffffffffffffffffffffffffffffffffffffffffffffffff82036153ad576153ac614dd3565b5b600182019050919050565b7f546f6b656e20646f6573206e6f742065786973740000000000000000000000005f82015250565b5f6153ec60148361439d565b91506153f7826153b8565b602082019050919050565b5f6020820190508181035f830152615419816153e0565b9050919050565b5f819050815f5260205f209050919050565b5f6020601f8301049050919050565b5f82821b905092915050565b5f6008830261547c7fffffffffffffffffffffffffffffffffffffffffffffffffffffffffffffffff82615441565b6154868683615441565b95508019841693508086168417925050509392505050565b5f6154b86154b36154ae846142e8565b6148c5565b6142e8565b9050919050565b5f819050919050565b6154d18361549e565b6154e56154dd826154bf565b84845461544d565b825550505050565b5f5f905090565b6154fc6154ed565b6155078184846154c8565b505050565b5b8181101561552a5761551f5f826154f4565b60018101905061550d565b5050565b601f82111561556f5761554081615420565b61554984615432565b81016020851015615558578190505b61556c61556485615432565b83018261550c565b50505b505050565b5f82821c905092915050565b5f61558f5f1984600802615574565b1980831691505092915050565b5f6155a78383615580565b9150826002028217905092915050565b6155c082614393565b67ffffffffffffffff8111156155d9576155d8614554565b5b6155e38254614ecb565b6155ee82828561552e565b5f60209050601f83116001811461561f575f841561560d578287015190505b615617858261559c565b86555061567e565b601f19841661562d86615420565b5f5b828110156156545784890151825560018201915060208501945060208101905061562f565b86831015615671578489015161566d601f891682615580565b8355505b6001600288020188555050505b505050505050565b5f6060820190506156995f83018661447e565b6156a6602083018561436b565b6156b3604083018461447e565b949350505050565b7f4e487b71000000000000000000000000000000000000000000000000000000005f52603260045260245ffd5b7f54656e6f72206d757374206265203e20300000000000000000000000000000005f82015250565b5f61571c60118361439d565b9150615727826156e8565b602082019050919050565b5f6020820190508181035f83015261574981615710565b9050919050565b7f496e76616c6964204150520000000000000000000000000000000000000000005f82015250565b5f615784600b8361439d565b915061578f82615750565b602082019050919050565b5f6020820190508181035f8301526157b181615778565b9050919050565b7f496e76616c69642070656e616c747900000000000000000000000000000000005f82015250565b5f6157ec600f8361439d565b91506157f7826157b8565b602082019050919050565b5f6020820190508181035f830152615819816157e0565b9050919050565b7f6d696e4465706f736974206d757374206265203e2030000000000000000000005f82015250565b5f61585460168361439d565b915061585f82615820565b602082019050919050565b5f6020820190508181035f83015261588181615848565b9050919050565b5f60a08201905061589b5f83018861436b565b6158a8602083018761436b565b6158b5604083018661436b565b6158c2606083018561436b565b6158cf608083018461436b565b9695505050505050565b5f6040820190506158ec5f83018561447e565b6158f9602083018461436b565b9392505050565b5f6040820190506159135f83018561436b565b615920602083018461436b565b9392505050565b7f416c726561647920656e61626c656400000000000000000000000000000000005f82015250565b5f61595b600f8361439d565b915061596682615927565b602082019050919050565b5f6020820190508181035f8301526159888161594f565b9050919050565b7f506c616e2069732064697361626c6564000000000000000000000000000000005f82015250565b5f6159c360108361439d565b91506159ce8261598f565b602082019050919050565b5f6020820190508181035f8301526159f0816159b7565b9050919050565b7f42656c6f77206d696e696d756d206465706f73697400000000000000000000005f82015250565b5f615a2b60158361439d565b9150615a36826159f7565b602082019050919050565b5f6020820190508181035f830152615a5881615a1f565b9050919050565b7f45786365656473206d6178696d756d206465706f7369740000000000000000005f82015250565b5f615a9360178361439d565b9150615a9e82615a5f565b602082019050919050565b5f6020820190508181035f830152615ac081615a87565b9050919050565b5f606082019050615ada5f83018661447e565b615ae7602083018561436b565b615af4604083018461436b565b949350505050565b7f477261636520706572696f64206e6f7420656e646564000000000000000000005f82015250565b5f615b3060168361439d565b9150615b3b82615afc565b602082019050919050565b5f6020820190508181035f830152615b5d81615b24565b9050919050565b7f496e76616c6964206164647265737300000000000000000000000000000000005f82015250565b5f615b98600f8361439d565b9150615ba382615b64565b602082019050919050565b5f6020820190508181035f830152615bc581615b8c565b9050919050565b5f604082019050615bdf5f83018561447e565b615bec602083018461447e565b9392505050565b5f81519050919050565b5f82825260208201905092915050565b5f615c1782615bf3565b615c218185615bfd565b9350615c318185602086016143ad565b615c3a816143bb565b840191505092915050565b5f608082019050615c585f83018761447e565b615c65602083018661447e565b615c72604083018561436b565b8181036060830152615c848184615c0d565b905095945050505050565b5f81519050615c9d81614260565b92915050565b5f60208284031215615cb857615cb761422d565b5b5f615cc584828501615c8f565b9150509291505056fea26469706673582212209f0156814134063b861e5b4b4f59452181a4ac9db8ad736f5ba577af29f95fe164736f6c634300081c0033",
  "devdoc": {
    "details": "Core business logic for the Online Banking System   - Manages deposit plans (create, update, enable/disable)   - Handles user deposits with ERC721 NFT certificates   - Supports normal withdraw, early withdraw, manual renew, auto-renew   - Simple interest calculated from vault",
    "errors": {
      "ERC721IncorrectOwner(address,uint256,address)": [
        {
          "details": "Indicates an error related to the ownership over a particular token. Used in transfers.",
          "params": {
            "owner": "Address of the current owner of a token.",
            "sender": "Address whose tokens are being transferred.",
            "tokenId": "Identifier number of a token."
          }
        }
      ],
      "ERC721InsufficientApproval(address,uint256)": [
        {
          "details": "Indicates a failure with the `operator`’s approval. Used in transfers.",
          "params": {
            "operator": "Address that may be allowed to operate on tokens without being their owner.",
            "tokenId": "Identifier number of a token."
          }
        }
      ],
      "ERC721InvalidApprover(address)": [
        {
          "details": "Indicates a failure with the `approver` of a token to be approved. Used in approvals.",
          "params": {
            "approver": "Address initiating an approval operation."
          }
        }
      ],
      "ERC721InvalidOperator(address)": [
        {
          "details": "Indicates a failure with the `operator` to be approved. Used in approvals.",
          "params": {
            "operator": "Address that may be allowed to operate on tokens without being their owner."
          }
        }
      ],
      "ERC721InvalidOwner(address)": [
        {
          "details": "Indicates that an address can't be an owner. For example, `address(0)` is a forbidden owner in ERC-721. Used in balance queries.",
          "params": {
            "owner": "Address of the current owner of a token."
          }
        }
      ],
      "ERC721InvalidReceiver(address)": [
        {
          "details": "Indicates a failure with the token `receiver`. Used in transfers.",
          "params": {
            "receiver": "Address to which tokens are being transferred."
          }
        }
      ],
      "ERC721InvalidSender(address)": [
        {
          "details": "Indicates a failure with the token `sender`. Used in transfers.",
          "params": {
            "sender": "Address whose tokens are being transferred."
          }
        }
      ],
      "ERC721NonexistentToken(uint256)": [
        {
          "details": "Indicates a `tokenId` whose `owner` is the zero address.",
          "params": {
            "tokenId": "Identifier number of a token."
          }
        }
      ],
      "EnforcedPause()": [
        {
          "details": "The operation failed because the contract is paused."
        }
      ],
      "ExpectedPause()": [
        {
          "details": "The operation failed because the contract is not paused."
        }
      ],
      "OwnableInvalidOwner(address)": [
        {
          "details": "The owner is not a valid owner account. (eg. `address(0)`)"
        }
      ],
      "OwnableUnauthorizedAccount(address)": [
        {
          "details": "The caller account is not authorized to perform an operation."
        }
      ],
      "ReentrancyGuardReentrantCall()": [
        {
          "details": "Unauthorized reentrant call."
        }
      ],
      "SafeERC20FailedOperation(address)": [
        {
          "details": "An operation with an ERC-20 token failed."
        }
      ]
    },
    "events": {
      "Approval(address,address,uint256)": {
        "details": "Emitted when `owner` enables `approved` to manage the `tokenId` token."
      },
      "ApprovalForAll(address,address,bool)": {
        "details": "Emitted when `owner` enables or disables (`approved`) `operator` to manage all of its assets."
      },
      "Paused(address)": {
        "details": "Emitted when the pause is triggered by `account`."
      },
      "Transfer(address,address,uint256)": {
        "details": "Emitted when `tokenId` token is transferred from `from` to `to`."
      },
      "Unpaused(address)": {
        "details": "Emitted when the pause is lifted by `account`."
      }
    },
    "kind": "dev",
    "methods": {
      "approve(address,uint256)": {
        "details": "Gives permission to `to` to transfer `tokenId` token to another account. The approval is cleared when the token is transferred. Only a single account can be approved at a time, so approving the zero address clears previous approvals. Requirements: - The caller must own the token or be an approved operator. - `tokenId` must exist. Emits an {Approval} event."
      },
      "autoRenewDeposit(uint256)": {
        "params": {
          "depositId": "The deposit to auto-renew"
        },
        "returns": {
          "_0": "newDepositId The ID of the new deposit"
        }
      },
      "balanceOf(address)": {
        "details": "Returns the number of tokens in ``owner``'s account."
      },
      "createPlan(uint256,uint256,uint256,uint256,uint256)": {
        "details": "Create a new deposit plan"
      },
      "earlyWithdraw(uint256)": {
        "params": {
          "depositId": "The deposit to withdraw early"
        }
      },
      "getApproved(uint256)": {
        "details": "Returns the account approved for `tokenId` token. Requirements: - `tokenId` must exist."
      },
      "isApprovedForAll(address,address)": {
        "details": "Returns if the `operator` is allowed to manage all of the assets of `owner`. See {setApprovalForAll}"
      },
      "name()": {
        "details": "Returns the token collection name."
      },
      "openDeposit(uint256,uint256)": {
        "params": {
          "amount": "Amount of USDC to deposit",
          "planId": "Plan to deposit into"
        },
        "returns": {
          "_0": "depositId The ID of the new deposit (also the NFT tokenId)"
        }
      },
      "owner()": {
        "details": "Returns the address of the current owner."
      },
      "ownerOf(uint256)": {
        "details": "Returns the owner of the `tokenId` token. Requirements: - `tokenId` must exist."
      },
      "paused()": {
        "details": "Returns true if the contract is paused, and false otherwise."
      },
      "renewDeposit(uint256,uint256)": {
        "params": {
          "depositId": "The matured deposit to renew",
          "newPlanId": "The new plan to deposit into"
        },
        "returns": {
          "_0": "newDepositId The ID of the new deposit"
        }
      },
      "renounceOwnership()": {
        "details": "Leaves the contract without owner. It will not be possible to call `onlyOwner` functions. Can only be called by the current owner. NOTE: Renouncing ownership will leave the contract without an owner, thereby disabling any functionality that is only available to the owner."
      },
      "safeTransferFrom(address,address,uint256)": {
        "details": "Safely transfers `tokenId` token from `from` to `to`, checking first that contract recipients are aware of the ERC-721 protocol to prevent tokens from being forever locked. Requirements: - `from` cannot be the zero address. - `to` cannot be the zero address. - `tokenId` token must exist and be owned by `from`. - If the caller is not `from`, it must have been allowed to move this token by either {approve} or   {setApprovalForAll}. - If `to` refers to a smart contract, it must implement {IERC721Receiver-onERC721Received}, which is called upon   a safe transfer. Emits a {Transfer} event."
      },
      "safeTransferFrom(address,address,uint256,bytes)": {
        "details": "Safely transfers `tokenId` token from `from` to `to`. Requirements: - `from` cannot be the zero address. - `to` cannot be the zero address. - `tokenId` token must exist and be owned by `from`. - If the caller is not `from`, it must be approved to move this token by either {approve} or {setApprovalForAll}. - If `to` refers to a smart contract, it must implement {IERC721Receiver-onERC721Received}, which is called upon   a safe transfer. Emits a {Transfer} event."
      },
      "setApprovalForAll(address,bool)": {
        "details": "Approve or remove `operator` as an operator for the caller. Operators can call {transferFrom} or {safeTransferFrom} for any token owned by the caller. Requirements: - The `operator` cannot be the address zero. Emits an {ApprovalForAll} event."
      },
      "supportsInterface(bytes4)": {
        "details": "Returns true if this contract implements the interface defined by `interfaceId`. See the corresponding https://eips.ethereum.org/EIPS/eip-165#how-interfaces-are-identified[ERC section] to learn more about how these ids are created. This function call must use less than 30 000 gas."
      },
      "symbol()": {
        "details": "Returns the token collection symbol."
      },
      "tokenURI(uint256)": {
        "details": "Returns the Uniform Resource Identifier (URI) for `tokenId` token."
      },
      "transferFrom(address,address,uint256)": {
        "details": "Transfers `tokenId` token from `from` to `to`. WARNING: Note that the caller is responsible to confirm that the recipient is capable of receiving ERC-721 or else they may be permanently lost. Usage of {safeTransferFrom} prevents loss, though the caller must understand this adds an external call which potentially creates a reentrancy vulnerability. Requirements: - `from` cannot be the zero address. - `to` cannot be the zero address. - `tokenId` token must be owned by `from`. - If the caller is not `from`, it must be approved to move this token by either {approve} or {setApprovalForAll}. Emits a {Transfer} event."
      },
      "transferOwnership(address)": {
        "details": "Transfers ownership of the contract to a new account (`newOwner`). Can only be called by the current owner."
      },
      "updatePlanApr(uint256,uint256)": {
        "details": "Update only the APR of an existing plan      Does NOT affect deposits already opened (snapshot)"
      },
      "withdrawAtMaturity(uint256)": {
        "params": {
          "depositId": "The deposit to withdraw"
        }
      }
    },
    "title": "SavingCore",
    "version": 1
  },
  "userdoc": {
    "kind": "user",
    "methods": {
      "autoRenewDeposit(uint256)": {
        "notice": "Flow 5: autoRenewDeposit — Auto-renew after grace period      Only callable after maturityAt + GRACE_PERIOD_DAYS      Keeps original APR/penalty snapshot, same plan"
      },
      "earlyWithdraw(uint256)": {
        "notice": "Flow 3: earlyWithdraw — Withdraw before maturity with penalty, 0 interest      Penalty goes to feeReceiver"
      },
      "openDeposit(uint256,uint256)": {
        "notice": "Flow 1: openDeposit — Open a new term deposit"
      },
      "renewDeposit(uint256,uint256)": {
        "notice": "Flow 4: renewDeposit — Manual renew with new plan      Interest from old deposit is added to new principal      New deposit gets its own snapshot of current plan APR/penalty"
      },
      "withdrawAtMaturity(uint256)": {
        "notice": "Flow 2: withdrawAtMaturity — Withdraw after maturity with simple interest      Interest comes from VaultManager (not from principal pool)"
      }
    },
    "version": 1
  },
  "storageLayout": {
    "storage": [
      {
        "astId": 1481,
        "contract": "contracts/SavingCore.sol:SavingCore",
        "label": "_name",
        "offset": 0,
        "slot": "0",
        "type": "t_string_storage"
      },
      {
        "astId": 1483,
        "contract": "contracts/SavingCore.sol:SavingCore",
        "label": "_symbol",
        "offset": 0,
        "slot": "1",
        "type": "t_string_storage"
      },
      {
        "astId": 1487,
        "contract": "contracts/SavingCore.sol:SavingCore",
        "label": "_owners",
        "offset": 0,
        "slot": "2",
        "type": "t_mapping(t_uint256,t_address)"
      },
      {
        "astId": 1491,
        "contract": "contracts/SavingCore.sol:SavingCore",
        "label": "_balances",
        "offset": 0,
        "slot": "3",
        "type": "t_mapping(t_address,t_uint256)"
      },
      {
        "astId": 1495,
        "contract": "contracts/SavingCore.sol:SavingCore",
        "label": "_tokenApprovals",
        "offset": 0,
        "slot": "4",
        "type": "t_mapping(t_uint256,t_address)"
      },
      {
        "astId": 1501,
        "contract": "contracts/SavingCore.sol:SavingCore",
        "label": "_operatorApprovals",
        "offset": 0,
        "slot": "5",
        "type": "t_mapping(t_address,t_mapping(t_address,t_bool))"
      },
      {
        "astId": 8,
        "contract": "contracts/SavingCore.sol:SavingCore",
        "label": "_owner",
        "offset": 0,
        "slot": "6",
        "type": "t_address"
      },
      {
        "astId": 3552,
        "contract": "contracts/SavingCore.sol:SavingCore",
        "label": "_paused",
        "offset": 20,
        "slot": "6",
        "type": "t_bool"
      },
      {
        "astId": 9135,
        "contract": "contracts/SavingCore.sol:SavingCore",
        "label": "feeReceiver",
        "offset": 0,
        "slot": "7",
        "type": "t_address"
      },
      {
        "astId": 9140,
        "contract": "contracts/SavingCore.sol:SavingCore",
        "label": "plans",
        "offset": 0,
        "slot": "8",
        "type": "t_mapping(t_uint256,t_struct(Plan)9109_storage)"
      },
      {
        "astId": 9142,
        "contract": "contracts/SavingCore.sol:SavingCore",
        "label": "planCount",
        "offset": 0,
        "slot": "9",
        "type": "t_uint256"
      },
      {
        "astId": 9147,
        "contract": "contracts/SavingCore.sol:SavingCore",
        "label": "deposits",
        "offset": 0,
        "slot": "10",
        "type": "t_mapping(t_uint256,t_struct(Deposit)9127_storage)"
      },
      {
        "astId": 9149,
        "contract": "contracts/SavingCore.sol:SavingCore",
        "label": "depositCount",
        "offset": 0,
        "slot": "11",
        "type": "t_uint256"
      },
      {
        "astId": 9153,
        "contract": "contracts/SavingCore.sol:SavingCore",
        "label": "_tokenURIs",
        "offset": 0,
        "slot": "12",
        "type": "t_mapping(t_uint256,t_string_storage)"
      }
    ],
    "types": {
      "t_address": {
        "encoding": "inplace",
        "label": "address",
        "numberOfBytes": "20"
      },
      "t_bool": {
        "encoding": "inplace",
        "label": "bool",
        "numberOfBytes": "1"
      },
      "t_enum(DepositStatus)9096": {
        "encoding": "inplace",
        "label": "enum SavingCore.DepositStatus",
        "numberOfBytes": "1"
      },
      "t_mapping(t_address,t_bool)": {
        "encoding": "mapping",
        "key": "t_address",
        "label": "mapping(address => bool)",
        "numberOfBytes": "32",
        "value": "t_bool"
      },
      "t_mapping(t_address,t_mapping(t_address,t_bool))": {
        "encoding": "mapping",
        "key": "t_address",
        "label": "mapping(address => mapping(address => bool))",
        "numberOfBytes": "32",
        "value": "t_mapping(t_address,t_bool)"
      },
      "t_mapping(t_address,t_uint256)": {
        "encoding": "mapping",
        "key": "t_address",
        "label": "mapping(address => uint256)",
        "numberOfBytes": "32",
        "value": "t_uint256"
      },
      "t_mapping(t_uint256,t_address)": {
        "encoding": "mapping",
        "key": "t_uint256",
        "label": "mapping(uint256 => address)",
        "numberOfBytes": "32",
        "value": "t_address"
      },
      "t_mapping(t_uint256,t_string_storage)": {
        "encoding": "mapping",
        "key": "t_uint256",
        "label": "mapping(uint256 => string)",
        "numberOfBytes": "32",
        "value": "t_string_storage"
      },
      "t_mapping(t_uint256,t_struct(Deposit)9127_storage)": {
        "encoding": "mapping",
        "key": "t_uint256",
        "label": "mapping(uint256 => struct SavingCore.Deposit)",
        "numberOfBytes": "32",
        "value": "t_struct(Deposit)9127_storage"
      },
      "t_mapping(t_uint256,t_struct(Plan)9109_storage)": {
        "encoding": "mapping",
        "key": "t_uint256",
        "label": "mapping(uint256 => struct SavingCore.Plan)",
        "numberOfBytes": "32",
        "value": "t_struct(Plan)9109_storage"
      },
      "t_string_storage": {
        "encoding": "bytes",
        "label": "string",
        "numberOfBytes": "32"
      },
      "t_struct(Deposit)9127_storage": {
        "encoding": "inplace",
        "label": "struct SavingCore.Deposit",
        "members": [
          {
            "astId": 9111,
            "contract": "contracts/SavingCore.sol:SavingCore",
            "label": "planId",
            "offset": 0,
            "slot": "0",
            "type": "t_uint256"
          },
          {
            "astId": 9113,
            "contract": "contracts/SavingCore.sol:SavingCore",
            "label": "owner",
            "offset": 0,
            "slot": "1",
            "type": "t_address"
          },
          {
            "astId": 9115,
            "contract": "contracts/SavingCore.sol:SavingCore",
            "label": "principal",
            "offset": 0,
            "slot": "2",
            "type": "t_uint256"
          },
          {
            "astId": 9117,
            "contract": "contracts/SavingCore.sol:SavingCore",
            "label": "startAt",
            "offset": 0,
            "slot": "3",
            "type": "t_uint256"
          },
          {
            "astId": 9119,
            "contract": "contracts/SavingCore.sol:SavingCore",
            "label": "maturityAt",
            "offset": 0,
            "slot": "4",
            "type": "t_uint256"
          },
          {
            "astId": 9121,
            "contract": "contracts/SavingCore.sol:SavingCore",
            "label": "aprBpsAtOpen",
            "offset": 0,
            "slot": "5",
            "type": "t_uint256"
          },
          {
            "astId": 9123,
            "contract": "contracts/SavingCore.sol:SavingCore",
            "label": "penaltyBpsAtOpen",
            "offset": 0,
            "slot": "6",
            "type": "t_uint256"
          },
          {
            "astId": 9126,
            "contract": "contracts/SavingCore.sol:SavingCore",
            "label": "status",
            "offset": 0,
            "slot": "7",
            "type": "t_enum(DepositStatus)9096"
          }
        ],
        "numberOfBytes": "256"
      },
      "t_struct(Plan)9109_storage": {
        "encoding": "inplace",
        "label": "struct SavingCore.Plan",
        "members": [
          {
            "astId": 9098,
            "contract": "contracts/SavingCore.sol:SavingCore",
            "label": "tenorDays",
            "offset": 0,
            "slot": "0",
            "type": "t_uint256"
          },
          {
            "astId": 9100,
            "contract": "contracts/SavingCore.sol:SavingCore",
            "label": "aprBps",
            "offset": 0,
            "slot": "1",
            "type": "t_uint256"
          },
          {
            "astId": 9102,
            "contract": "contracts/SavingCore.sol:SavingCore",
            "label": "minDeposit",
            "offset": 0,
            "slot": "2",
            "type": "t_uint256"
          },
          {
            "astId": 9104,
            "contract": "contracts/SavingCore.sol:SavingCore",
            "label": "maxDeposit",
            "offset": 0,
            "slot": "3",
            "type": "t_uint256"
          },
          {
            "astId": 9106,
            "contract": "contracts/SavingCore.sol:SavingCore",
            "label": "earlyWithdrawPenaltyBps",
            "offset": 0,
            "slot": "4",
            "type": "t_uint256"
          },
          {
            "astId": 9108,
            "contract": "contracts/SavingCore.sol:SavingCore",
            "label": "enabled",
            "offset": 0,
            "slot": "5",
            "type": "t_bool"
          }
        ],
        "numberOfBytes": "192"
      },
      "t_uint256": {
        "encoding": "inplace",
        "label": "uint256",
        "numberOfBytes": "32"
      }
    }
  }
}