{
  "address": "0xE72739658F52527bF28507Adb0B6C4fdBD32626b",
  "abi": [
    {
      "inputs": [
        {
          "internalType": "address",
          "name": "_usdc",
          "type": "address"
        }
      ],
      "stateMutability": "nonpayable",
      "type": "constructor"
    },
    {
      "inputs": [],
      "name": "EnforcedPause",
      "type": "error"
    },
    {
      "inputs": [],
      "name": "ExpectedPause",
      "type": "error"
    },
    {
      "inputs": [
        {
          "internalType": "address",
          "name": "owner",
          "type": "address"
        }
      ],
      "name": "OwnableInvalidOwner",
      "type": "error"
    },
    {
      "inputs": [
        {
          "internalType": "address",
          "name": "account",
          "type": "address"
        }
      ],
      "name": "OwnableUnauthorizedAccount",
      "type": "error"
    },
    {
      "inputs": [],
      "name": "ReentrancyGuardReentrantCall",
      "type": "error"
    },
    {
      "inputs": [
        {
          "internalType": "address",
          "name": "token",
          "type": "address"
        }
      ],
      "name": "SafeERC20FailedOperation",
      "type": "error"
    },
    {
      "anonymous": false,
      "inputs": [
        {
          "indexed": false,
          "internalType": "uint256",
          "name": "amount",
          "type": "uint256"
        }
      ],
      "name": "DepositRecorded",
      "type": "event"
    },
    {
      "anonymous": false,
      "inputs": [
        {
          "indexed": true,
          "internalType": "address",
          "name": "previousOwner",
          "type": "address"
        },
        {
          "indexed": true,
          "internalType": "address",
          "name": "newOwner",
          "type": "address"
        }
      ],
      "name": "OwnershipTransferred",
      "type": "event"
    },
    {
      "anonymous": false,
      "inputs": [
        {
          "indexed": false,
          "internalType": "address",
          "name": "account",
          "type": "address"
        }
      ],
      "name": "Paused",
      "type": "event"
    },
    {
      "anonymous": false,
      "inputs": [],
      "name": "PausedByOwner",
      "type": "event"
    },
    {
      "anonymous": false,
      "inputs": [
        {
          "indexed": false,
          "internalType": "address",
          "name": "account",
          "type": "address"
        }
      ],
      "name": "Unpaused",
      "type": "event"
    },
    {
      "anonymous": false,
      "inputs": [],
      "name": "UnpausedByOwner",
      "type": "event"
    },
    {
      "anonymous": false,
      "inputs": [
        {
          "indexed": true,
          "internalType": "address",
          "name": "owner",
          "type": "address"
        },
        {
          "indexed": false,
          "internalType": "uint256",
          "name": "amount",
          "type": "uint256"
        }
      ],
      "name": "VaultFunded",
      "type": "event"
    },
    {
      "anonymous": false,
      "inputs": [
        {
          "indexed": true,
          "internalType": "address",
          "name": "owner",
          "type": "address"
        },
        {
          "indexed": false,
          "internalType": "uint256",
          "name": "amount",
          "type": "uint256"
        }
      ],
      "name": "VaultWithdrawn",
      "type": "event"
    },
    {
      "anonymous": false,
      "inputs": [
        {
          "indexed": false,
          "internalType": "uint256",
          "name": "amount",
          "type": "uint256"
        }
      ],
      "name": "WithdrawalRecorded",
      "type": "event"
    },
    {
      "inputs": [
        {
          "internalType": "uint256",
          "name": "amount",
          "type": "uint256"
        }
      ],
      "name": "depositToVault",
      "outputs": [],
      "stateMutability": "nonpayable",
      "type": "function"
    },
    {
      "inputs": [
        {
          "internalType": "uint256",
          "name": "amount",
          "type": "uint256"
        }
      ],
      "name": "fund",
      "outputs": [],
      "stateMutability": "nonpayable",
      "type": "function"
    },
    {
      "inputs": [],
      "name": "getAvailableLiquidity",
      "outputs": [
        {
          "internalType": "uint256",
          "name": "",
          "type": "uint256"
        }
      ],
      "stateMutability": "view",
      "type": "function"
    },
    {
      "inputs": [],
      "name": "isSolvent",
      "outputs": [
        {
          "internalType": "bool",
          "name": "",
          "type": "bool"
        }
      ],
      "stateMutability": "view",
      "type": "function"
    },
    {
      "inputs": [],
      "name": "owner",
      "outputs": [
        {
          "internalType": "address",
          "name": "",
          "type": "address"
        }
      ],
      "stateMutability": "view",
      "type": "function"
    },
    {
      "inputs": [],
      "name": "pause",
      "outputs": [],
      "stateMutability": "nonpayable",
      "type": "function"
    },
    {
      "inputs": [],
      "name": "paused",
      "outputs": [
        {
          "internalType": "bool",
          "name": "",
          "type": "bool"
        }
      ],
      "stateMutability": "view",
      "type": "function"
    },
    {
      "inputs": [],
      "name": "renounceOwnership",
      "outputs": [],
      "stateMutability": "nonpayable",
      "type": "function"
    },
    {
      "inputs": [],
      "name": "totalDeposits",
      "outputs": [
        {
          "internalType": "uint256",
          "name": "",
          "type": "uint256"
        }
      ],
      "stateMutability": "view",
      "type": "function"
    },
    {
      "inputs": [
        {
          "internalType": "address",
          "name": "newOwner",
          "type": "address"
        }
      ],
      "name": "transferOwnership",
      "outputs": [],
      "stateMutability": "nonpayable",
      "type": "function"
    },
    {
      "inputs": [],
      "name": "unpause",
      "outputs": [],
      "stateMutability": "nonpayable",
      "type": "function"
    },
    {
      "inputs": [],
      "name": "usdc",
      "outputs": [
        {
          "internalType": "contract IERC20",
          "name": "",
          "type": "address"
        }
      ],
      "stateMutability": "view",
      "type": "function"
    },
    {
      "inputs": [],
      "name": "vaultBalance",
      "outputs": [
        {
          "internalType": "uint256",
          "name": "",
          "type": "uint256"
        }
      ],
      "stateMutability": "view",
      "type": "function"
    },
    {
      "inputs": [
        {
          "internalType": "uint256",
          "name": "amount",
          "type": "uint256"
        }
      ],
      "name": "withdraw",
      "outputs": [],
      "stateMutability": "nonpayable",
      "type": "function"
    },
    {
      "inputs": [
        {
          "internalType": "address",
          "name": "to",
          "type": "address"
        },
        {
          "internalType": "uint256",
          "name": "amount",
          "type": "uint256"
        }
      ],
      "name": "withdrawFromVault",
      "outputs": [],
      "stateMutability": "nonpayable",
      "type": "function"
    },
    {
      "inputs": [
        {
          "internalType": "address",
          "name": "to",
          "type": "address"
        },
        {
          "internalType": "uint256",
          "name": "amount",
          "type": "uint256"
        }
      ],
      "name": "withdrawInterest",
      "outputs": [],
      "stateMutability": "nonpayable",
      "type": "function"
    }
  ],
  "transactionHash": "0xc6178a4a04ddc7f9762a6e39afeeaff60c7b0ba5a96f76ace6cb5568ca43efa5",
  "args": [
    "0x862b80A643f3ec8067Bd3653Ba2D2c737019bddA"
  ],
  "numDeployments": 1,
  "solcInputHash": "44ec1c26ef95c5c7a05477c090002b10",
  "bytecode": "0x60a060405234801561000f575f5ffd5b50604051611a30380380611a30833981810160405281019061003191906102cf565b335f73ffffffffffffffffffffffffffffffffffffffff168173ffffffffffffffffffffffffffffffffffffffff16036100a2575f6040517f1e4fbdf70000000000000000000000000000000000000000000000000000000081526004016100999190610309565b60405180910390fd5b6100b18161017e60201b60201c565b5060016100d06100c561023f60201b60201c565b61026860201b60201c565b5f01819055505f73ffffffffffffffffffffffffffffffffffffffff168173ffffffffffffffffffffffffffffffffffffffff1603610144576040517f08c379a000000000000000000000000000000000000000000000000000000000815260040161013b9061037c565b60405180910390fd5b8073ffffffffffffffffffffffffffffffffffffffff1660808173ffffffffffffffffffffffffffffffffffffffff16815250505061039a565b5f5f5f9054906101000a900473ffffffffffffffffffffffffffffffffffffffff169050815f5f6101000a81548173ffffffffffffffffffffffffffffffffffffffff021916908373ffffffffffffffffffffffffffffffffffffffff1602179055508173ffffffffffffffffffffffffffffffffffffffff168173ffffffffffffffffffffffffffffffffffffffff167f8be0079c531659141344cd1fd0a4f28419497f9722a3daafe3b4186f6b6457e060405160405180910390a35050565b5f7f9b779b17422d0df92223018b32b4d1fa46e071723d6817e2486d003becc55f005f1b905090565b5f819050919050565b5f5ffd5b5f73ffffffffffffffffffffffffffffffffffffffff82169050919050565b5f61029e82610275565b9050919050565b6102ae81610294565b81146102b8575f5ffd5b50565b5f815190506102c9816102a5565b92915050565b5f602082840312156102e4576102e3610271565b5b5f6102f1848285016102bb565b91505092915050565b61030381610294565b82525050565b5f60208201905061031c5f8301846102fa565b92915050565b5f82825260208201905092915050565b7f496e76616c6964205553444320616464726573730000000000000000000000005f82015250565b5f610366601483610322565b915061037182610332565b602082019050919050565b5f6020820190508181035f8301526103938161035a565b9050919050565b60805161163f6103f15f395f818161029d015281816103ee015281816104cd015281816105b50152818161065401528181610716015281816107f401528181610896015281816109b70152610b52015261163f5ff3fe608060405234801561000f575f5ffd5b50600436106100fe575f3560e01c8063715018a6116100955780639b745aec116100645780639b745aec14610228578063b046229614610246578063ca1d209d14610262578063f2fde38b1461027e576100fe565b8063715018a6146101d85780637d882097146101e25780638456cb59146102005780638da5cb5b1461020a576100fe565b80633f4ba83a116100d15780633f4ba83a146101765780635b730e69146101805780635c975abb1461019c5780635ce23950146101ba576100fe565b80630bf6cc081461010257806321116f4e146101205780632e1a7d4d1461013c5780633e413bee14610158575b5f5ffd5b61010a61029a565b604051610117919061115d565b60405180910390f35b61013a600480360381019061013591906111fe565b610338565b005b6101566004803603810190610151919061123c565b610475565b005b610160610652565b60405161016d91906112c2565b60405180910390f35b61017e610676565b005b61019a600480360381019061019591906111fe565b6106b4565b005b6101a461087b565b6040516101b191906112f5565b60405180910390f35b6101c2610890565b6040516101cf91906112f5565b60405180910390f35b6101e0610933565b005b6101ea610946565b6040516101f7919061115d565b60405180910390f35b61020861094c565b005b61021261098a565b60405161021f919061131d565b60405180910390f35b6102306109b1565b60405161023d919061115d565b60405180910390f35b610260600480360381019061025b919061123c565b610a5c565b005b61027c6004803603810190610277919061123c565b610af8565b005b61029860048036038101906102939190611336565b610be8565b005b5f7f000000000000000000000000000000000000000000000000000000000000000073ffffffffffffffffffffffffffffffffffffffff166370a08231306040518263ffffffff1660e01b81526004016102f4919061131d565b602060405180830381865afa15801561030f573d5f5f3e3d5ffd5b505050506040513d601f19601f820116820180604052508101906103339190611375565b905090565b610340610c6c565b610348610cad565b5f811161038a576040517f08c379a0000000000000000000000000000000000000000000000000000000008152600401610381906113fa565b60405180910390fd5b8060015410156103cf576040517f08c379a00000000000000000000000000000000000000000000000000000000081526004016103c690611462565b60405180910390fd5b8060015f8282546103e091906114ad565b9250508190555061043282827f000000000000000000000000000000000000000000000000000000000000000073ffffffffffffffffffffffffffffffffffffffff16610ccf9092919063ffffffff16565b7f19d46f06ab4f770296cbee3c64ee6fb5bd808cb94e7faab8ff12264be0ff281981604051610461919061115d565b60405180910390a1610471610d22565b5050565b61047d610d3c565b610485610cad565b5f81116104c7576040517f08c379a00000000000000000000000000000000000000000000000000000000081526004016104be906113fa565b60405180910390fd5b806001547f000000000000000000000000000000000000000000000000000000000000000073ffffffffffffffffffffffffffffffffffffffff166370a08231306040518263ffffffff1660e01b8152600401610524919061131d565b602060405180830381865afa15801561053f573d5f5f3e3d5ffd5b505050506040513d601f19601f820116820180604052508101906105639190611375565b61056d91906114ad565b10156105ae576040517f08c379a00000000000000000000000000000000000000000000000000000000081526004016105a59061152a565b60405180910390fd5b6105f933827f000000000000000000000000000000000000000000000000000000000000000073ffffffffffffffffffffffffffffffffffffffff16610ccf9092919063ffffffff16565b3373ffffffffffffffffffffffffffffffffffffffff167f1b5775af7e7537be20684ccf94b9c6f4b180dabad653f5b57a234a9c6a3db40b8260405161063f919061115d565b60405180910390a261064f610d22565b50565b7f000000000000000000000000000000000000000000000000000000000000000081565b61067e610d3c565b610686610dc3565b7f28d483f69574d123a1ce3b352cce4d9a78aef0d9649c0514d6136bc31bfbcf5660405160405180910390a1565b6106bc610c6c565b6106c4610cad565b5f8111610706576040517f08c379a00000000000000000000000000000000000000000000000000000000081526004016106fd906113fa565b60405180910390fd5b806001546107149190611548565b7f000000000000000000000000000000000000000000000000000000000000000073ffffffffffffffffffffffffffffffffffffffff166370a08231306040518263ffffffff1660e01b815260040161076d919061131d565b602060405180830381865afa158015610788573d5f5f3e3d5ffd5b505050506040513d601f19601f820116820180604052508101906107ac9190611375565b10156107ed576040517f08c379a00000000000000000000000000000000000000000000000000000000081526004016107e4906115eb565b60405180910390fd5b61083882827f000000000000000000000000000000000000000000000000000000000000000073ffffffffffffffffffffffffffffffffffffffff16610ccf9092919063ffffffff16565b7f19d46f06ab4f770296cbee3c64ee6fb5bd808cb94e7faab8ff12264be0ff281981604051610867919061115d565b60405180910390a1610877610d22565b5050565b5f5f60149054906101000a900460ff16905090565b5f6001547f000000000000000000000000000000000000000000000000000000000000000073ffffffffffffffffffffffffffffffffffffffff166370a08231306040518263ffffffff1660e01b81526004016108ed919061131d565b602060405180830381865afa158015610908573d5f5f3e3d5ffd5b505050506040513d601f19601f8201168201806040525081019061092c9190611375565b1015905090565b61093b610d3c565b6109445f610e24565b565b60015481565b610954610d3c565b61095c610ee5565b7f8f1c031a4b72967d2ff6dd079c6a3a7ae6009cf2d46b2af0f43890df1f80804160405160405180910390a1565b5f5f5f9054906101000a900473ffffffffffffffffffffffffffffffffffffffff16905090565b5f6001547f000000000000000000000000000000000000000000000000000000000000000073ffffffffffffffffffffffffffffffffffffffff166370a08231306040518263ffffffff1660e01b8152600401610a0e919061131d565b602060405180830381865afa158015610a29573d5f5f3e3d5ffd5b505050506040513d601f19601f82011682018060405250810190610a4d9190611375565b610a5791906114ad565b905090565b610a64610c6c565b5f8111610aa6576040517f08c379a0000000000000000000000000000000000000000000000000000000008152600401610a9d906113fa565b60405180910390fd5b8060015f828254610ab79190611548565b925050819055507fdc648a654daa080b0ac338c8bd79518b12afd8b5f408bc6fe5921e467aaa0dcd81604051610aed919061115d565b60405180910390a150565b610b00610d3c565b610b08610c6c565b5f8111610b4a576040517f08c379a0000000000000000000000000000000000000000000000000000000008152600401610b41906113fa565b60405180910390fd5b610b973330837f000000000000000000000000000000000000000000000000000000000000000073ffffffffffffffffffffffffffffffffffffffff16610f47909392919063ffffffff16565b3373ffffffffffffffffffffffffffffffffffffffff167fba24bd9b798cca64d1031eda1ced9398802343e44e07779bb510d7a21ddddef182604051610bdd919061115d565b60405180910390a250565b610bf0610d3c565b5f73ffffffffffffffffffffffffffffffffffffffff168173ffffffffffffffffffffffffffffffffffffffff1603610c60575f6040517f1e4fbdf7000000000000000000000000000000000000000000000000000000008152600401610c57919061131d565b60405180910390fd5b610c6981610e24565b50565b610c7461087b565b15610cab576040517fd93c066500000000000000000000000000000000000000000000000000000000815260040160405180910390fd5b565b610cb5610f9c565b6002610cc7610cc2610fdd565b611006565b5f0181905550565b610cdc838383600161100f565b610d1d57826040517f5274afe7000000000000000000000000000000000000000000000000000000008152600401610d14919061131d565b60405180910390fd5b505050565b6001610d34610d2f610fdd565b611006565b5f0181905550565b610d44611071565b73ffffffffffffffffffffffffffffffffffffffff16610d6261098a565b73ffffffffffffffffffffffffffffffffffffffff1614610dc157610d85611071565b6040517f118cdaa7000000000000000000000000000000000000000000000000000000008152600401610db8919061131d565b60405180910390fd5b565b610dcb611078565b5f5f60146101000a81548160ff0219169083151502179055507f5db9ee0a495bf2e6ff9c91a7834c1ba4fdd244a5e8aa4e537bd38aeae4b073aa610e0d611071565b604051610e1a919061131d565b60405180910390a1565b5f5f5f9054906101000a900473ffffffffffffffffffffffffffffffffffffffff169050815f5f6101000a81548173ffffffffffffffffffffffffffffffffffffffff021916908373ffffffffffffffffffffffffffffffffffffffff1602179055508173ffffffffffffffffffffffffffffffffffffffff168173ffffffffffffffffffffffffffffffffffffffff167f8be0079c531659141344cd1fd0a4f28419497f9722a3daafe3b4186f6b6457e060405160405180910390a35050565b610eed610c6c565b60015f60146101000a81548160ff0219169083151502179055507f62e78cea01bee320cd4e420270b5ea74000d11b0c9f74754ebdbfc544b05a258610f30611071565b604051610f3d919061131d565b60405180910390a1565b610f558484848460016110b8565b610f9657836040517f5274afe7000000000000000000000000000000000000000000000000000000008152600401610f8d919061131d565b60405180910390fd5b50505050565b610fa4611129565b15610fdb576040517f3ee5aeb500000000000000000000000000000000000000000000000000000000815260040160405180910390fd5b565b5f7f9b779b17422d0df92223018b32b4d1fa46e071723d6817e2486d003becc55f005f1b905090565b5f819050919050565b5f5f63a9059cbb60e01b9050604051815f525f1960601c86166004528460245260205f60445f5f8b5af1925060015f51148316611063578383151615611057573d5f823e3d81fd5b5f873b113d1516831692505b806040525050949350505050565b5f33905090565b61108061087b565b6110b6576040517f8dfc202b00000000000000000000000000000000000000000000000000000000815260040160405180910390fd5b565b5f5f6323b872dd60e01b9050604051815f525f1960601c87166004525f1960601c86166024528460445260205f60645f5f8c5af1925060015f5114831661111657838315161561110a573d5f823e3d81fd5b5f883b113d1516831692505b806040525f606052505095945050505050565b5f600261113c611137610fdd565b611006565b5f015414905090565b5f819050919050565b61115781611145565b82525050565b5f6020820190506111705f83018461114e565b92915050565b5f5ffd5b5f73ffffffffffffffffffffffffffffffffffffffff82169050919050565b5f6111a38261117a565b9050919050565b6111b381611199565b81146111bd575f5ffd5b50565b5f813590506111ce816111aa565b92915050565b6111dd81611145565b81146111e7575f5ffd5b50565b5f813590506111f8816111d4565b92915050565b5f5f6040838503121561121457611213611176565b5b5f611221858286016111c0565b9250506020611232858286016111ea565b9150509250929050565b5f6020828403121561125157611250611176565b5b5f61125e848285016111ea565b91505092915050565b5f819050919050565b5f61128a6112856112808461117a565b611267565b61117a565b9050919050565b5f61129b82611270565b9050919050565b5f6112ac82611291565b9050919050565b6112bc816112a2565b82525050565b5f6020820190506112d55f8301846112b3565b92915050565b5f8115159050919050565b6112ef816112db565b82525050565b5f6020820190506113085f8301846112e6565b92915050565b61131781611199565b82525050565b5f6020820190506113305f83018461130e565b92915050565b5f6020828403121561134b5761134a611176565b5b5f611358848285016111c0565b91505092915050565b5f8151905061136f816111d4565b92915050565b5f6020828403121561138a57611389611176565b5b5f61139784828501611361565b91505092915050565b5f82825260208201905092915050565b7f416d6f756e74206d757374206265203e203000000000000000000000000000005f82015250565b5f6113e46012836113a0565b91506113ef826113b0565b602082019050919050565b5f6020820190508181035f830152611411816113d8565b9050919050565b7f496e73756666696369656e74206465706f7369747320747261636b65640000005f82015250565b5f61144c601d836113a0565b915061145782611418565b602082019050919050565b5f6020820190508181035f83015261147981611440565b9050919050565b7f4e487b71000000000000000000000000000000000000000000000000000000005f52601160045260245ffd5b5f6114b782611145565b91506114c283611145565b92508282039050818111156114da576114d9611480565b5b92915050565b7f496e73756666696369656e7420667265652062616c616e6365000000000000005f82015250565b5f6115146019836113a0565b915061151f826114e0565b602082019050919050565b5f6020820190508181035f83015261154181611508565b9050919050565b5f61155282611145565b915061155d83611145565b925082820190508082111561157557611574611480565b5b92915050565b7f496e73756666696369656e74207661756c742062616c616e636520666f7220695f8201527f6e74657265737400000000000000000000000000000000000000000000000000602082015250565b5f6115d56027836113a0565b91506115e08261157b565b604082019050919050565b5f6020820190508181035f830152611602816115c9565b905091905056fea2646970667358221220f740f93402d7f15b7b1f9de19a5811563eb959da2ea785d3e82910eff88a351364736f6c634300081c0033",
  "devdoc": {
    "details": "Manages the liquidity pool for the Online Banking System   - Holds USDC as liquidity for user deposits   - Owner can fund/withdraw to manage reserves   - SavingCore calls depositToVault/withdrawFromVault   - Pausable for emergency stops   - ReentrancyGuard on all external transfers",
    "errors": {
      "EnforcedPause()": [
        {
          "details": "The operation failed because the contract is paused."
        }
      ],
      "ExpectedPause()": [
        {
          "details": "The operation failed because the contract is not paused."
        }
      ],
      "OwnableInvalidOwner(address)": [
        {
          "details": "The owner is not a valid owner account. (eg. `address(0)`)"
        }
      ],
      "OwnableUnauthorizedAccount(address)": [
        {
          "details": "The caller account is not authorized to perform an operation."
        }
      ],
      "ReentrancyGuardReentrantCall()": [
        {
          "details": "Unauthorized reentrant call."
        }
      ],
      "SafeERC20FailedOperation(address)": [
        {
          "details": "An operation with an ERC-20 token failed."
        }
      ]
    },
    "events": {
      "Paused(address)": {
        "details": "Emitted when the pause is triggered by `account`."
      },
      "Unpaused(address)": {
        "details": "Emitted when the pause is lifted by `account`."
      }
    },
    "kind": "dev",
    "methods": {
      "depositToVault(uint256)": {
        "details": "Called by SavingCore when a user opens a deposit      Records the deposit and accepts USDC transfer",
        "params": {
          "amount": "Amount deposited by user"
        }
      },
      "fund(uint256)": {
        "details": "Owner deposits USDC into vault as liquidity reserve",
        "params": {
          "amount": "Amount of USDC to deposit"
        }
      },
      "getAvailableLiquidity()": {
        "details": "Available liquidity = actual balance - tracked deposits      This is the \"free\" USDC owner funded but not yet deposited by users"
      },
      "isSolvent()": {
        "details": "Vault is solvent if actual balance >= total tracked deposits"
      },
      "owner()": {
        "details": "Returns the address of the current owner."
      },
      "paused()": {
        "details": "Returns true if the contract is paused, and false otherwise."
      },
      "renounceOwnership()": {
        "details": "Leaves the contract without owner. It will not be possible to call `onlyOwner` functions. Can only be called by the current owner. NOTE: Renouncing ownership will leave the contract without an owner, thereby disabling any functionality that is only available to the owner."
      },
      "transferOwnership(address)": {
        "details": "Transfers ownership of the contract to a new account (`newOwner`). Can only be called by the current owner."
      },
      "vaultBalance()": {
        "details": "Actual USDC balance held by this contract"
      },
      "withdraw(uint256)": {
        "details": "Owner withdraws USDC from vault",
        "params": {
          "amount": "Amount of USDC to withdraw"
        }
      },
      "withdrawFromVault(address,uint256)": {
        "details": "Called by SavingCore when a user withdraws principal      Transfers USDC back to the user and reduces tracked deposits",
        "params": {
          "amount": "Amount to withdraw (principal)",
          "to": "Recipient address"
        }
      },
      "withdrawInterest(address,uint256)": {
        "details": "Called by SavingCore to pay interest from vault reserves      Does NOT reduce totalDeposits (interest comes from owner-funded liquidity)",
        "params": {
          "amount": "Interest amount to pay",
          "to": "Recipient address"
        }
      }
    },
    "title": "VaultManager",
    "version": 1
  },
  "userdoc": {
    "kind": "user",
    "methods": {},
    "version": 1
  },
  "storageLayout": {
    "storage": [
      {
        "astId": 8,
        "contract": "contracts/VaultManager.sol:VaultManager",
        "label": "_owner",
        "offset": 0,
        "slot": "0",
        "type": "t_address"
      },
      {
        "astId": 3552,
        "contract": "contracts/VaultManager.sol:VaultManager",
        "label": "_paused",
        "offset": 20,
        "slot": "0",
        "type": "t_bool"
      },
      {
        "astId": 10434,
        "contract": "contracts/VaultManager.sol:VaultManager",
        "label": "totalDeposits",
        "offset": 0,
        "slot": "1",
        "type": "t_uint256"
      }
    ],
    "types": {
      "t_address": {
        "encoding": "inplace",
        "label": "address",
        "numberOfBytes": "20"
      },
      "t_bool": {
        "encoding": "inplace",
        "label": "bool",
        "numberOfBytes": "1"
      },
      "t_uint256": {
        "encoding": "inplace",
        "label": "uint256",
        "numberOfBytes": "32"
      }
    }
  }
}