{
  "_format": "hh-sol-artifact-1",
  "contractName": "SavingCore",
  "sourceName": "contracts/SavingCore.sol",
  "abi": [
    {
      "inputs": [
        {
          "internalType": "address",
          "name": "_usdc",
          "type": "address"
        },
        {
          "internalType": "address",
          "name": "_vaultManager",
          "type": "address"
        },
        {
          "internalType": "address",
          "name": "_feeReceiver",
          "type": "address"
        }
      ],
      "stateMutability": "nonpayable",
      "type": "constructor"
    },
    {
      "inputs": [
        {
          "internalType": "address",
          "name": "sender",
          "type": "address"
        },
        {
          "internalType": "uint256",
          "name": "tokenId",
          "type": "uint256"
        },
        {
          "internalType": "address",
          "name": "owner",
          "type": "address"
        }
      ],
      "name": "ERC721IncorrectOwner",
      "type": "error"
    },
    {
      "inputs": [
        {
          "internalType": "address",
          "name": "operator",
          "type": "address"
        },
        {
          "internalType": "uint256",
          "name": "tokenId",
          "type": "uint256"
        }
      ],
      "name": "ERC721InsufficientApproval",
      "type": "error"
    },
    {
      "inputs": [
        {
          "internalType": "address",
          "name": "approver",
          "type": "address"
        }
      ],
      "name": "ERC721InvalidApprover",
      "type": "error"
    },
    {
      "inputs": [
        {
          "internalType": "address",
          "name": "operator",
          "type": "address"
        }
      ],
      "name": "ERC721InvalidOperator",
      "type": "error"
    },
    {
      "inputs": [
        {
          "internalType": "address",
          "name": "owner",
          "type": "address"
        }
      ],
      "name": "ERC721InvalidOwner",
      "type": "error"
    },
    {
      "inputs": [
        {
          "internalType": "address",
          "name": "receiver",
          "type": "address"
        }
      ],
      "name": "ERC721InvalidReceiver",
      "type": "error"
    },
    {
      "inputs": [
        {
          "internalType": "address",
          "name": "sender",
          "type": "address"
        }
      ],
      "name": "ERC721InvalidSender",
      "type": "error"
    },
    {
      "inputs": [
        {
          "internalType": "uint256",
          "name": "tokenId",
          "type": "uint256"
        }
      ],
      "name": "ERC721NonexistentToken",
      "type": "error"
    },
    {
      "inputs": [],
      "name": "EnforcedPause",
      "type": "error"
    },
    {
      "inputs": [],
      "name": "ExpectedPause",
      "type": "error"
    },
    {
      "inputs": [
        {
          "internalType": "address",
          "name": "owner",
          "type": "address"
        }
      ],
      "name": "OwnableInvalidOwner",
      "type": "error"
    },
    {
      "inputs": [
        {
          "internalType": "address",
          "name": "account",
          "type": "address"
        }
      ],
      "name": "OwnableUnauthorizedAccount",
      "type": "error"
    },
    {
      "inputs": [],
      "name": "ReentrancyGuardReentrantCall",
      "type": "error"
    },
    {
      "inputs": [
        {
          "internalType": "address",
          "name": "token",
          "type": "address"
        }
      ],
      "name": "SafeERC20FailedOperation",
      "type": "error"
    },
    {
      "anonymous": false,
      "inputs": [
        {
          "indexed": true,
          "internalType": "address",
          "name": "owner",
          "type": "address"
        },
        {
          "indexed": true,
          "internalType": "address",
          "name": "approved",
          "type": "address"
        },
        {
          "indexed": true,
          "internalType": "uint256",
          "name": "tokenId",
          "type": "uint256"
        }
      ],
      "name": "Approval",
      "type": "event"
    },
    {
      "anonymous": false,
      "inputs": [
        {
          "indexed": true,
          "internalType": "address",
          "name": "owner",
          "type": "address"
        },
        {
          "indexed": true,
          "internalType": "address",
          "name": "operator",
          "type": "address"
        },
        {
          "indexed": false,
          "internalType": "bool",
          "name": "approved",
          "type": "bool"
        }
      ],
      "name": "ApprovalForAll",
      "type": "event"
    },
    {
      "anonymous": false,
      "inputs": [
        {
          "indexed": true,
          "internalType": "uint256",
          "name": "depositId",
          "type": "uint256"
        },
        {
          "indexed": false,
          "internalType": "uint256",
          "name": "principal",
          "type": "uint256"
        },
        {
          "indexed": false,
          "internalType": "uint256",
          "name": "penalty",
          "type": "uint256"
        }
      ],
      "name": "DepositEarlyWithdrawn",
      "type": "event"
    },
    {
      "anonymous": false,
      "inputs": [
        {
          "indexed": true,
          "internalType": "uint256",
          "name": "depositId",
          "type": "uint256"
        },
        {
          "indexed": true,
          "internalType": "uint256",
          "name": "planId",
          "type": "uint256"
        },
        {
          "indexed": false,
          "internalType": "address",
          "name": "owner",
          "type": "address"
        },
        {
          "indexed": false,
          "internalType": "uint256",
          "name": "principal",
          "type": "uint256"
        },
        {
          "indexed": false,
          "internalType": "uint256",
          "name": "maturityAt",
          "type": "uint256"
        }
      ],
      "name": "DepositOpened",
      "type": "event"
    },
    {
      "anonymous": false,
      "inputs": [
        {
          "indexed": true,
          "internalType": "uint256",
          "name": "depositId",
          "type": "uint256"
        },
        {
          "indexed": false,
          "internalType": "uint256",
          "name": "withdrawAmount",
          "type": "uint256"
        },
        {
          "indexed": false,
          "internalType": "uint256",
          "name": "penalty",
          "type": "uint256"
        }
      ],
      "name": "DepositPartialEarlyWithdrawn",
      "type": "event"
    },
    {
      "anonymous": false,
      "inputs": [
        {
          "indexed": true,
          "internalType": "uint256",
          "name": "oldDepositId",
          "type": "uint256"
        },
        {
          "indexed": true,
          "internalType": "uint256",
          "name": "newDepositId",
          "type": "uint256"
        },
        {
          "indexed": false,
          "internalType": "uint256",
          "name": "newPrincipal",
          "type": "uint256"
        }
      ],
      "name": "DepositRenewed",
      "type": "event"
    },
    {
      "anonymous": false,
      "inputs": [
        {
          "indexed": true,
          "internalType": "uint256",
          "name": "depositId",
          "type": "uint256"
        },
        {
          "indexed": false,
          "internalType": "uint256",
          "name": "principal",
          "type": "uint256"
        },
        {
          "indexed": false,
          "internalType": "uint256",
          "name": "interest",
          "type": "uint256"
        }
      ],
      "name": "DepositWithdrawn",
      "type": "event"
    },
    {
      "anonymous": false,
      "inputs": [
        {
          "indexed": false,
          "internalType": "address",
          "name": "oldReceiver",
          "type": "address"
        },
        {
          "indexed": false,
          "internalType": "address",
          "name": "newReceiver",
          "type": "address"
        }
      ],
      "name": "FeeReceiverUpdated",
      "type": "event"
    },
    {
      "anonymous": false,
      "inputs": [
        {
          "indexed": true,
          "internalType": "address",
          "name": "previousOwner",
          "type": "address"
        },
        {
          "indexed": true,
          "internalType": "address",
          "name": "newOwner",
          "type": "address"
        }
      ],
      "name": "OwnershipTransferred",
      "type": "event"
    },
    {
      "anonymous": false,
      "inputs": [
        {
          "indexed": false,
          "internalType": "address",
          "name": "account",
          "type": "address"
        }
      ],
      "name": "Paused",
      "type": "event"
    },
    {
      "anonymous": false,
      "inputs": [
        {
          "indexed": true,
          "internalType": "uint256",
          "name": "planId",
          "type": "uint256"
        },
        {
          "indexed": false,
          "internalType": "uint256",
          "name": "oldApr",
          "type": "uint256"
        },
        {
          "indexed": false,
          "internalType": "uint256",
          "name": "newApr",
          "type": "uint256"
        }
      ],
      "name": "PlanAprUpdated",
      "type": "event"
    },
    {
      "anonymous": false,
      "inputs": [
        {
          "indexed": true,
          "internalType": "uint256",
          "name": "planId",
          "type": "uint256"
        },
        {
          "indexed": false,
          "internalType": "uint256",
          "name": "tenorDays",
          "type": "uint256"
        },
        {
          "indexed": false,
          "internalType": "uint256",
          "name": "aprBps",
          "type": "uint256"
        },
        {
          "indexed": false,
          "internalType": "uint256",
          "name": "minDeposit",
          "type": "uint256"
        },
        {
          "indexed": false,
          "internalType": "uint256",
          "name": "maxDeposit",
          "type": "uint256"
        },
        {
          "indexed": false,
          "internalType": "uint256",
          "name": "penaltyBps",
          "type": "uint256"
        }
      ],
      "name": "PlanCreated",
      "type": "event"
    },
    {
      "anonymous": false,
      "inputs": [
        {
          "indexed": true,
          "internalType": "uint256",
          "name": "planId",
          "type": "uint256"
        }
      ],
      "name": "PlanDisabled",
      "type": "event"
    },
    {
      "anonymous": false,
      "inputs": [
        {
          "indexed": true,
          "internalType": "uint256",
          "name": "planId",
          "type": "uint256"
        }
      ],
      "name": "PlanEnabled",
      "type": "event"
    },
    {
      "anonymous": false,
      "inputs": [
        {
          "indexed": true,
          "internalType": "address",
          "name": "from",
          "type": "address"
        },
        {
          "indexed": true,
          "internalType": "address",
          "name": "to",
          "type": "address"
        },
        {
          "indexed": true,
          "internalType": "uint256",
          "name": "tokenId",
          "type": "uint256"
        }
      ],
      "name": "Transfer",
      "type": "event"
    },
    {
      "anonymous": false,
      "inputs": [
        {
          "indexed": false,
          "internalType": "address",
          "name": "account",
          "type": "address"
        }
      ],
      "name": "Unpaused",
      "type": "event"
    },
    {
      "inputs": [],
      "name": "BPS_DENOMINATOR",
      "outputs": [
        {
          "internalType": "uint256",
          "name": "",
          "type": "uint256"
        }
      ],
      "stateMutability": "view",
      "type": "function"
    },
    {
      "inputs": [],
      "name": "GRACE_PERIOD_DAYS",
      "outputs": [
        {
          "internalType": "uint256",
          "name": "",
          "type": "uint256"
        }
      ],
      "stateMutability": "view",
      "type": "function"
    },
    {
      "inputs": [],
      "name": "SECONDS_PER_YEAR",
      "outputs": [
        {
          "internalType": "uint256",
          "name": "",
          "type": "uint256"
        }
      ],
      "stateMutability": "view",
      "type": "function"
    },
    {
      "inputs": [
        {
          "internalType": "address",
          "name": "to",
          "type": "address"
        },
        {
          "internalType": "uint256",
          "name": "tokenId",
          "type": "uint256"
        }
      ],
      "name": "approve",
      "outputs": [],
      "stateMutability": "nonpayable",
      "type": "function"
    },
    {
      "inputs": [
        {
          "internalType": "uint256",
          "name": "depositId",
          "type": "uint256"
        }
      ],
      "name": "autoRenewDeposit",
      "outputs": [
        {
          "internalType": "uint256",
          "name": "",
          "type": "uint256"
        }
      ],
      "stateMutability": "nonpayable",
      "type": "function"
    },
    {
      "inputs": [
        {
          "internalType": "address",
          "name": "owner",
          "type": "address"
        }
      ],
      "name": "balanceOf",
      "outputs": [
        {
          "internalType": "uint256",
          "name": "",
          "type": "uint256"
        }
      ],
      "stateMutability": "view",
      "type": "function"
    },
    {
      "inputs": [
        {
          "internalType": "uint256",
          "name": "principal",
          "type": "uint256"
        },
        {
          "internalType": "uint256",
          "name": "aprBps",
          "type": "uint256"
        },
        {
          "internalType": "uint256",
          "name": "tenorSeconds",
          "type": "uint256"
        }
      ],
      "name": "calculateInterest",
      "outputs": [
        {
          "internalType": "uint256",
          "name": "",
          "type": "uint256"
        }
      ],
      "stateMutability": "pure",
      "type": "function"
    },
    {
      "inputs": [
        {
          "internalType": "uint256",
          "name": "tenorDays",
          "type": "uint256"
        },
        {
          "internalType": "uint256",
          "name": "aprBps",
          "type": "uint256"
        },
        {
          "internalType": "uint256",
          "name": "minDeposit",
          "type": "uint256"
        },
        {
          "internalType": "uint256",
          "name": "maxDeposit",
          "type": "uint256"
        },
        {
          "internalType": "uint256",
          "name": "earlyWithdrawPenaltyBps",
          "type": "uint256"
        }
      ],
      "name": "createPlan",
      "outputs": [
        {
          "internalType": "uint256",
          "name": "",
          "type": "uint256"
        }
      ],
      "stateMutability": "nonpayable",
      "type": "function"
    },
    {
      "inputs": [],
      "name": "depositCount",
      "outputs": [
        {
          "internalType": "uint256",
          "name": "",
          "type": "uint256"
        }
      ],
      "stateMutability": "view",
      "type": "function"
    },
    {
      "inputs": [
        {
          "internalType": "uint256",
          "name": "",
          "type": "uint256"
        }
      ],
      "name": "deposits",
      "outputs": [
        {
          "internalType": "uint256",
          "name": "planId",
          "type": "uint256"
        },
        {
          "internalType": "address",
          "name": "owner",
          "type": "address"
        },
        {
          "internalType": "uint256",
          "name": "principal",
          "type": "uint256"
        },
        {
          "internalType": "uint256",
          "name": "startAt",
          "type": "uint256"
        },
        {
          "internalType": "uint256",
          "name": "maturityAt",
          "type": "uint256"
        },
        {
          "internalType": "uint256",
          "name": "aprBpsAtOpen",
          "type": "uint256"
        },
        {
          "internalType": "uint256",
          "name": "penaltyBpsAtOpen",
          "type": "uint256"
        },
        {
          "internalType": "enum SavingCore.DepositStatus",
          "name": "status",
          "type": "uint8"
        }
      ],
      "stateMutability": "view",
      "type": "function"
    },
    {
      "inputs": [
        {
          "internalType": "uint256",
          "name": "planId",
          "type": "uint256"
        }
      ],
      "name": "disablePlan",
      "outputs": [],
      "stateMutability": "nonpayable",
      "type": "function"
    },
    {
      "inputs": [
        {
          "internalType": "uint256",
          "name": "depositId",
          "type": "uint256"
        }
      ],
      "name": "earlyWithdraw",
      "outputs": [],
      "stateMutability": "nonpayable",
      "type": "function"
    },
    {
      "inputs": [
        {
          "internalType": "uint256",
          "name": "planId",
          "type": "uint256"
        }
      ],
      "name": "enablePlan",
      "outputs": [],
      "stateMutability": "nonpayable",
      "type": "function"
    },
    {
      "inputs": [],
      "name": "feeReceiver",
      "outputs": [
        {
          "internalType": "address",
          "name": "",
          "type": "address"
        }
      ],
      "stateMutability": "view",
      "type": "function"
    },
    {
      "inputs": [
        {
          "internalType": "uint256",
          "name": "tokenId",
          "type": "uint256"
        }
      ],
      "name": "getApproved",
      "outputs": [
        {
          "internalType": "address",
          "name": "",
          "type": "address"
        }
      ],
      "stateMutability": "view",
      "type": "function"
    },
    {
      "inputs": [
        {
          "internalType": "uint256",
          "name": "depositId",
          "type": "uint256"
        }
      ],
      "name": "getDeposit",
      "outputs": [
        {
          "components": [
            {
              "internalType": "uint256",
              "name": "planId",
              "type": "uint256"
            },
            {
              "internalType": "address",
              "name": "owner",
              "type": "address"
            },
            {
              "internalType": "uint256",
              "name": "principal",
              "type": "uint256"
            },
            {
              "internalType": "uint256",
              "name": "startAt",
              "type": "uint256"
            },
            {
              "internalType": "uint256",
              "name": "maturityAt",
              "type": "uint256"
            },
            {
              "internalType": "uint256",
              "name": "aprBpsAtOpen",
              "type": "uint256"
            },
            {
              "internalType": "uint256",
              "name": "penaltyBpsAtOpen",
              "type": "uint256"
            },
            {
              "internalType": "enum SavingCore.DepositStatus",
              "name": "status",
              "type": "uint8"
            }
          ],
          "internalType": "struct SavingCore.Deposit",
          "name": "",
          "type": "tuple"
        }
      ],
      "stateMutability": "view",
      "type": "function"
    },
    {
      "inputs": [
        {
          "internalType": "uint256",
          "name": "planId",
          "type": "uint256"
        }
      ],
      "name": "getPlan",
      "outputs": [
        {
          "components": [
            {
              "internalType": "uint256",
              "name": "tenorDays",
              "type": "uint256"
            },
            {
              "internalType": "uint256",
              "name": "aprBps",
              "type": "uint256"
            },
            {
              "internalType": "uint256",
              "name": "minDeposit",
              "type": "uint256"
            },
            {
              "internalType": "uint256",
              "name": "maxDeposit",
              "type": "uint256"
            },
            {
              "internalType": "uint256",
              "name": "earlyWithdrawPenaltyBps",
              "type": "uint256"
            },
            {
              "internalType": "bool",
              "name": "enabled",
              "type": "bool"
            }
          ],
          "internalType": "struct SavingCore.Plan",
          "name": "",
          "type": "tuple"
        }
      ],
      "stateMutability": "view",
      "type": "function"
    },
    {
      "inputs": [
        {
          "internalType": "address",
          "name": "user",
          "type": "address"
        }
      ],
      "name": "getUserDeposits",
      "outputs": [
        {
          "internalType": "uint256[]",
          "name": "",
          "type": "uint256[]"
        }
      ],
      "stateMutability": "view",
      "type": "function"
    },
    {
      "inputs": [
        {
          "internalType": "address",
          "name": "owner",
          "type": "address"
        },
        {
          "internalType": "address",
          "name": "operator",
          "type": "address"
        }
      ],
      "name": "isApprovedForAll",
      "outputs": [
        {
          "internalType": "bool",
          "name": "",
          "type": "bool"
        }
      ],
      "stateMutability": "view",
      "type": "function"
    },
    {
      "inputs": [],
      "name": "name",
      "outputs": [
        {
          "internalType": "string",
          "name": "",
          "type": "string"
        }
      ],
      "stateMutability": "view",
      "type": "function"
    },
    {
      "inputs": [
        {
          "internalType": "uint256",
          "name": "planId",
          "type": "uint256"
        },
        {
          "internalType": "uint256",
          "name": "amount",
          "type": "uint256"
        }
      ],
      "name": "openDeposit",
      "outputs": [
        {
          "internalType": "uint256",
          "name": "",
          "type": "uint256"
        }
      ],
      "stateMutability": "nonpayable",
      "type": "function"
    },
    {
      "inputs": [],
      "name": "owner",
      "outputs": [
        {
          "internalType": "address",
          "name": "",
          "type": "address"
        }
      ],
      "stateMutability": "view",
      "type": "function"
    },
    {
      "inputs": [
        {
          "internalType": "uint256",
          "name": "tokenId",
          "type": "uint256"
        }
      ],
      "name": "ownerOf",
      "outputs": [
        {
          "internalType": "address",
          "name": "",
          "type": "address"
        }
      ],
      "stateMutability": "view",
      "type": "function"
    },
    {
      "inputs": [
        {
          "internalType": "uint256",
          "name": "depositId",
          "type": "uint256"
        },
        {
          "internalType": "uint256",
          "name": "withdrawAmount",
          "type": "uint256"
        }
      ],
      "name": "partialEarlyWithdraw",
      "outputs": [],
      "stateMutability": "nonpayable",
      "type": "function"
    },
    {
      "inputs": [],
      "name": "pause",
      "outputs": [],
      "stateMutability": "nonpayable",
      "type": "function"
    },
    {
      "inputs": [],
      "name": "paused",
      "outputs": [
        {
          "internalType": "bool",
          "name": "",
          "type": "bool"
        }
      ],
      "stateMutability": "view",
      "type": "function"
    },
    {
      "inputs": [],
      "name": "planCount",
      "outputs": [
        {
          "internalType": "uint256",
          "name": "",
          "type": "uint256"
        }
      ],
      "stateMutability": "view",
      "type": "function"
    },
    {
      "inputs": [
        {
          "internalType": "uint256",
          "name": "",
          "type": "uint256"
        }
      ],
      "name": "plans",
      "outputs": [
        {
          "internalType": "uint256",
          "name": "tenorDays",
          "type": "uint256"
        },
        {
          "internalType": "uint256",
          "name": "aprBps",
          "type": "uint256"
        },
        {
          "internalType": "uint256",
          "name": "minDeposit",
          "type": "uint256"
        },
        {
          "internalType": "uint256",
          "name": "maxDeposit",
          "type": "uint256"
        },
        {
          "internalType": "uint256",
          "name": "earlyWithdrawPenaltyBps",
          "type": "uint256"
        },
        {
          "internalType": "bool",
          "name": "enabled",
          "type": "bool"
        }
      ],
      "stateMutability": "view",
      "type": "function"
    },
    {
      "inputs": [
        {
          "internalType": "uint256",
          "name": "depositId",
          "type": "uint256"
        },
        {
          "internalType": "uint256",
          "name": "newPlanId",
          "type": "uint256"
        }
      ],
      "name": "renewDeposit",
      "outputs": [
        {
          "internalType": "uint256",
          "name": "",
          "type": "uint256"
        }
      ],
      "stateMutability": "nonpayable",
      "type": "function"
    },
    {
      "inputs": [],
      "name": "renounceOwnership",
      "outputs": [],
      "stateMutability": "nonpayable",
      "type": "function"
    },
    {
      "inputs": [
        {
          "internalType": "address",
          "name": "from",
          "type": "address"
        },
        {
          "internalType": "address",
          "name": "to",
          "type": "address"
        },
        {
          "internalType": "uint256",
          "name": "tokenId",
          "type": "uint256"
        }
      ],
      "name": "safeTransferFrom",
      "outputs": [],
      "stateMutability": "nonpayable",
      "type": "function"
    },
    {
      "inputs": [
        {
          "internalType": "address",
          "name": "from",
          "type": "address"
        },
        {
          "internalType": "address",
          "name": "to",
          "type": "address"
        },
        {
          "internalType": "uint256",
          "name": "tokenId",
          "type": "uint256"
        },
        {
          "internalType": "bytes",
          "name": "data",
          "type": "bytes"
        }
      ],
      "name": "safeTransferFrom",
      "outputs": [],
      "stateMutability": "nonpayable",
      "type": "function"
    },
    {
      "inputs": [
        {
          "internalType": "address",
          "name": "operator",
          "type": "address"
        },
        {
          "internalType": "bool",
          "name": "approved",
          "type": "bool"
        }
      ],
      "name": "setApprovalForAll",
      "outputs": [],
      "stateMutability": "nonpayable",
      "type": "function"
    },
    {
      "inputs": [
        {
          "internalType": "address",
          "name": "newReceiver",
          "type": "address"
        }
      ],
      "name": "setFeeReceiver",
      "outputs": [],
      "stateMutability": "nonpayable",
      "type": "function"
    },
    {
      "inputs": [
        {
          "internalType": "uint256",
          "name": "tokenId",
          "type": "uint256"
        },
        {
          "internalType": "string",
          "name": "uri",
          "type": "string"
        }
      ],
      "name": "setTokenURI",
      "outputs": [],
      "stateMutability": "nonpayable",
      "type": "function"
    },
    {
      "inputs": [
        {
          "internalType": "bytes4",
          "name": "interfaceId",
          "type": "bytes4"
        }
      ],
      "name": "supportsInterface",
      "outputs": [
        {
          "internalType": "bool",
          "name": "",
          "type": "bool"
        }
      ],
      "stateMutability": "view",
      "type": "function"
    },
    {
      "inputs": [],
      "name": "symbol",
      "outputs": [
        {
          "internalType": "string",
          "name": "",
          "type": "string"
        }
      ],
      "stateMutability": "view",
      "type": "function"
    },
    {
      "inputs": [
        {
          "internalType": "uint256",
          "name": "tokenId",
          "type": "uint256"
        }
      ],
      "name": "tokenURI",
      "outputs": [
        {
          "internalType": "string",
          "name": "",
          "type": "string"
        }
      ],
      "stateMutability": "view",
      "type": "function"
    },
    {
      "inputs": [
        {
          "internalType": "address",
          "name": "from",
          "type": "address"
        },
        {
          "internalType": "address",
          "name": "to",
          "type": "address"
        },
        {
          "internalType": "uint256",
          "name": "tokenId",
          "type": "uint256"
        }
      ],
      "name": "transferFrom",
      "outputs": [],
      "stateMutability": "nonpayable",
      "type": "function"
    },
    {
      "inputs": [
        {
          "internalType": "address",
          "name": "newOwner",
          "type": "address"
        }
      ],
      "name": "transferOwnership",
      "outputs": [],
      "stateMutability": "nonpayable",
      "type": "function"
    },
    {
      "inputs": [],
      "name": "unpause",
      "outputs": [],
      "stateMutability": "nonpayable",
      "type": "function"
    },
    {
      "inputs": [
        {
          "internalType": "uint256",
          "name": "planId",
          "type": "uint256"
        },
        {
          "internalType": "uint256",
          "name": "newAprBps",
          "type": "uint256"
        }
      ],
      "name": "updatePlanApr",
      "outputs": [],
      "stateMutability": "nonpayable",
      "type": "function"
    },
    {
      "inputs": [],
      "name": "usdc",
      "outputs": [
        {
          "internalType": "contract IERC20",
          "name": "",
          "type": "address"
        }
      ],
      "stateMutability": "view",
      "type": "function"
    },
    {
      "inputs": [],
      "name": "vaultManager",
      "outputs": [
        {
          "internalType": "contract VaultManager",
          "name": "",
          "type": "address"
        }
      ],
      "stateMutability": "view",
      "type": "function"
    },
    {
      "inputs": [
        {
          "internalType": "uint256",
          "name": "depositId",
          "type": "uint256"
        }
      ],
      "name": "withdrawAtMaturity",
      "outputs": [],
      "stateMutability": "nonpayable",
      "type": "function"
    },
    {
      "stateMutability": "payable",
      "type": "receive"
    }
  ],
  "bytecode": "0x60c060405234801561000f575f5ffd5b506040516141a33803806141a383398101604081905261002e9161027c565b3360405180604001604052806011815260200170536176696e67436572746966696361746560781b8152506040518060400160405280600581526020016414d0d1549560da1b815250815f90816100859190610354565b5060016100928282610354565b5050506001600160a01b0381166100c357604051631e4fbdf760e01b81525f60048201526024015b60405180910390fd5b6100cc81610210565b5060017f9b779b17422d0df92223018b32b4d1fa46e071723d6817e2486d003becc55f00556001600160a01b0383166101365760405162461bcd60e51b815260206004820152600c60248201526b496e76616c6964205553444360a01b60448201526064016100ba565b6001600160a01b03821661018c5760405162461bcd60e51b815260206004820152601460248201527f496e76616c6964205661756c744d616e6167657200000000000000000000000060448201526064016100ba565b6001600160a01b0381166101e25760405162461bcd60e51b815260206004820152601360248201527f496e76616c69642066656552656365697665720000000000000000000000000060448201526064016100ba565b6001600160a01b0392831660a052908216608052600780546001600160a01b0319169190921617905561040e565b600680546001600160a01b038381166001600160a01b0319831681179093556040519116919082907f8be0079c531659141344cd1fd0a4f28419497f9722a3daafe3b4186f6b6457e0905f90a35050565b80516001600160a01b0381168114610277575f5ffd5b919050565b5f5f5f6060848603121561028e575f5ffd5b61029784610261565b92506102a560208501610261565b91506102b360408501610261565b90509250925092565b634e487b7160e01b5f52604160045260245ffd5b600181811c908216806102e457607f821691505b60208210810361030257634e487b7160e01b5f52602260045260245ffd5b50919050565b601f82111561034f57805f5260205f20601f840160051c8101602085101561032d5750805b601f840160051c820191505b8181101561034c575f8155600101610339565b50505b505050565b81516001600160401b0381111561036d5761036d6102bc565b6103818161037b84546102d0565b84610308565b6020601f8211600181146103b3575f831561039c5750848201515b5f19600385901b1c1916600184901b17845561034c565b5f84815260208120601f198516915b828110156103e257878501518255602094850194600190920191016103c2565b50848210156103ff57868401515f19600387901b60f8161c191681555b50505050600190811b01905550565b60805160a051613cef6104b45f395f81816104a10152611d0c01525f818161060701528181610d1001528181610e4e01528181611012015281816116ae01528181611774015281816117ea01528181611d2f01528181611d6a01528181611e03015281816121290152818161219f015281816122350152818161249a015281816125250152818161270b01528181612a0401528181612a860152612b090152613cef5ff3fe60806040526004361061026d575f3560e01c8063715018a61161014a578063b1620616116100be578063d68b395211610078578063d68b395214610870578063e1a452181461088f578063e6a69ab8146108a4578063e985e9c5146108bb578063efdcd974146108da578063f2fde38b146108f9575f5ffd5b8063b162061614610760578063b3f00674146107e0578063b88d4fde146107ff578063b9855d1d1461081e578063c87b56dd1461083d578063ccfae2011461085c575f5ffd5b806395d89b411161010f57806395d89b41146106465780639cacb6a41461065a5780639f9fb96814610679578063a22cb465146106a5578063b02c43d0146106c4578063b106c71514610741575f5ffd5b8063715018a6146105af5780638200a28f146105c35780638456cb59146105e25780638a4adf24146105f65780638da5cb5b14610629575f5ffd5b80632dfdf0b5116101e15780634970a50d116101a65780634970a50d146104f65780635c975abb146105155780636352211e146105335780636b5b9696146105525780636fc4e2d91461057157806370a0823114610590575f5ffd5b80632dfdf0b514610466578063382d39bb1461047b5780633e413bee146104905780633f4ba83a146104c357806342842e0e146104d7575f5ffd5b8063095ea7b311610232578063095ea7b3146103525780630a55ba5514610371578063162094c41461039057806323b872dd146103af57806326cd5274146103ce5780632a5bf6d21461043a575f5ffd5b806301ffc9a71461027857806305e1bd8c146102ac57806306fdde03146102d9578063081812fc146102fa57806308cff7e214610331575f5ffd5b3661027457005b5f5ffd5b348015610283575f5ffd5b50610297610292366004613544565b610918565b60405190151581526020015b60405180910390f35b3480156102b7575f5ffd5b506102cb6102c6366004613566565b610969565b6040519081526020016102a3565b3480156102e4575f5ffd5b506102ed6109a1565b6040516102a391906135bd565b348015610305575f5ffd5b506103196103143660046135cf565b610a30565b6040516001600160a01b0390911681526020016102a3565b34801561033c575f5ffd5b5061035061034b3660046135cf565b610a57565b005b34801561035d575f5ffd5b5061035061036c3660046135fc565b610b1e565b34801561037c575f5ffd5b506102cb61038b366004613624565b610b2d565b34801561039b575f5ffd5b506103506103aa3660046136cf565b6110d7565b3480156103ba575f5ffd5b506103506103c9366004613726565b611155565b3480156103d9575f5ffd5b506103ed6103e83660046135cf565b6111de565b6040516102a391905f60c082019050825182526020830151602083015260408301516040830152606083015160608301526080830151608083015260a0830151151560a083015292915050565b348015610445575f5ffd5b50610459610454366004613760565b611291565b6040516102a39190613779565b348015610471575f5ffd5b506102cb600b5481565b348015610486575f5ffd5b506102cb60095481565b34801561049b575f5ffd5b506103197f000000000000000000000000000000000000000000000000000000000000000081565b3480156104ce575f5ffd5b5061035061138e565b3480156104e2575f5ffd5b506103506104f1366004613726565b6113a0565b348015610501575f5ffd5b506102cb6105103660046137bb565b6113ba565b348015610520575f5ffd5b50600654600160a01b900460ff16610297565b34801561053e575f5ffd5b5061031961054d3660046135cf565b6115c3565b34801561055d575f5ffd5b5061035061056c3660046135cf565b6115cd565b34801561057c575f5ffd5b5061035061058b3660046135cf565b6118be565b34801561059b575f5ffd5b506102cb6105aa366004613760565b61197f565b3480156105ba575f5ffd5b506103506119c4565b3480156105ce575f5ffd5b506103506105dd366004613624565b6119d5565b3480156105ed575f5ffd5b50610350611aa1565b348015610601575f5ffd5b506103197f000000000000000000000000000000000000000000000000000000000000000081565b348015610634575f5ffd5b506006546001600160a01b0316610319565b348015610651575f5ffd5b506102ed611ab1565b348015610665575f5ffd5b506102cb610674366004613624565b611ac0565b348015610684575f5ffd5b506106986106933660046135cf565b611ef5565b6040516102a39190613826565b3480156106b0575f5ffd5b506103506106bf36600461388f565b611fc2565b3480156106cf575f5ffd5b5061072d6106de3660046135cf565b600a6020525f90815260409020805460018201546002830154600384015460048501546005860154600687015460079097015495966001600160a01b0390951695939492939192909160ff1688565b6040516102a39897969594939291906138c8565b34801561074c575f5ffd5b5061035061075b366004613624565b611fcd565b34801561076b575f5ffd5b506107b161077a3660046135cf565b60086020525f9081526040902080546001820154600283015460038401546004850154600590950154939492939192909160ff1686565b6040805196875260208701959095529385019290925260608401526080830152151560a082015260c0016102a3565b3480156107eb575f5ffd5b50600754610319906001600160a01b031681565b34801561080a575f5ffd5b5061035061081936600461391c565b612324565b348015610829575f5ffd5b506102cb6108383660046135cf565b61233c565b348015610848575f5ffd5b506102ed6108573660046135cf565b6127e4565b348015610867575f5ffd5b506102cb600381565b34801561087b575f5ffd5b5061035061088a3660046135cf565b6128dd565b34801561089a575f5ffd5b506102cb61271081565b3480156108af575f5ffd5b506102cb6301e1338081565b3480156108c6575f5ffd5b506102976108d5366004613993565b612bd9565b3480156108e5575f5ffd5b506103506108f4366004613760565b612c06565b348015610904575f5ffd5b50610350610913366004613760565b612cbf565b5f6001600160e01b031982166380ac58cd60e01b148061094857506001600160e01b03198216635b5e139f60e01b145b8061096357506301ffc9a760e01b6001600160e01b03198316145b92915050565b5f61097a6127106301e133806139d8565b8261098585876139d8565b61098f91906139d8565b61099991906139ef565b949350505050565b60605f80546109af90613a0e565b80601f01602080910402602001604051908101604052809291908181526020018280546109db90613a0e565b8015610a265780601f106109fd57610100808354040283529160200191610a26565b820191905f5260205f20905b815481529060010190602001808311610a0957829003601f168201915b5050505050905090565b5f610a3a82612cf9565b505f828152600460205260409020546001600160a01b0316610963565b610a5f612d31565b6009548110610a895760405162461bcd60e51b8152600401610a8090613a46565b60405180910390fd5b5f8181526008602052604090206005015460ff16610adc5760405162461bcd60e51b815260206004820152601060248201526f105b1c9958591e48191a5cd8589b195960821b6044820152606401610a80565b5f81815260086020526040808220600501805460ff191690555182917fb8e8c474ecb4c62992ecd0758ae63d861cd288bb6677ea65a2b783444a448ab691a250565b610b29828233612d5e565b5050565b5f610b36612d6b565b610b3e612d96565b600b548310610b5f5760405162461bcd60e51b8152600401610a8090613a73565b5f838152600a6020526040902060018101546001600160a01b03163314610b985760405162461bcd60e51b8152600401610a8090613aa3565b5f600782015460ff166003811115610bb257610bb26137f2565b14610bcf5760405162461bcd60e51b8152600401610a8090613acd565b8060040154421015610c155760405162461bcd60e51b815260206004820152600f60248201526e139bdd081e595d081b585d1d5c9959608a1b6044820152606401610a80565b6009548310610c665760405162461bcd60e51b815260206004820152601760248201527f4e657720706c616e20646f6573206e6f742065786973740000000000000000006044820152606401610a80565b5f8381526008602052604090206005015460ff16610cbd5760405162461bcd60e51b815260206004820152601460248201527313995dc81c1b185b881a5cc8191a5cd8589b195960621b6044820152606401610a80565b5f610cdf82600201548360050154846003015485600401546102c69190613af1565b90505f818360020154610cf29190613b04565b90508115610d705760405163e323140760e01b8152600481018390527f00000000000000000000000000000000000000000000000000000000000000006001600160a01b03169063e3231407906024015f604051808303815f87803b158015610d59575f5ffd5b505af1158015610d6b573d5f5f3e3d5ffd5b505050505b5f8581526008602052604090206002810154821015610dd15760405162461bcd60e51b815260206004820152601b60248201527f4e6577207072696e636970616c2062656c6f77206d696e696d756d00000000006044820152606401610a80565b60038101541580610de6575080600301548211155b610e325760405162461bcd60e51b815260206004820152601d60248201527f4e6577207072696e636970616c2065786365656473206d6178696d756d0000006044820152606401610a80565b8215610eae57604051635823114b60e11b8152600481018490527f00000000000000000000000000000000000000000000000000000000000000006001600160a01b03169063b0462296906024015f604051808303815f87803b158015610e97575f5ffd5b505af1158015610ea9573d5f5f3e3d5ffd5b505050505b60078401805460ff19166002179055610ec687612db1565b600b5481545f90610eda90620151806139d8565b610ee49042613b04565b60408051610100810182528a815233602080830191825282840189815242606085019081526080850187815260018b81015460a088019081526004808e015460c08a019081525f60e08b018181528f8252600a9099529a909a2089518155975188840180546001600160a01b0319166001600160a01b03909216919091179055945160028801559251600380880191909155915193860193909355905160058501559451600684015590516007830180549697509395929490939260ff191691908490811115610fb657610fb66137f2565b021790555050600b805491505f610fcc83613b17565b909155505082545f90610fe290620151806139d8565b90505f610ff486866001015484610969565b905080156110725760405163387a227960e01b8152600481018290527f00000000000000000000000000000000000000000000000000000000000000006001600160a01b03169063387a2279906024015f604051808303815f87803b15801561105b575f5ffd5b505af115801561106d573d5f5f3e3d5ffd5b505050505b61107c3385612de9565b838b7f5b95e9e5496cbb3bda0c0eb1bc596794a98fb922c2c540a4f668cf696d25a8e0886040516110af91815260200190565b60405180910390a35091965050505050505061096360015f516020613c9a5f395f51905f5255565b6110df612d31565b5f828152600260205260409020546001600160a01b03166111395760405162461bcd60e51b8152602060048201526014602482015273151bdad95b88191bd95cc81b9bdd08195e1a5cdd60621b6044820152606401610a80565b5f828152600c602052604090206111508282613b73565b505050565b6001600160a01b03821661117e57604051633250574960e11b81525f6004820152602401610a80565b5f61118a838333612e4a565b9050836001600160a01b0316816001600160a01b0316146111d8576040516364283d7b60e01b81526001600160a01b0380861660048301526024820184905282166044820152606401610a80565b50505050565b6112136040518060c001604052805f81526020015f81526020015f81526020015f81526020015f81526020015f151581525090565b60095482106112345760405162461bcd60e51b8152600401610a8090613a46565b505f90815260086020908152604091829020825160c08101845281548152600182015492810192909252600281015492820192909252600382015460608201526004820154608082015260059091015460ff16151560a082015290565b60605f805b600b548110156112d9575f818152600a60205260409020600101546001600160a01b038086169116036112d157816112cd81613b17565b9250505b600101611296565b505f8167ffffffffffffffff8111156112f4576112f4613644565b60405190808252806020026020018201604052801561131d578160200160208202803683370190505b5090505f805b600b54811015611384575f818152600a60205260409020600101546001600160a01b0380881691160361137c578083838151811061136357611363613c2e565b60209081029190910101528161137881613b17565b9250505b600101611323565b5090949350505050565b611396612d31565b61139e612f3c565b565b61115083838360405180602001604052805f815250612324565b5f6113c3612d31565b5f86116114065760405162461bcd60e51b8152602060048201526011602482015270054656e6f72206d757374206265203e203607c1b6044820152606401610a80565b5f8511801561141757506113888511155b6114515760405162461bcd60e51b815260206004820152600b60248201526a24b73b30b634b21020a82960a91b6044820152606401610a80565b6107d08211156114955760405162461bcd60e51b815260206004820152600f60248201526e496e76616c69642070656e616c747960881b6044820152606401610a80565b5f84116114dd5760405162461bcd60e51b815260206004820152601660248201527506d696e4465706f736974206d757374206265203e20360541b6044820152606401610a80565b600980546040805160c08101825289815260208082018a81528284018a8152606084018a8152608085018a8152600160a087018181525f8a81526008909752978620965187559351938601939093559051600285015551600384015551600483015591516005909101805460ff1916911515919091179055825491929061156383613b17565b90915550506040805188815260208101889052908101869052606081018590526080810184905281907fe34c36caaea611ba65a3775498a1ab167c7cf9272b319ab6f0ac00f43869cd949060a00160405180910390a29695505050505050565b5f61096382612cf9565b6115d5612d6b565b6115dd612d96565b600b5481106115fe5760405162461bcd60e51b8152600401610a8090613a73565b5f818152600a6020526040902060018101546001600160a01b031633146116375760405162461bcd60e51b8152600401610a8090613aa3565b5f600782015460ff166003811115611651576116516137f2565b1461166e5760405162461bcd60e51b8152600401610a8090613acd565b5f61169082600201548360050154846003015485600401546102c69190613af1565b9050801561170e5760405163e323140760e01b8152600481018290527f00000000000000000000000000000000000000000000000000000000000000006001600160a01b03169063e3231407906024015f604051808303815f87803b1580156116f7575f5ffd5b505af1158015611709573d5f5f3e3d5ffd5b505050505b5f6127108360060154846002015461172691906139d8565b61173091906139ef565b90505f8184600201546117439190613af1565b905081156117ce57600754604051631088b7a760e11b81526001600160a01b039182166004820152602481018490527f0000000000000000000000000000000000000000000000000000000000000000909116906321116f4e906044015f604051808303815f87803b1580156117b7575f5ffd5b505af11580156117c9573d5f5f3e3d5ffd5b505050505b604051631088b7a760e11b8152336004820152602481018290527f00000000000000000000000000000000000000000000000000000000000000006001600160a01b0316906321116f4e906044015f604051808303815f87803b158015611833575f5ffd5b505af1158015611845573d5f5f3e3d5ffd5b5050505060078401805460ff1916600117905561186185612db1565b6002840154604080519182526020820184905286917f63fe528d963a28c0f66efc891676e0338c7850b09fb89177ffe98b8d59ecfa6a910160405180910390a2505050506118bb60015f516020613c9a5f395f51905f5255565b50565b6118c6612d31565b60095481106118e75760405162461bcd60e51b8152600401610a8090613a46565b5f8181526008602052604090206005015460ff161561193a5760405162461bcd60e51b815260206004820152600f60248201526e105b1c9958591e48195b98589b1959608a1b6044820152606401610a80565b5f81815260086020526040808220600501805460ff191660011790555182917fb612d30e3c65a1caa935f7d17e7932c14e41c1410d52b8bc355f937b46e257f791a250565b5f6001600160a01b0382166119a9576040516322718ad960e21b81525f6004820152602401610a80565b506001600160a01b03165f9081526003602052604090205490565b6119cc612d31565b61139e5f612f91565b6119dd612d31565b60095482106119fe5760405162461bcd60e51b8152600401610a8090613a46565b5f81118015611a0f57506113888111155b611a495760405162461bcd60e51b815260206004820152600b60248201526a24b73b30b634b21020a82960a91b6044820152606401610a80565b5f8281526008602090815260409182902060010180549084905582518181529182018490529184917f1fefc24cbb423864a93b606c617356cf87aa45c71726f7cbdbfa5ae10a1a280e910160405180910390a2505050565b611aa9612d31565b61139e612fe2565b6060600180546109af90613a0e565b5f611ac9612d6b565b611ad1612d96565b6009548310611af25760405162461bcd60e51b8152600401610a8090613a46565b5f838152600860205260409020600581015460ff16611b465760405162461bcd60e51b815260206004820152601060248201526f141b185b881a5cc8191a5cd8589b195960821b6044820152606401610a80565b8060020154831015611b925760405162461bcd60e51b815260206004820152601560248201527410995b1bddc81b5a5b9a5b5d5b4819195c1bdcda5d605a1b6044820152606401610a80565b60038101541580611ba7575080600301548311155b611bf35760405162461bcd60e51b815260206004820152601760248201527f45786365656473206d6178696d756d206465706f7369740000000000000000006044820152606401610a80565b600b5481545f90611c0790620151806139d8565b611c119042613b04565b60408051610100810182528881523360208083019182528284018a815242606085019081526080850187815260018b81015460a088019081526004808e015460c08a019081525f60e08b018181528f8252600a9099529a909a2089518155975188840180546001600160a01b0319166001600160a01b03909216919091179055945160028801559251600380880191909155915193860193909355905160058501559451600684015590516007830180549697509395929490939260ff191691908490811115611ce357611ce36137f2565b021790555050600b805491505f611cf983613b17565b90915550611d5490506001600160a01b037f000000000000000000000000000000000000000000000000000000000000000016337f000000000000000000000000000000000000000000000000000000000000000088613025565b604051635823114b60e11b8152600481018690527f00000000000000000000000000000000000000000000000000000000000000006001600160a01b03169063b0462296906024015f604051808303815f87803b158015611db3575f5ffd5b505af1158015611dc5573d5f5f3e3d5ffd5b505050505f611de5868560010154865f0154620151806102c691906139d8565b90508015611e635760405163387a227960e01b8152600481018290527f00000000000000000000000000000000000000000000000000000000000000006001600160a01b03169063387a2279906024015f604051808303815f87803b158015611e4c575f5ffd5b505af1158015611e5e573d5f5f3e3d5ffd5b505050505b611e6d3384612de9565b60408051602080820183525f808352868152600c9091529190912090611e939082613b73565b506040805133815260208101889052908101839052879084907fe13e57366a41b2856b4e4e2f131f25a47635de3be64056b257fd5901ea3c43649060600160405180910390a350909250505061096360015f516020613c9a5f395f51905f5255565b611efd6134d9565b600b548210611f1e5760405162461bcd60e51b8152600401610a8090613a73565b5f828152600a60209081526040918290208251610100810184528154815260018201546001600160a01b031692810192909252600281015492820192909252600380830154606083015260048301546080830152600583015460a0830152600683015460c0830152600783015491929160e084019160ff90911690811115611fa857611fa86137f2565b6003811115611fb957611fb96137f2565b90525092915050565b610b2933838361305b565b611fd5612d6b565b611fdd612d96565b600b548210611ffe5760405162461bcd60e51b8152600401610a8090613a73565b5f828152600a6020526040902060018101546001600160a01b031633146120375760405162461bcd60e51b8152600401610a8090613aa3565b5f600782015460ff166003811115612051576120516137f2565b1461206e5760405162461bcd60e51b8152600401610a8090613acd565b5f82118015612081575080600201548211155b6120cd5760405162461bcd60e51b815260206004820152601760248201527f496e76616c696420776974686472617720616d6f756e740000000000000000006044820152606401610a80565b5f6127108260060154846120e191906139d8565b6120eb91906139ef565b90505f6120f88285613af1565b9050811561218357600754604051631088b7a760e11b81526001600160a01b039182166004820152602481018490527f0000000000000000000000000000000000000000000000000000000000000000909116906321116f4e906044015f604051808303815f87803b15801561216c575f5ffd5b505af115801561217e573d5f5f3e3d5ffd5b505050505b604051631088b7a760e11b8152336004820152602481018290527f00000000000000000000000000000000000000000000000000000000000000006001600160a01b0316906321116f4e906044015f604051808303815f87803b1580156121e8575f5ffd5b505af11580156121fa573d5f5f3e3d5ffd5b505050505f61221c858560050154866003015487600401546102c69190613af1565b60405163e323140760e01b8152600481018290529091507f00000000000000000000000000000000000000000000000000000000000000006001600160a01b03169063e3231407906024015f604051808303815f87803b15801561227e575f5ffd5b505af1158015612290573d5f5f3e3d5ffd5b5050505084846002015f8282546122a79190613af1565b909155505060028401545f036122cf5760078401805460ff191660011790556122cf86612db1565b604080518681526020810185905287917f369f0b4f2587f115a13de09fdfa4d094143544b08cf27b2a402827fe8c0ac8b8910160405180910390a250505050610b2960015f516020613c9a5f395f51905f5255565b61232f848484611155565b6111d83385858585613122565b5f612345612d6b565b61234d612d96565b600b54821061236e5760405162461bcd60e51b8152600401610a8090613a73565b5f828152600a6020526040902060018101546001600160a01b031633146123a75760405162461bcd60e51b8152600401610a8090613aa3565b5f600782015460ff1660038111156123c1576123c16137f2565b146123de5760405162461bcd60e51b8152600401610a8090613acd565b5f6123ed6003620151806139d8565b82600401546123fc9190613b04565b9050804210156124475760405162461bcd60e51b815260206004820152601660248201527511dc9858d9481c195c9a5bd9081b9bdd08195b99195960521b6044820152606401610a80565b5f61246983600201548460050154856003015486600401546102c69190613af1565b90505f81846002015461247c9190613b04565b905081156124fa5760405163e323140760e01b8152600481018390527f00000000000000000000000000000000000000000000000000000000000000006001600160a01b03169063e3231407906024015f604051808303815f87803b1580156124e3575f5ffd5b505af11580156124f5573d5f5f3e3d5ffd5b505050505b83545f908152600860205260409020821561258557604051635823114b60e11b8152600481018490527f00000000000000000000000000000000000000000000000000000000000000006001600160a01b03169063b0462296906024015f604051808303815f87803b15801561256e575f5ffd5b505af1158015612580573d5f5f3e3d5ffd5b505050505b60078501805460ff1916600317905561259d87612db1565b600b5481545f906125b190620151806139d8565b6125bb9042613b04565b60408051610100810182528954815260018a01546001600160a01b0316602082015290810186905242606082015260808101829052600589015460a0820152600689015460c082015290915060e081015f815250600a5f8481526020019081526020015f205f820151815f01556020820151816001015f6101000a8154816001600160a01b0302191690836001600160a01b0316021790555060408201518160020155606082015181600301556080820151816004015560a0820151816005015560c0820151816006015560e0820151816007015f6101000a81548160ff021916908360038111156126af576126af6137f2565b021790555050600b805491505f6126c583613b17565b909155505082545f906126db90620151806139d8565b90505f6126ed868a6005015484610969565b9050801561276b5760405163387a227960e01b8152600481018290527f00000000000000000000000000000000000000000000000000000000000000006001600160a01b03169063387a2279906024015f604051808303815f87803b158015612754575f5ffd5b505af1158015612766573d5f5f3e3d5ffd5b505050505b6001890154612783906001600160a01b031685612de9565b838b7f5b95e9e5496cbb3bda0c0eb1bc596794a98fb922c2c540a4f668cf696d25a8e0886040516127b691815260200190565b60405180910390a350919750505050505050506127df60015f516020613c9a5f395f51905f5255565b919050565b5f818152600260205260409020546060906001600160a01b03166128415760405162461bcd60e51b8152602060048201526014602482015273151bdad95b88191bd95cc81b9bdd08195e1a5cdd60621b6044820152606401610a80565b5f828152600c60205260408120805461285990613a0e565b80601f016020809104026020016040519081016040528092919081815260200182805461288590613a0e565b80156128d05780601f106128a7576101008083540402835291602001916128d0565b820191905f5260205f20905b8154815290600101906020018083116128b357829003601f168201915b5093979650505050505050565b6128e5612d6b565b6128ed612d96565b600b54811061290e5760405162461bcd60e51b8152600401610a8090613a73565b5f818152600a6020526040902060018101546001600160a01b031633146129475760405162461bcd60e51b8152600401610a8090613aa3565b5f600782015460ff166003811115612961576129616137f2565b1461297e5760405162461bcd60e51b8152600401610a8090613acd565b80600401544210156129c45760405162461bcd60e51b815260206004820152600f60248201526e139bdd081e595d081b585d1d5c9959608a1b6044820152606401610a80565b5f6129e682600201548360050154846003015485600401546102c69190613af1565b90508015612a645760405163e323140760e01b8152600481018290527f00000000000000000000000000000000000000000000000000000000000000006001600160a01b03169063e3231407906024015f604051808303815f87803b158015612a4d575f5ffd5b505af1158015612a5f573d5f5f3e3d5ffd5b505050505b6002820154604051631088b7a760e11b815233600482015260248101919091527f00000000000000000000000000000000000000000000000000000000000000006001600160a01b0316906321116f4e906044015f604051808303815f87803b158015612acf575f5ffd5b505af1158015612ae1573d5f5f3e3d5ffd5b505050505f811115612b6957604051635b730e6960e01b8152336004820152602481018290527f00000000000000000000000000000000000000000000000000000000000000006001600160a01b031690635b730e69906044015f604051808303815f87803b158015612b52575f5ffd5b505af1158015612b64573d5f5f3e3d5ffd5b505050505b60078201805460ff19166001179055612b8183612db1565b6002820154604080519182526020820183905284917fd22cebb1feab0fcab734f7cc0cf34b628de8ad16b8ba7b44b56edb0f75733127910160405180910390a250506118bb60015f516020613c9a5f395f51905f5255565b6001600160a01b039182165f90815260056020908152604080832093909416825291909152205460ff1690565b612c0e612d31565b6001600160a01b038116612c565760405162461bcd60e51b815260206004820152600f60248201526e496e76616c6964206164647265737360881b6044820152606401610a80565b600754604080516001600160a01b03928316815291831660208301527fa92ff4390fe6943f0b30e8fe715dde86f85ab79b2b2c640a10fc094cc4036cc8910160405180910390a1600780546001600160a01b0319166001600160a01b0392909216919091179055565b612cc7612d31565b6001600160a01b038116612cf057604051631e4fbdf760e01b81525f6004820152602401610a80565b6118bb81612f91565b5f818152600260205260408120546001600160a01b03168061096357604051637e27328960e01b815260048101849052602401610a80565b6006546001600160a01b0316331461139e5760405163118cdaa760e01b8152336004820152602401610a80565b611150838383600161324a565b600654600160a01b900460ff161561139e5760405163d93c066560e01b815260040160405180910390fd5b612d9e61334e565b60025f516020613c9a5f395f51905f5255565b5f612dbd5f835f612e4a565b90506001600160a01b038116610b2957604051637e27328960e01b815260048101839052602401610a80565b6001600160a01b038216612e1257604051633250574960e11b81525f6004820152602401610a80565b5f612e1e83835f612e4a565b90506001600160a01b03811615611150576040516339e3563760e11b81525f6004820152602401610a80565b5f828152600260205260408120546001600160a01b0390811690831615612e7657612e7681848661337d565b6001600160a01b03811615612eb057612e915f855f5f61324a565b6001600160a01b0381165f90815260036020526040902080545f190190555b6001600160a01b03851615612ede576001600160a01b0385165f908152600360205260409020805460010190555b5f8481526002602052604080822080546001600160a01b0319166001600160a01b0389811691821790925591518793918516917fddf252ad1be2c89b69c2b068fc378daa952ba7f163c4a11628f55a4df523b3ef91a4949350505050565b612f446133e1565b6006805460ff60a01b191690557f5db9ee0a495bf2e6ff9c91a7834c1ba4fdd244a5e8aa4e537bd38aeae4b073aa335b6040516001600160a01b03909116815260200160405180910390a1565b600680546001600160a01b038381166001600160a01b0319831681179093556040519116919082907f8be0079c531659141344cd1fd0a4f28419497f9722a3daafe3b4186f6b6457e0905f90a35050565b612fea612d6b565b6006805460ff60a01b1916600160a01b1790557f62e78cea01bee320cd4e420270b5ea74000d11b0c9f74754ebdbfc544b05a258612f743390565b61303384848484600161340b565b6111d857604051635274afe760e01b81526001600160a01b0385166004820152602401610a80565b6001600160a01b0383166130845760405163a9fbf51f60e01b81525f6004820152602401610a80565b6001600160a01b0382166130b657604051630b61174360e31b81526001600160a01b0383166004820152602401610a80565b6001600160a01b038381165f81815260056020908152604080832094871680845294825291829020805460ff191686151590811790915591519182527f17307eab39ab6107e8899845ad3d59bd9653f200f220920489ca2b5937696c31910160405180910390a3505050565b6001600160a01b0383163b1561324357604051630a85bd0160e11b81526001600160a01b0384169063150b7a0290613164908890889087908790600401613c42565b6020604051808303815f875af192505050801561319e575060408051601f3d908101601f1916820190925261319b91810190613c7e565b60015b613205573d8080156131cb576040519150601f19603f3d011682016040523d82523d5f602084013e6131d0565b606091505b5080515f036131fd57604051633250574960e11b81526001600160a01b0385166004820152602401610a80565b805160208201fd5b6001600160e01b03198116630a85bd0160e11b1461324157604051633250574960e11b81526001600160a01b0385166004820152602401610a80565b505b5050505050565b808061325e57506001600160a01b03821615155b1561331f575f61326d84612cf9565b90506001600160a01b038316158015906132995750826001600160a01b0316816001600160a01b031614155b80156132ac57506132aa8184612bd9565b155b156132d55760405163a9fbf51f60e01b81526001600160a01b0384166004820152602401610a80565b811561331d5783856001600160a01b0316826001600160a01b03167f8c5be1e5ebec7d5bd14f71427d1e84f3dd0314c0f7b2291e5b200ac8c7c3b92560405160405180910390a45b505b50505f90815260046020526040902080546001600160a01b0319166001600160a01b0392909216919091179055565b5f516020613c9a5f395f51905f525460020361139e57604051633ee5aeb560e01b815260040160405180910390fd5b613388838383613478565b611150576001600160a01b0383166133b657604051637e27328960e01b815260048101829052602401610a80565b60405163177e802f60e01b81526001600160a01b038316600482015260248101829052604401610a80565b600654600160a01b900460ff1661139e57604051638dfc202b60e01b815260040160405180910390fd5b6040516323b872dd60e01b5f8181526001600160a01b038781166004528616602452604485905291602083606481808c5af1925060015f5114831661346757838315161561345b573d5f823e3d81fd5b5f883b113d1516831692505b604052505f60605295945050505050565b5f6001600160a01b038316158015906109995750826001600160a01b0316846001600160a01b031614806134b157506134b18484612bd9565b806109995750505f908152600460205260409020546001600160a01b03908116911614919050565b6040518061010001604052805f81526020015f6001600160a01b031681526020015f81526020015f81526020015f81526020015f81526020015f81526020015f600381111561352a5761352a6137f2565b905290565b6001600160e01b0319811681146118bb575f5ffd5b5f60208284031215613554575f5ffd5b813561355f8161352f565b9392505050565b5f5f5f60608486031215613578575f5ffd5b505081359360208301359350604090920135919050565b5f81518084528060208401602086015e5f602082860101526020601f19601f83011685010191505092915050565b602081525f61355f602083018461358f565b5f602082840312156135df575f5ffd5b5035919050565b80356001600160a01b03811681146127df575f5ffd5b5f5f6040838503121561360d575f5ffd5b613616836135e6565b946020939093013593505050565b5f5f60408385031215613635575f5ffd5b50508035926020909101359150565b634e487b7160e01b5f52604160045260245ffd5b5f5f67ffffffffffffffff84111561367257613672613644565b50604051601f19601f85018116603f0116810181811067ffffffffffffffff821117156136a1576136a1613644565b6040528381529050808284018510156136b8575f5ffd5b838360208301375f60208583010152509392505050565b5f5f604083850312156136e0575f5ffd5b82359150602083013567ffffffffffffffff8111156136fd575f5ffd5b8301601f8101851361370d575f5ffd5b61371c85823560208401613658565b9150509250929050565b5f5f5f60608486031215613738575f5ffd5b613741846135e6565b925061374f602085016135e6565b929592945050506040919091013590565b5f60208284031215613770575f5ffd5b61355f826135e6565b602080825282518282018190525f918401906040840190835b818110156137b0578351835260209384019390920191600101613792565b509095945050505050565b5f5f5f5f5f60a086880312156137cf575f5ffd5b505083359560208501359550604085013594606081013594506080013592509050565b634e487b7160e01b5f52602160045260245ffd5b6004811061382257634e487b7160e01b5f52602160045260245ffd5b9052565b5f610100820190508251825260018060a01b03602084015116602083015260408301516040830152606083015160608301526080830151608083015260a083015160a083015260c083015160c083015260e083015161388860e0840182613806565b5092915050565b5f5f604083850312156138a0575f5ffd5b6138a9836135e6565b9150602083013580151581146138bd575f5ffd5b809150509250929050565b8881526001600160a01b038816602082015260408101879052606081018690526080810185905260a0810184905260c08101839052610100810161390f60e0830184613806565b9998505050505050505050565b5f5f5f5f6080858703121561392f575f5ffd5b613938856135e6565b9350613946602086016135e6565b925060408501359150606085013567ffffffffffffffff811115613968575f5ffd5b8501601f81018713613978575f5ffd5b61398787823560208401613658565b91505092959194509250565b5f5f604083850312156139a4575f5ffd5b6139ad836135e6565b91506139bb602084016135e6565b90509250929050565b634e487b7160e01b5f52601160045260245ffd5b8082028115828204841417610963576109636139c4565b5f82613a0957634e487b7160e01b5f52601260045260245ffd5b500490565b600181811c90821680613a2257607f821691505b602082108103613a4057634e487b7160e01b5f52602260045260245ffd5b50919050565b602080825260139082015272141b185b88191bd95cc81b9bdd08195e1a5cdd606a1b604082015260600190565b60208082526016908201527511195c1bdcda5d08191bd95cc81b9bdd08195e1a5cdd60521b604082015260600190565b60208082526010908201526f139bdd081e5bdd5c8819195c1bdcda5d60821b604082015260600190565b6020808252600a90820152694e6f742061637469766560b01b604082015260600190565b81810381811115610963576109636139c4565b80820180821115610963576109636139c4565b5f60018201613b2857613b286139c4565b5060010190565b601f82111561115057805f5260205f20601f840160051c81016020851015613b545750805b601f840160051c820191505b81811015613243575f8155600101613b60565b815167ffffffffffffffff811115613b8d57613b8d613644565b613ba181613b9b8454613a0e565b84613b2f565b6020601f821160018114613bd3575f8315613bbc5750848201515b5f19600385901b1c1916600184901b178455613243565b5f84815260208120601f198516915b82811015613c025787850151825560209485019460019092019101613be2565b5084821015613c1f57868401515f19600387901b60f8161c191681555b50505050600190811b01905550565b634e487b7160e01b5f52603260045260245ffd5b6001600160a01b03858116825284166020820152604081018390526080606082018190525f90613c749083018461358f565b9695505050505050565b5f60208284031215613c8e575f5ffd5b815161355f8161352f56fe9b779b17422d0df92223018b32b4d1fa46e071723d6817e2486d003becc55f00a26469706673582212202b849b401112d9dc0d8c182caf2a991696d9eb84acf05f71fcf60a230b38dc1c64736f6c634300081c0033",
  "linkReferences": {},
  "deployedLinkReferences": {}
}