{
  "_format": "hh-sol-artifact-1",
  "contractName": "VaultManager",
  "sourceName": "contracts/VaultManager.sol",
  "abi": [
    {
      "inputs": [
        {
          "internalType": "address",
          "name": "_usdc",
          "type": "address"
        }
      ],
      "stateMutability": "nonpayable",
      "type": "constructor"
    },
    {
      "inputs": [],
      "name": "EnforcedPause",
      "type": "error"
    },
    {
      "inputs": [],
      "name": "ExpectedPause",
      "type": "error"
    },
    {
      "inputs": [
        {
          "internalType": "address",
          "name": "owner",
          "type": "address"
        }
      ],
      "name": "OwnableInvalidOwner",
      "type": "error"
    },
    {
      "inputs": [
        {
          "internalType": "address",
          "name": "account",
          "type": "address"
        }
      ],
      "name": "OwnableUnauthorizedAccount",
      "type": "error"
    },
    {
      "inputs": [],
      "name": "ReentrancyGuardReentrantCall",
      "type": "error"
    },
    {
      "inputs": [
        {
          "internalType": "address",
          "name": "token",
          "type": "address"
        }
      ],
      "name": "SafeERC20FailedOperation",
      "type": "error"
    },
    {
      "anonymous": false,
      "inputs": [
        {
          "indexed": false,
          "internalType": "uint256",
          "name": "amount",
          "type": "uint256"
        }
      ],
      "name": "DepositRecorded",
      "type": "event"
    },
    {
      "anonymous": false,
      "inputs": [
        {
          "indexed": false,
          "internalType": "uint256",
          "name": "amount",
          "type": "uint256"
        }
      ],
      "name": "InterestOwedRecorded",
      "type": "event"
    },
    {
      "anonymous": false,
      "inputs": [
        {
          "indexed": false,
          "internalType": "uint256",
          "name": "amount",
          "type": "uint256"
        }
      ],
      "name": "InterestOwedReleased",
      "type": "event"
    },
    {
      "anonymous": false,
      "inputs": [
        {
          "indexed": true,
          "internalType": "address",
          "name": "previousOwner",
          "type": "address"
        },
        {
          "indexed": true,
          "internalType": "address",
          "name": "newOwner",
          "type": "address"
        }
      ],
      "name": "OwnershipTransferred",
      "type": "event"
    },
    {
      "anonymous": false,
      "inputs": [
        {
          "indexed": false,
          "internalType": "address",
          "name": "account",
          "type": "address"
        }
      ],
      "name": "Paused",
      "type": "event"
    },
    {
      "anonymous": false,
      "inputs": [],
      "name": "PausedByOwner",
      "type": "event"
    },
    {
      "anonymous": false,
      "inputs": [
        {
          "indexed": false,
          "internalType": "address",
          "name": "account",
          "type": "address"
        }
      ],
      "name": "Unpaused",
      "type": "event"
    },
    {
      "anonymous": false,
      "inputs": [],
      "name": "UnpausedByOwner",
      "type": "event"
    },
    {
      "anonymous": false,
      "inputs": [
        {
          "indexed": true,
          "internalType": "address",
          "name": "owner",
          "type": "address"
        },
        {
          "indexed": false,
          "internalType": "uint256",
          "name": "amount",
          "type": "uint256"
        }
      ],
      "name": "VaultFunded",
      "type": "event"
    },
    {
      "anonymous": false,
      "inputs": [
        {
          "indexed": true,
          "internalType": "address",
          "name": "owner",
          "type": "address"
        },
        {
          "indexed": false,
          "internalType": "uint256",
          "name": "amount",
          "type": "uint256"
        }
      ],
      "name": "VaultWithdrawn",
      "type": "event"
    },
    {
      "anonymous": false,
      "inputs": [
        {
          "indexed": false,
          "internalType": "uint256",
          "name": "amount",
          "type": "uint256"
        }
      ],
      "name": "WithdrawalRecorded",
      "type": "event"
    },
    {
      "inputs": [
        {
          "internalType": "uint256",
          "name": "amount",
          "type": "uint256"
        }
      ],
      "name": "depositToVault",
      "outputs": [],
      "stateMutability": "nonpayable",
      "type": "function"
    },
    {
      "inputs": [
        {
          "internalType": "uint256",
          "name": "amount",
          "type": "uint256"
        }
      ],
      "name": "fund",
      "outputs": [],
      "stateMutability": "nonpayable",
      "type": "function"
    },
    {
      "inputs": [],
      "name": "getAvailableLiquidity",
      "outputs": [
        {
          "internalType": "uint256",
          "name": "",
          "type": "uint256"
        }
      ],
      "stateMutability": "view",
      "type": "function"
    },
    {
      "inputs": [],
      "name": "isSolvent",
      "outputs": [
        {
          "internalType": "bool",
          "name": "",
          "type": "bool"
        }
      ],
      "stateMutability": "view",
      "type": "function"
    },
    {
      "inputs": [],
      "name": "owner",
      "outputs": [
        {
          "internalType": "address",
          "name": "",
          "type": "address"
        }
      ],
      "stateMutability": "view",
      "type": "function"
    },
    {
      "inputs": [],
      "name": "pause",
      "outputs": [],
      "stateMutability": "nonpayable",
      "type": "function"
    },
    {
      "inputs": [],
      "name": "paused",
      "outputs": [
        {
          "internalType": "bool",
          "name": "",
          "type": "bool"
        }
      ],
      "stateMutability": "view",
      "type": "function"
    },
    {
      "inputs": [
        {
          "internalType": "uint256",
          "name": "amount",
          "type": "uint256"
        }
      ],
      "name": "recordInterestOwed",
      "outputs": [],
      "stateMutability": "nonpayable",
      "type": "function"
    },
    {
      "inputs": [
        {
          "internalType": "uint256",
          "name": "amount",
          "type": "uint256"
        }
      ],
      "name": "releaseInterestOwed",
      "outputs": [],
      "stateMutability": "nonpayable",
      "type": "function"
    },
    {
      "inputs": [],
      "name": "renounceOwnership",
      "outputs": [],
      "stateMutability": "nonpayable",
      "type": "function"
    },
    {
      "inputs": [],
      "name": "totalDeposits",
      "outputs": [
        {
          "internalType": "uint256",
          "name": "",
          "type": "uint256"
        }
      ],
      "stateMutability": "view",
      "type": "function"
    },
    {
      "inputs": [],
      "name": "totalOwedInterest",
      "outputs": [
        {
          "internalType": "uint256",
          "name": "",
          "type": "uint256"
        }
      ],
      "stateMutability": "view",
      "type": "function"
    },
    {
      "inputs": [
        {
          "internalType": "address",
          "name": "newOwner",
          "type": "address"
        }
      ],
      "name": "transferOwnership",
      "outputs": [],
      "stateMutability": "nonpayable",
      "type": "function"
    },
    {
      "inputs": [],
      "name": "unpause",
      "outputs": [],
      "stateMutability": "nonpayable",
      "type": "function"
    },
    {
      "inputs": [],
      "name": "usdc",
      "outputs": [
        {
          "internalType": "contract IERC20",
          "name": "",
          "type": "address"
        }
      ],
      "stateMutability": "view",
      "type": "function"
    },
    {
      "inputs": [],
      "name": "vaultBalance",
      "outputs": [
        {
          "internalType": "uint256",
          "name": "",
          "type": "uint256"
        }
      ],
      "stateMutability": "view",
      "type": "function"
    },
    {
      "inputs": [
        {
          "internalType": "uint256",
          "name": "amount",
          "type": "uint256"
        }
      ],
      "name": "withdraw",
      "outputs": [],
      "stateMutability": "nonpayable",
      "type": "function"
    },
    {
      "inputs": [
        {
          "internalType": "address",
          "name": "to",
          "type": "address"
        },
        {
          "internalType": "uint256",
          "name": "amount",
          "type": "uint256"
        }
      ],
      "name": "withdrawFromVault",
      "outputs": [],
      "stateMutability": "nonpayable",
      "type": "function"
    },
    {
      "inputs": [
        {
          "internalType": "address",
          "name": "to",
          "type": "address"
        },
        {
          "internalType": "uint256",
          "name": "amount",
          "type": "uint256"
        }
      ],
      "name": "withdrawInterest",
      "outputs": [],
      "stateMutability": "nonpayable",
      "type": "function"
    }
  ],
  "bytecode": "0x60a060405234801561000f575f5ffd5b5060405161110e38038061110e83398101604081905261002e91610138565b338061005457604051631e4fbdf760e01b81525f60048201526024015b60405180910390fd5b61005d816100e9565b5060017f9b779b17422d0df92223018b32b4d1fa46e071723d6817e2486d003becc55f00556001600160a01b0381166100d85760405162461bcd60e51b815260206004820152601460248201527f496e76616c696420555344432061646472657373000000000000000000000000604482015260640161004b565b6001600160a01b0316608052610165565b5f80546001600160a01b038381166001600160a01b0319831681178455604051919092169283917f8be0079c531659141344cd1fd0a4f28419497f9722a3daafe3b4186f6b6457e09190a35050565b5f60208284031215610148575f5ffd5b81516001600160a01b038116811461015e575f5ffd5b9392505050565b608051610f526101bc5f395f818161017b01528181610292015281816103b60152818161048001528181610558015281816106a601528181610782015281816107cf015281816108bb01526109e10152610f525ff3fe608060405234801561000f575f5ffd5b506004361061011c575f3560e01c8063715018a6116100a95780639bdf317f1161006e5780639bdf317f14610226578063b04622961461022f578063ca1d209d14610242578063e323140714610255578063f2fde38b14610268575f5ffd5b8063715018a6146101f55780637d882097146101fd5780638456cb59146102065780638da5cb5b1461020e5780639b745aec1461021e575f5ffd5b80633e413bee116100ef5780633e413bee146101765780633f4ba83a146101b55780635b730e69146101bd5780635c975abb146101d05780635ce23950146101ed575f5ffd5b80630bf6cc081461012057806321116f4e1461013b5780632e1a7d4d14610150578063387a227914610163575b5f5ffd5b61012861027b565b6040519081526020015b60405180910390f35b61014e610149366004610e1a565b610308565b005b61014e61015e366004610e42565b61042a565b61014e610171366004610e42565b6105cd565b61019d7f000000000000000000000000000000000000000000000000000000000000000081565b6040516001600160a01b039091168152602001610132565b61014e61061a565b61014e6101cb366004610e1a565b610654565b5f54600160a01b900460ff165b6040519015158152602001610132565b6101dd6107a9565b61014e610847565b61012860015481565b61014e61085a565b5f546001600160a01b031661019d565b610128610894565b61012860025481565b61014e61023d366004610e42565b610938565b61014e610250366004610e42565b6109a5565b61014e610263366004610e42565b610a41565b61014e610276366004610e59565b610ad2565b6040516370a0823160e01b81523060048201525f907f00000000000000000000000000000000000000000000000000000000000000006001600160a01b0316906370a0823190602401602060405180830381865afa1580156102df573d5f5f3e3d5ffd5b505050506040513d601f19601f820116820180604052508101906103039190610e79565b905090565b610310610b0c565b610318610b36565b5f81116103405760405162461bcd60e51b815260040161033790610e90565b60405180910390fd5b8060015410156103925760405162461bcd60e51b815260206004820152601d60248201527f496e73756666696369656e74206465706f7369747320747261636b65640000006044820152606401610337565b8060015f8282546103a39190610ed0565b909155506103dd90506001600160a01b037f0000000000000000000000000000000000000000000000000000000000000000168383610b51565b6040518181527f19d46f06ab4f770296cbee3c64ee6fb5bd808cb94e7faab8ff12264be0ff28199060200160405180910390a161042660015f516020610efd5f395f51905f5255565b5050565b610432610b8b565b61043a610b36565b5f81116104595760405162461bcd60e51b815260040161033790610e90565b6002546001546040516370a0823160e01b8152306004820152839291906001600160a01b037f000000000000000000000000000000000000000000000000000000000000000016906370a0823190602401602060405180830381865afa1580156104c5573d5f5f3e3d5ffd5b505050506040513d601f19601f820116820180604052508101906104e99190610e79565b6104f39190610ed0565b6104fd9190610ed0565b101561054b5760405162461bcd60e51b815260206004820152601960248201527f496e73756666696369656e7420667265652062616c616e6365000000000000006044820152606401610337565b61057f6001600160a01b037f0000000000000000000000000000000000000000000000000000000000000000163383610b51565b60405181815233907f1b5775af7e7537be20684ccf94b9c6f4b180dabad653f5b57a234a9c6a3db40b9060200160405180910390a26105ca60015f516020610efd5f395f51905f5255565b50565b8060025f8282546105de9190610ee9565b90915550506040518181527f532b18c328c14224fde1a193e1a5d9b5ba2b8d38f7c18f732082f32765279f78906020015b60405180910390a150565b610622610b8b565b61062a610bb7565b6040517f28d483f69574d123a1ce3b352cce4d9a78aef0d9649c0514d6136bc31bfbcf56905f90a1565b61065c610b0c565b610664610b36565b5f81116106835760405162461bcd60e51b815260040161033790610e90565b806001546106919190610ee9565b6040516370a0823160e01b81523060048201527f00000000000000000000000000000000000000000000000000000000000000006001600160a01b0316906370a0823190602401602060405180830381865afa1580156106f3573d5f5f3e3d5ffd5b505050506040513d601f19601f820116820180604052508101906107179190610e79565b10156107755760405162461bcd60e51b815260206004820152602760248201527f496e73756666696369656e74207661756c742062616c616e636520666f7220696044820152661b9d195c995cdd60ca1b6064820152608401610337565b6103dd6001600160a01b037f0000000000000000000000000000000000000000000000000000000000000000168383610b51565b5f6002546001546107ba9190610ee9565b6040516370a0823160e01b81523060048201527f00000000000000000000000000000000000000000000000000000000000000006001600160a01b0316906370a0823190602401602060405180830381865afa15801561081c573d5f5f3e3d5ffd5b505050506040513d601f19601f820116820180604052508101906108409190610e79565b1015905090565b61084f610b8b565b6108585f610c0b565b565b610862610b8b565b61086a610c5a565b6040517f8f1c031a4b72967d2ff6dd079c6a3a7ae6009cf2d46b2af0f43890df1f808041905f90a1565b6002546001546040516370a0823160e01b81523060048201525f9291906001600160a01b037f000000000000000000000000000000000000000000000000000000000000000016906370a0823190602401602060405180830381865afa158015610900573d5f5f3e3d5ffd5b505050506040513d601f19601f820116820180604052508101906109249190610e79565b61092e9190610ed0565b6103039190610ed0565b610940610b0c565b5f811161095f5760405162461bcd60e51b815260040161033790610e90565b8060015f8282546109709190610ee9565b90915550506040518181527fdc648a654daa080b0ac338c8bd79518b12afd8b5f408bc6fe5921e467aaa0dcd9060200161060f565b6109ad610b8b565b6109b5610b0c565b5f81116109d45760405162461bcd60e51b815260040161033790610e90565b610a096001600160a01b037f000000000000000000000000000000000000000000000000000000000000000016333084610c9c565b60405181815233907fba24bd9b798cca64d1031eda1ced9398802343e44e07779bb510d7a21ddddef19060200160405180910390a250565b806002541015610a8c5760405162461bcd60e51b8152602060048201526016602482015275125b9d985b1a59081c995b19585cd948185b5bdd5b9d60521b6044820152606401610337565b8060025f828254610a9d9190610ed0565b90915550506040518181527f7589eeb63214d4ce475010ce58f84d95665e18c5c1cbb1741549739549f8ffb09060200161060f565b610ada610b8b565b6001600160a01b038116610b0357604051631e4fbdf760e01b81525f6004820152602401610337565b6105ca81610c0b565b5f54600160a01b900460ff16156108585760405163d93c066560e01b815260040160405180910390fd5b610b3e610cd8565b60025f516020610efd5f395f51905f5255565b610b5e8383836001610d07565b610b8657604051635274afe760e01b81526001600160a01b0384166004820152602401610337565b505050565b5f546001600160a01b031633146108585760405163118cdaa760e01b8152336004820152602401610337565b610bbf610d69565b5f805460ff60a01b191690557f5db9ee0a495bf2e6ff9c91a7834c1ba4fdd244a5e8aa4e537bd38aeae4b073aa335b6040516001600160a01b03909116815260200160405180910390a1565b5f80546001600160a01b038381166001600160a01b0319831681178455604051919092169283917f8be0079c531659141344cd1fd0a4f28419497f9722a3daafe3b4186f6b6457e09190a35050565b610c62610b0c565b5f805460ff60a01b1916600160a01b1790557f62e78cea01bee320cd4e420270b5ea74000d11b0c9f74754ebdbfc544b05a258610bee3390565b610caa848484846001610d92565b610cd257604051635274afe760e01b81526001600160a01b0385166004820152602401610337565b50505050565b5f516020610efd5f395f51905f525460020361085857604051633ee5aeb560e01b815260040160405180910390fd5b60405163a9059cbb60e01b5f8181526001600160a01b038616600452602485905291602083604481808b5af1925060015f51148316610d5d578383151615610d51573d5f823e3d81fd5b5f873b113d1516831692505b60405250949350505050565b5f54600160a01b900460ff1661085857604051638dfc202b60e01b815260040160405180910390fd5b6040516323b872dd60e01b5f8181526001600160a01b038781166004528616602452604485905291602083606481808c5af1925060015f51148316610dee578383151615610de2573d5f823e3d81fd5b5f883b113d1516831692505b604052505f60605295945050505050565b80356001600160a01b0381168114610e15575f5ffd5b919050565b5f5f60408385031215610e2b575f5ffd5b610e3483610dff565b946020939093013593505050565b5f60208284031215610e52575f5ffd5b5035919050565b5f60208284031215610e69575f5ffd5b610e7282610dff565b9392505050565b5f60208284031215610e89575f5ffd5b5051919050565b6020808252601290820152710416d6f756e74206d757374206265203e20360741b604082015260600190565b634e487b7160e01b5f52601160045260245ffd5b81810381811115610ee357610ee3610ebc565b92915050565b80820180821115610ee357610ee3610ebc56fe9b779b17422d0df92223018b32b4d1fa46e071723d6817e2486d003becc55f00a26469706673582212200da9581b260ee8bac211d54833179cdabf83bd7350bb23248b195c7bd10999a564736f6c634300081c0033",
  "linkReferences": {},
  "deployedLinkReferences": {}
}